{
  "_format": "hh-sol-artifact-1",
  "contractName": "FlightTicket",
  "sourceName": "contracts/FlightTicket.sol",
  "abi": [
    {
      "inputs": [],
      "stateMutability": "nonpayable",
      "type": "constructor"
    },
    {
      "inputs": [],
      "name": "FlightTicket__CanOnlyRefundPayer",
      "type": "error"
    },
    {
      "inputs": [],
      "name": "FlightTicket__DateisLessThanCurrentTime",
      "type": "error"
    },
    {
      "inputs": [],
      "name": "FlightTicket__FlightAlreadyExists",
      "type": "error"
    },
    {
      "inputs": [],
      "name": "FlightTicket__FlightNotFound",
      "type": "error"
    },
    {
      "inputs": [],
      "name": "FlightTicket__FlightWentSuccessfully",
      "type": "error"
    },
    {
      "inputs": [],
      "name": "FlightTicket__IncorrectETHAmount",
      "type": "error"
    },
    {
      "inputs": [],
      "name": "FlightTicket__InvalidJsonProof",
      "type": "error"
    },
    {
      "inputs": [],
      "name": "FlightTicket__PriceNotAvailable",
      "type": "error"
    },
    {
      "inputs": [],
      "name": "FlightTicket__RandomNumberNotSecure",
      "type": "error"
    },
    {
      "inputs": [],
      "name": "FlightTicket__SendingFailed",
      "type": "error"
    },
    {
      "inputs": [],
      "name": "FlightTicket__TicketAlreadyRefunded",
      "type": "error"
    },
    {
      "inputs": [],
      "name": "FlightTicket__TicketNotExpired",
      "type": "error"
    },
    {
      "inputs": [],
      "name": "FlightTicket__TicketNotSameAsData",
      "type": "error"
    },
    {
      "inputs": [],
      "name": "FlightTicket__TokenNotSupported",
      "type": "error"
    },
    {
      "anonymous": false,
      "inputs": [
        {
          "indexed": false,
          "internalType": "uint256",
          "name": "id",
          "type": "uint256"
        },
        {
          "indexed": false,
          "internalType": "string",
          "name": "route",
          "type": "string"
        },
        {
          "indexed": false,
          "internalType": "uint256",
          "name": "date",
          "type": "uint256"
        },
        {
          "indexed": false,
          "internalType": "uint256",
          "name": "amountPaid",
          "type": "uint256"
        }
      ],
      "name": "FlightCreated",
      "type": "event"
    },
    {
      "anonymous": false,
      "inputs": [
        {
          "indexed": false,
          "internalType": "uint256",
          "name": "ticketId",
          "type": "uint256"
        },
        {
          "indexed": false,
          "internalType": "uint256",
          "name": "flightId",
          "type": "uint256"
        },
        {
          "indexed": false,
          "internalType": "string",
          "name": "route",
          "type": "string"
        },
        {
          "indexed": false,
          "internalType": "uint256",
          "name": "date",
          "type": "uint256"
        },
        {
          "indexed": false,
          "internalType": "string",
          "name": "weatherCondition",
          "type": "string"
        },
        {
          "indexed": false,
          "internalType": "string",
          "name": "refundStatus",
          "type": "string"
        },
        {
          "indexed": false,
          "internalType": "uint256",
          "name": "amountPaid",
          "type": "uint256"
        },
        {
          "indexed": false,
          "internalType": "address",
          "name": "payer",
          "type": "address"
        }
      ],
      "name": "FlightTicketPurchased",
      "type": "event"
    },
    {
      "anonymous": false,
      "inputs": [
        {
          "indexed": false,
          "internalType": "uint256",
          "name": "ticketId",
          "type": "uint256"
        },
        {
          "indexed": false,
          "internalType": "uint256",
          "name": "flightId",
          "type": "uint256"
        },
        {
          "indexed": false,
          "internalType": "string",
          "name": "route",
          "type": "string"
        },
        {
          "indexed": false,
          "internalType": "uint256",
          "name": "date",
          "type": "uint256"
        },
        {
          "indexed": false,
          "internalType": "uint256",
          "name": "timestamp",
          "type": "uint256"
        },
        {
          "indexed": false,
          "internalType": "string",
          "name": "weatherCondition",
          "type": "string"
        },
        {
          "indexed": false,
          "internalType": "string",
          "name": "refundStatus",
          "type": "string"
        },
        {
          "indexed": false,
          "internalType": "uint256",
          "name": "amountPaid",
          "type": "uint256"
        },
        {
          "indexed": false,
          "internalType": "address",
          "name": "token",
          "type": "address"
        },
        {
          "indexed": false,
          "internalType": "address",
          "name": "recipient",
          "type": "address"
        }
      ],
      "name": "FlightTicketWithdrawn",
      "type": "event"
    },
    {
      "anonymous": false,
      "inputs": [
        {
          "indexed": true,
          "internalType": "address",
          "name": "previousOwner",
          "type": "address"
        },
        {
          "indexed": true,
          "internalType": "address",
          "name": "newOwner",
          "type": "address"
        }
      ],
      "name": "OwnershipTransferred",
      "type": "event"
    },
    {
      "inputs": [],
      "name": "FIAT_priceDecimals",
      "outputs": [
        {
          "internalType": "uint256",
          "name": "",
          "type": "uint256"
        }
      ],
      "stateMutability": "view",
      "type": "function"
    },
    {
      "inputs": [],
      "name": "NATIVE_TOKEN",
      "outputs": [
        {
          "internalType": "address",
          "name": "",
          "type": "address"
        }
      ],
      "stateMutability": "view",
      "type": "function"
    },
    {
      "inputs": [],
      "name": "SLIPPAGE_TOLERANCE_BPS",
      "outputs": [
        {
          "internalType": "uint256",
          "name": "",
          "type": "uint256"
        }
      ],
      "stateMutability": "view",
      "type": "function"
    },
    {
      "inputs": [
        {
          "components": [
            {
              "internalType": "uint256",
              "name": "flightId",
              "type": "uint256"
            },
            {
              "internalType": "string",
              "name": "status",
              "type": "string"
            },
            {
              "internalType": "string",
              "name": "reasonType",
              "type": "string"
            },
            {
              "internalType": "string",
              "name": "description",
              "type": "string"
            }
          ],
          "internalType": "struct FlightTicket.DataTransportObject",
          "name": "dto",
          "type": "tuple"
        }
      ],
      "name": "abiSignatureHack",
      "outputs": [],
      "stateMutability": "pure",
      "type": "function"
    },
    {
      "inputs": [
        {
          "internalType": "string",
          "name": "_route",
          "type": "string"
        },
        {
          "internalType": "uint256",
          "name": "_date",
          "type": "uint256"
        },
        {
          "internalType": "uint256",
          "name": "_amountInUsd",
          "type": "uint256"
        }
      ],
      "name": "createFlight",
      "outputs": [],
      "stateMutability": "nonpayable",
      "type": "function"
    },
    {
      "inputs": [
        {
          "internalType": "uint256",
          "name": "",
          "type": "uint256"
        }
      ],
      "name": "flights",
      "outputs": [
        {
          "internalType": "uint256",
          "name": "id",
          "type": "uint256"
        },
        {
          "internalType": "string",
          "name": "route",
          "type": "string"
        },
        {
          "internalType": "uint256",
          "name": "date",
          "type": "uint256"
        },
        {
          "internalType": "uint256",
          "name": "amountInUsd",
          "type": "uint256"
        }
      ],
      "stateMutability": "view",
      "type": "function"
    },
    {
      "inputs": [
        {
          "internalType": "uint256",
          "name": "_flightId",
          "type": "uint256"
        }
      ],
      "name": "getFlightDetails",
      "outputs": [
        {
          "internalType": "uint256",
          "name": "flightId",
          "type": "uint256"
        },
        {
          "internalType": "string",
          "name": "route",
          "type": "string"
        },
        {
          "internalType": "uint256",
          "name": "date",
          "type": "uint256"
        },
        {
          "internalType": "uint256",
          "name": "amountPaid",
          "type": "uint256"
        }
      ],
      "stateMutability": "view",
      "type": "function"
    },
    {
      "inputs": [
        {
          "internalType": "address",
          "name": "token",
          "type": "address"
        },
        {
          "internalType": "uint256",
          "name": "amountInUsd",
          "type": "uint256"
        }
      ],
      "name": "getUsdToTokenPrice",
      "outputs": [
        {
          "internalType": "uint256",
          "name": "",
          "type": "uint256"
        }
      ],
      "stateMutability": "view",
      "type": "function"
    },
    {
      "inputs": [],
      "name": "owner",
      "outputs": [
        {
          "internalType": "address",
          "name": "",
          "type": "address"
        }
      ],
      "stateMutability": "view",
      "type": "function"
    },
    {
      "inputs": [
        {
          "internalType": "uint256",
          "name": "flightId",
          "type": "uint256"
        },
        {
          "internalType": "address",
          "name": "token",
          "type": "address"
        }
      ],
      "name": "payForFlight",
      "outputs": [],
      "stateMutability": "payable",
      "type": "function"
    },
    {
      "inputs": [
        {
          "internalType": "uint256",
          "name": "ticketId",
          "type": "uint256"
        },
        {
          "components": [
            {
              "internalType": "bytes32[]",
              "name": "merkleProof",
              "type": "bytes32[]"
            },
            {
              "components": [
                {
                  "internalType": "bytes32",
                  "name": "attestationType",
                  "type": "bytes32"
                },
                {
                  "internalType": "bytes32",
                  "name": "sourceId",
                  "type": "bytes32"
                },
                {
                  "internalType": "uint64",
                  "name": "votingRound",
                  "type": "uint64"
                },
                {
                  "internalType": "uint64",
                  "name": "lowestUsedTimestamp",
                  "type": "uint64"
                },
                {
                  "components": [
                    {
                      "internalType": "string",
                      "name": "url",
                      "type": "string"
                    },
                    {
                      "internalType": "string",
                      "name": "postprocessJq",
                      "type": "string"
                    },
                    {
                      "internalType": "string",
                      "name": "abi_signature",
                      "type": "string"
                    }
                  ],
                  "internalType": "struct IJsonApi.RequestBody",
                  "name": "requestBody",
                  "type": "tuple"
                },
                {
                  "components": [
                    {
                      "internalType": "bytes",
                      "name": "abi_encoded_data",
                      "type": "bytes"
                    }
                  ],
                  "internalType": "struct IJsonApi.ResponseBody",
                  "name": "responseBody",
                  "type": "tuple"
                }
              ],
              "internalType": "struct IJsonApi.Response",
              "name": "data",
              "type": "tuple"
            }
          ],
          "internalType": "struct IJsonApi.Proof",
          "name": "_proof",
          "type": "tuple"
        }
      ],
      "name": "refundTicket",
      "outputs": [],
      "stateMutability": "nonpayable",
      "type": "function"
    },
    {
      "inputs": [],
      "name": "renounceOwnership",
      "outputs": [],
      "stateMutability": "nonpayable",
      "type": "function"
    },
    {
      "inputs": [
        {
          "internalType": "uint256",
          "name": "",
          "type": "uint256"
        }
      ],
      "name": "tickets",
      "outputs": [
        {
          "internalType": "uint256",
          "name": "ticketId",
          "type": "uint256"
        },
        {
          "internalType": "uint256",
          "name": "flightId",
          "type": "uint256"
        },
        {
          "internalType": "string",
          "name": "route",
          "type": "string"
        },
        {
          "internalType": "uint256",
          "name": "date",
          "type": "uint256"
        },
        {
          "internalType": "string",
          "name": "weatherCondition",
          "type": "string"
        },
        {
          "internalType": "string",
          "name": "refundStatus",
          "type": "string"
        },
        {
          "internalType": "uint256",
          "name": "amountInUsd",
          "type": "uint256"
        },
        {
          "internalType": "uint256",
          "name": "amountSent",
          "type": "uint256"
        },
        {
          "internalType": "address",
          "name": "payer",
          "type": "address"
        },
        {
          "internalType": "address",
          "name": "token",
          "type": "address"
        },
        {
          "internalType": "bool",
          "name": "isWithdrawn",
          "type": "bool"
        }
      ],
      "stateMutability": "view",
      "type": "function"
    },
    {
      "inputs": [
        {
          "internalType": "address",
          "name": "",
          "type": "address"
        }
      ],
      "name": "tokenToFeedId",
      "outputs": [
        {
          "internalType": "bytes21",
          "name": "",
          "type": "bytes21"
        }
      ],
      "stateMutability": "view",
      "type": "function"
    },
    {
      "inputs": [
        {
          "internalType": "address",
          "name": "newOwner",
          "type": "address"
        }
      ],
      "name": "transferOwnership",
      "outputs": [],
      "stateMutability": "nonpayable",
      "type": "function"
    },
    {
      "inputs": [
        {
          "internalType": "uint256",
          "name": "_ticketId",
          "type": "uint256"
        }
      ],
      "name": "withdraw",
      "outputs": [],
      "stateMutability": "nonpayable",
      "type": "function"
    }
  ],
  "bytecode": "0x608080604052346102575760008054336001600160a01b0319821681178355916001600160a01b03909116907f8be0079c531659141344cd1fd0a4f28419497f9722a3daafe3b4186f6b6457e09080a360018055600480546001600160a81b031916665193148bd554d1606a1b1790556020818101908152600e60408301526d2930b73237b6a73ab6b132b92b1960911b6060808401919091528252906100a760808261025c565b51902060405190630ac9aa5160e11b8252600482015260208160248173ad67fe66660fb8dfe9d6b1b4240d8650e30f60195afa90811561022c57600091610238575b5060018060a01b031660018060a01b031960025416176002556040516020810190602082526006604082015265233a39b7ab1960d11b60608201526060815261013360808261025c565b51902060405190630ac9aa5160e11b8252600482015260208160248173ad67fe66660fb8dfe9d6b1b4240d8650e30f60195afa90811561022c576000916101fd575b50600380546001600160a01b0319166001600160a01b039290921691909117905573eeeeeeeeeeeeeeeeeeeeeeeeeeeeeeeeeeeeeeee60005260056020527fa1829a9003092132f585b6ccdd167c19fe9774dbdea4260287e8a8e8ca8185d780546001600160a81b031916665193148bd554d1606a1b179055604051611f2e90816102b58239f35b61021f915060203d602011610225575b610217818361025c565b810190610295565b38610175565b503d61020d565b6040513d6000823e3d90fd5b610251915060203d60201161022557610217818361025c565b386100e9565b600080fd5b601f909101601f19168101906001600160401b0382119082101761027f57604052565b634e487b7160e01b600052604160045260246000fd5b9081602091031261025757516001600160a01b0381168103610257579056fe6080604052600436101561001257600080fd5b60003560e01c806315ccf70f146116bc578063185350081461164b5780632a84d50f146116185780632e1a7d4d146113db57806331f7d964146113ac57806350b44712146112b657806365a544451461126b578063715018a6146112125780637597805f14610a8f5780638da5cb5b14610a665780639fb6ef2e14610a37578063ada91af014610402578063e47ffee5146101d0578063e9e7a710146101b4578063f11cddf6146101985763f2fde38b146100cc57600080fd5b34610193576020366003190112610193576100e56118a6565b6100ed611ad6565b6001600160a01b0316801561013f57600080546001600160a01b03198116831782556001600160a01b0316907f8be0079c531659141344cd1fd0a4f28419497f9722a3daafe3b4186f6b6457e09080a3005b60405162461bcd60e51b815260206004820152602660248201527f4f776e61626c653a206e6577206f776e657220697320746865207a65726f206160448201526564647265737360d01b6064820152608490fd5b600080fd5b3461019357600036600319011261019357602060405160c88152f35b3461019357600036600319011261019357602060405160648152f35b34610193576060366003190112610193576004356001600160401b038111610193576102009036906004016118d7565b6024359060443561020f611ad6565b610217611bd1565b904284106103f1576040519361022c85611740565b82855260208501948486526040810182815260608201908482528560005260076020526040600020925183556001830197519788516001600160401b0381116103db576102798254611706565b601f8111610393575b506020601f8211600114610302579181600394926102f299989796947f6e86888f6dd2568a918c94a4d4fcb46ef42bde66f00f4cea5372e2a3296f598c9d6000926102f7575b50508160011b9160001990871b1c19161790555b516002840155519101556040519485948561187d565b0390a1005b015190508d806102c8565b601f1982169a83600052816000209b60005b81811061037b5750927f6e86888f6dd2568a918c94a4d4fcb46ef42bde66f00f4cea5372e2a3296f598c9c6102f29a9998979593600193836003999710610363575b505050811b0190556102dc565b015160001983891b60f8161c191690558d8080610356565b838301518e556001909d019c60209384019301610314565b826000526020600020601f830160051c810191602084106103d1575b601f0160051c01905b8181106103c55750610282565b600081556001016103b8565b90915081906103af565b634e487b7160e01b600052604160045260246000fd5b630c989dd360e21b60005260046000fd5b34610193576040366003190112610193576004356024356001600160401b038111610193578036039160406003198401126101935761043f611b2e565b60405163d0f18f8560e01b815260206004820152826004013560221985018112156101935783016024600482013591016001600160401b038211610193578160051b9182360382136101935760406024850152606484018190526001600160fb1b03106101935781906084840137810160248401359460c219018512156101935783850160231960848484030101604484015260048101356084830152602481013560a48301526001600160401b036104fa60448301611ce1565b1660c48301526001600160401b0361051460648301611ce1565b1660e48301526084810135906003198136030191605e198301811215610193576004826105ab92010160c061010486015261059761058c61056b6105588480611cf5565b60606101448b01526101a48a0191611d26565b6105786020850185611cf5565b610143198a8403016101648b015290611d26565b916040810190611cf5565b610143198784030161018488015290611d26565b9260a482013592601e190183121561019357602093846105e56105f293600489979688970101906101246083198287030191015280611cf5565b9190928181520191611d26565b03817307ad8508c9173dc845817472ca0484035abfa3c85afa908115610a2b576000916109f1575b50156109e057806000526006602052604060002060405161063a8161175b565b815481526001820154946020820195865261065760028401611798565b906040830191825260038401546060840190815261067760048601611798565b608085015261068860058601611798565b60a0850152600685015460c085015260078501549160e08501928352600960018060a01b0360088801541696610100870197885201549560ff61014061012088019760018060a01b038a168952019760a01c1615158752825142106109cf57516001600160a01b031633036109be576000970160a48101359036819003602219018212156109b657906004910101803590601e19813603018212156109b65701978835986001600160401b038a116109b65760208101998036038b136109ba5760209082018181019b909291828403126109b25735906001600160401b0382116109b2570190608090829003126109b657604051996107868b611740565b60208201358b5260408201356001600160401b0381116109b2578160206107af928501016118d7565b9160208c0192835260608101356001600160401b0381116109ae578260206107d9928401016118d7565b60408d01526080810135906001600160401b0382116109ae576108009291016020016118d7565b99606081019a8b525182510361099f5751602081519101209560409660076020895161082c8b82611777565b82815201664f6e2054696d6560c81b815220146109905751610981578688526006602052858820600901805460ff60a01b1916600160a01b17905584516001600160a01b031673eeeeeeeeeeeeeeeeeeeeeeeeeeeeeeeeeeeeeeee81036109545750878080808651335af161089f61191e565b501561094557916108f1600080516020611ed983398151915298999261090a945b5195519051935192519660018060a01b03905116958851998a5260208a0152610140888a015261014089019061183c565b91606088015242608088015286820360a088015261183c565b91671499599d5b99195960c21b6020868503948560c089015260088152015260e0850152610100840152336101208401520190a16001805580f35b634ac1463d60e01b8852600488fd5b600080516020611ed9833981519152989992849261097c6108f19361090a9751903390611b84565b6108c0565b63015cd58b60e51b8852600488fd5b635cd6bbc760e01b8952600489fd5b63cd50903360e01b8952600489fd5b8b80fd5b8a80fd5b8880fd5b8980fd5b630b04b98b60e11b60005260046000fd5b634574b67d60e11b60005260046000fd5b631ee57f6d60e21b60005260046000fd5b90506020813d602011610a23575b81610a0c60209383611777565b8101031261019357610a1d90611bc4565b8461061a565b3d91506109ff565b6040513d6000823e3d90fd5b34610193576040366003190112610193576020610a5e610a556118a6565b60243590611972565b604051908152f35b34610193576000366003190112610193576000546040516001600160a01b039091168152602090f35b6040366003190112610193576024356001600160a01b0381169081810361019357610ab8611b2e565b6004356000526007602052604060002090600360405192610ad884611740565b80548452610ae860018201611798565b60208501526002810154604085015201546060830152815115611201576060820151610b1391611972565b906126488202821590838104612648148217156111eb576127d88402918483046127d81417156111eb5773eeeeeeeeeeeeeeeeeeeeeeeeeeeeeeeeeeeeeeee85036111aa576127109004341090811561119c575b5061118b575b610b75611bd1565b9160043560005260076020526001604060002001600435600052600760205260026040600020015460608401519560405193610bb08561175b565b868552610bc560208601946004358652611798565b92604086019384526060860152602097604051610be28a82611777565b600081526080870152604051610bf88a82611777565b6000815260a087015260c086015260e0850152336101008501526101208401526000610140840152846000526006865260406000209183518355516001830155518051906001600160401b0382116103db578190610c596002850154611706565b601f811161113a575b508790601f83116001146110ce576000926110c3575b50508160011b916000199060031b1c19161760028201555b6060820151600382015560808201518051906001600160401b0382116103db578190610cbf6004850154611706565b601f811161106f575b508790601f831160011461100357600092610ff8575b50508160011b916000199060031b1c19161760048201555b6005810160a08301518051906001600160401b0382116103db57610d1a8354611706565b601f8111610fb2575b508790601f8311600114610f44579180600994926101409694600092610f39575b50508160011b916000199060031b1c19161790555b60c0840151600682015560e0840151600780830191909155610100808601516008840180546001600160a01b0319166001600160a01b0392831617905561012087015194909301805495909601516001600160a81b0319909516939092169290921792151560a01b60ff60a01b16929092179092556004356000818152838752604080822083835294885280822060020154606090960151815197885287890193909352860192909252600192909201805491939190610e1882611706565b9182610100880152600181169081600014610ef25750600114610e90575b7f1652cc28ba3792fbe6d62b3b6f1056b42a3e1e524dcea338b3ab5b2a62f9bed9866040878760008c8960608701528584039384608088015282815281850160a0880152015260c08401523360e08401520190a160018055005b600090815286812096929450905b808210610ed857509094508301610120019160007f1652cc28ba3792fbe6d62b3b6f1056b42a3e1e524dcea338b3ab5b2a62f9bed9610e36565b91600187829854610120858a010152019101909591610e9e565b60ff19166101208881019190915292151560051b87019092019450600091507f1652cc28ba3792fbe6d62b3b6f1056b42a3e1e524dcea338b3ab5b2a62f9bed99050610e36565b015190508a80610d44565b90601f1983169184600052896000209260005b8b828210610f9c57505092600192859261014098966009989610610f83575b505050811b019055610d59565b015160001960f88460031b161c191690558a8080610f76565b6001859682939686015181550195019301610f57565b8360005288600020601f840160051c8101918a8510610fee575b601f0160051c01905b818110610fe25750610d23565b60008155600101610fd5565b9091508190610fcc565b015190508780610cde565b6004850160009081528981209350601f198516905b8a828210611059575050908460019594939210611040575b505050811b016004820155610cf6565b015160001960f88460031b161c19169055878080611030565b6001859682939686015181550195019301611018565b9091506004840160005287600020601f840160051c8101918985106110b9575b90601f859493920160051c01905b8181106110aa5750610cc8565b6000815584935060010161109d565b909150819061108f565b015190508780610c78565b6002850160009081528981209350601f198516905b8a82821061112457505090846001959493921061110b575b505050811b016002820155610c90565b015160001960f88460031b161c191690558780806110fb565b60018596829396860151815501950193016110e3565b9091506002840160005287600020601f840160051c8101898510611184575b90849392915b601f830160051c82018110611175575050610c62565b6000815585945060010161115f565b5080611159565b6346bd07ef60e01b60005260046000fd5b612710915004341184610b67565b50506111e66040516323b872dd60e01b6020820152336024820152306044820152836064820152606481526111e0608482611777565b84611d47565b610b6d565b634e487b7160e01b600052601160045260246000fd5b633e5531ff60e11b60005260046000fd5b346101935760003660031901126101935761122b611ad6565b600080546001600160a01b0319811682556001600160a01b03167f8be0079c531659141344cd1fd0a4f28419497f9722a3daafe3b4186f6b6457e08280a3005b34610193576020366003190112610193576001600160a01b0361128c6118a6565b166000526005602052602060406000205460581b604051906affffffffffffffffffffff19168152f35b3461019357602036600319011261019357600435600052600660205260406000208054600182015491600281016112ec90611798565b6003820154916112fe60048201611798565b9261130b60058301611798565b600683015494600784015492600160a01b60019003600886015416946009015495604051998a998a5260208a015260408901610160905261016089016113509161183c565b90606089015287810360808901526113679161183c565b86810360a08801526113789161183c565b9360c086015260e0850152610100840152600160a01b60019003811661012084015260a01c60ff1615156101408301520390f35b3461019357600036600319011261019357602060405173eeeeeeeeeeeeeeeeeeeeeeeeeeeeeeeeeeeeeeee8152f35b34610193576020366003190112610193576004356113f7611ad6565b6113ff611b2e565b8060005260066020526040600020906040519061141b8261175b565b825482526001830154916020810192835261143860028501611798565b92604082019384526003850154906060830191825261145960048701611798565b956080840196875261146d60058201611798565b9160a08501928352600682015460c0860152610140600960078401549360e0880194855260018060a01b0360088201541661010089015201549560ff61012082019760018060a01b038116895260a01c161515918291015261160757835142106109cf576000868152600660205260409020600901805460ff60a01b1916600160a01b17905584516001600160a01b031673eeeeeeeeeeeeeeeeeeeeeeeeeeeeeeeeeeeeeeee81036115d9575060008080808551335af161152c61191e565b50156115c857600080516020611ed9833981519152976115ac9361158561159e935b51995196519251915194519760018060a01b03905116966040519a8b9a8b5260208b015261014060408b01526101408a019061183c565b91606089015242608089015287820360a089015261183c565b9085820360c087015261183c565b9160e0840152610100830152336101208301520390a160018055005b634ac1463d60e01b60005260046000fd5b976115ac9361158561159e93611602600080516020611ed98339815191529c8751903390611b84565b61154e565b63015cd58b60e51b60005260046000fd5b34610193576020366003190112610193576004356001600160401b03811161019357608090600319903603011261019357005b3461019357602036600319011261019357600435600052600760205260406000206040519061167982611740565b805482526116b861168c60018301611798565b92836020820152600360028401549384604084015201549081606082015251926040519485948561187d565b0390f35b34610193576020366003190112610193576004356000526007602052604060002080546116b86116ee60018401611798565b9260036002820154910154906040519485948561187d565b90600182811c92168015611736575b602083101461172057565b634e487b7160e01b600052602260045260246000fd5b91607f1691611715565b608081019081106001600160401b038211176103db57604052565b61016081019081106001600160401b038211176103db57604052565b90601f801991011681019081106001600160401b038211176103db57604052565b90604051918260008254926117ac84611706565b808452936001811690811561181a57506001146117d3575b506117d192500383611777565b565b90506000929192526020600020906000915b8183106117fe5750509060206117d192820101386117c4565b60209193508060019154838589010152019101909184926117e5565b9050602092506117d194915060ff191682840152151560051b820101386117c4565b919082519283825260005b848110611868575050826000602080949584010152601f8019910116010190565b80602080928401015182828601015201611847565b9060609261189c9196959496835260806020840152608083019061183c565b9460408201520152565b600435906001600160a01b038216820361019357565b6001600160401b0381116103db57601f01601f191660200190565b81601f82011215610193578035906118ee826118bc565b926118fc6040519485611777565b8284526020838301011161019357816000926020809301838601378301015290565b3d15611949573d9061192f826118bc565b9161193d6040519384611777565b82523d6000602084013e565b606090565b818102929181159184041417156111eb57565b60ff16604d81116111eb57600a0a90565b6001600160a01b03811660009081526005602052604090205460581b6affffffffffffffffffffff1916908115611ac5576003546040516349f4fc0360e11b81526004810193909352606090839060249082906001600160a01b03165afa908115610a2b576000928392611a63575b508215611a52578160000b9160008312600014611a375750607f1982146111eb57611a23611a29606495611a23611a1e611a329660000395611c62565b611961565b9061194e565b9160ff16611961565b040490565b611a329250611a29606495611a23611a1e611a239495611c62565b63029a052f60e11b60005260046000fd5b929091506060833d606011611abd575b81611a8060609383611777565b81010312611ab65782519060208401519384820b8503611ab957604001516001600160401b03811603611ab657509190386119e1565b80fd5b5080fd5b3d9150611a73565b633764b62160e21b60005260046000fd5b6000546001600160a01b03163303611aea57565b606460405162461bcd60e51b815260206004820152602060248201527f4f776e61626c653a2063616c6c6572206973206e6f7420746865206f776e65726044820152fd5b600260015414611b3f576002600155565b60405162461bcd60e51b815260206004820152601f60248201527f5265656e7472616e637947756172643a207265656e7472616e742063616c6c006044820152606490fd5b60405163a9059cbb60e01b60208201526001600160a01b0390921660248301526044808301939093529181526117d191611bbf606483611777565b611d47565b5190811515820361019357565b60025460405163dbdff2c160e01b815290606090829060049082906001600160a01b03165afa8015610a2b57600091600091611c22575b5015611c115790565b636135756560e01b60005260046000fd5b9150506060813d606011611c5a575b81611c3e60609383611777565b8101031261019357611c54602082519201611bc4565b38611c08565b3d9150611c31565b6001600160a01b03811673eeeeeeeeeeeeeeeeeeeeeeeeeeeeeeeeeeeeeeee14611cdb5760008091604051602081019063313ce56760e01b825260048152611cab602482611777565b51915afa611cb761191e565b9015611cdb57602081805181010312610193576020015160ff811681036101935790565b50601290565b35906001600160401b038216820361019357565b9035601e19823603018112156101935701602081359101916001600160401b03821161019357813603831361019357565b908060209392818452848401376000828201840152601f01601f1916010190565b604080519092611dac926001600160a01b0316906000908190611d6a8786611777565b602085527f5361666545524332303a206c6f772d6c6576656c2063616c6c206661696c6564602086015260208151910182855af1611da661191e565b91611e3b565b8051908115918215611e19575b505015611dc35750565b5162461bcd60e51b815260206004820152602a60248201527f5361666545524332303a204552433230206f7065726174696f6e20646964206e6044820152691bdd081cdd58d8d9595960b21b6064820152608490fd5b8192509060209181010312610193576020611e349101611bc4565b3880611db9565b91929015611e9d5750815115611e4f575090565b3b15611e585790565b60405162461bcd60e51b815260206004820152601d60248201527f416464726573733a2063616c6c20746f206e6f6e2d636f6e74726163740000006044820152606490fd5b825190915015611eb05750805190602001fd5b60405162461bcd60e51b815260206004820152908190611ed490602483019061183c565b0390fdfef77760ceddce4a3a170fa31963b77278881354d54a4f7ccb5ba9105f380020e7a2646970667358221220e11d273d8d30c882e5eeee099ed8b1b3f1a40e6873075a8fbbd4f0f62dd73a1164736f6c634300081c0033",
  "linkReferences": {},
  "deployedLinkReferences": {}
}