{
  "_format": "hh-sol-artifact-1",
  "contractName": "FlightTicket",
  "sourceName": "contracts/FlightTicket.sol",
  "abi": [
    {
      "inputs": [],
      "stateMutability": "nonpayable",
      "type": "constructor"
    },
    {
      "inputs": [
        {
          "internalType": "address",
          "name": "token",
          "type": "address"
        }
      ],
      "name": "FlightTicket__AlreadyPayingWithToken",
      "type": "error"
    },
    {
      "inputs": [],
      "name": "FlightTicket__CanOnlyRefundPayer",
      "type": "error"
    },
    {
      "inputs": [],
      "name": "FlightTicket__DateisLessThanCurrentTime",
      "type": "error"
    },
    {
      "inputs": [],
      "name": "FlightTicket__FlightAlreadyExists",
      "type": "error"
    },
    {
      "inputs": [],
      "name": "FlightTicket__FlightExpired",
      "type": "error"
    },
    {
      "inputs": [],
      "name": "FlightTicket__FlightNotFound",
      "type": "error"
    },
    {
      "inputs": [],
      "name": "FlightTicket__FlightWentSuccessfully",
      "type": "error"
    },
    {
      "inputs": [],
      "name": "FlightTicket__IncorrectETHAmount",
      "type": "error"
    },
    {
      "inputs": [],
      "name": "FlightTicket__InvalidEVMProof",
      "type": "error"
    },
    {
      "inputs": [],
      "name": "FlightTicket__InvalidJsonProof",
      "type": "error"
    },
    {
      "inputs": [],
      "name": "FlightTicket__NotCorrectAmount",
      "type": "error"
    },
    {
      "inputs": [
        {
          "internalType": "address",
          "name": "receiver",
          "type": "address"
        },
        {
          "internalType": "address",
          "name": "contractReceiver",
          "type": "address"
        }
      ],
      "name": "FlightTicket__NotCorrectReceiver",
      "type": "error"
    },
    {
      "inputs": [
        {
          "internalType": "address",
          "name": "sender",
          "type": "address"
        }
      ],
      "name": "FlightTicket__NotSender",
      "type": "error"
    },
    {
      "inputs": [],
      "name": "FlightTicket__PriceNotAvailable",
      "type": "error"
    },
    {
      "inputs": [],
      "name": "FlightTicket__RandomNumberNotSecure",
      "type": "error"
    },
    {
      "inputs": [],
      "name": "FlightTicket__SendingFailed",
      "type": "error"
    },
    {
      "inputs": [],
      "name": "FlightTicket__TicketAlreadyRefunded",
      "type": "error"
    },
    {
      "inputs": [],
      "name": "FlightTicket__TicketNotExpired",
      "type": "error"
    },
    {
      "inputs": [],
      "name": "FlightTicket__TicketNotSameAsData",
      "type": "error"
    },
    {
      "inputs": [
        {
          "internalType": "address",
          "name": "token",
          "type": "address"
        }
      ],
      "name": "FlightTicket__TokenAlreadySupported",
      "type": "error"
    },
    {
      "inputs": [
        {
          "internalType": "address",
          "name": "token",
          "type": "address"
        }
      ],
      "name": "FlightTicket__TokenNotSupported",
      "type": "error"
    },
    {
      "inputs": [],
      "name": "FlightTicket__TransactionAlreadyProcessed",
      "type": "error"
    },
    {
      "inputs": [],
      "name": "FlightTicket__UrlNotSupported",
      "type": "error"
    },
    {
      "anonymous": false,
      "inputs": [
        {
          "indexed": false,
          "internalType": "uint256",
          "name": "id",
          "type": "uint256"
        },
        {
          "indexed": false,
          "internalType": "string",
          "name": "route",
          "type": "string"
        },
        {
          "indexed": false,
          "internalType": "uint256",
          "name": "date",
          "type": "uint256"
        },
        {
          "indexed": false,
          "internalType": "uint256",
          "name": "amountPaid",
          "type": "uint256"
        }
      ],
      "name": "FlightCreated",
      "type": "event"
    },
    {
      "anonymous": false,
      "inputs": [
        {
          "indexed": false,
          "internalType": "uint256",
          "name": "ticketId",
          "type": "uint256"
        },
        {
          "indexed": false,
          "internalType": "uint256",
          "name": "flightId",
          "type": "uint256"
        },
        {
          "indexed": false,
          "internalType": "string",
          "name": "route",
          "type": "string"
        },
        {
          "indexed": false,
          "internalType": "uint256",
          "name": "date",
          "type": "uint256"
        },
        {
          "indexed": false,
          "internalType": "string",
          "name": "weatherCondition",
          "type": "string"
        },
        {
          "indexed": false,
          "internalType": "string",
          "name": "refundStatus",
          "type": "string"
        },
        {
          "indexed": false,
          "internalType": "uint256",
          "name": "amountPaid",
          "type": "uint256"
        },
        {
          "indexed": false,
          "internalType": "address",
          "name": "payer",
          "type": "address"
        }
      ],
      "name": "FlightTicketPurchased",
      "type": "event"
    },
    {
      "anonymous": false,
      "inputs": [
        {
          "indexed": false,
          "internalType": "uint256",
          "name": "ticketId",
          "type": "uint256"
        },
        {
          "indexed": false,
          "internalType": "uint256",
          "name": "flightId",
          "type": "uint256"
        },
        {
          "indexed": false,
          "internalType": "string",
          "name": "route",
          "type": "string"
        },
        {
          "indexed": false,
          "internalType": "uint256",
          "name": "date",
          "type": "uint256"
        },
        {
          "indexed": false,
          "internalType": "uint256",
          "name": "timestamp",
          "type": "uint256"
        },
        {
          "indexed": false,
          "internalType": "string",
          "name": "weatherCondition",
          "type": "string"
        },
        {
          "indexed": false,
          "internalType": "string",
          "name": "refundStatus",
          "type": "string"
        },
        {
          "indexed": false,
          "internalType": "uint256",
          "name": "amountPaid",
          "type": "uint256"
        },
        {
          "indexed": false,
          "internalType": "address",
          "name": "token",
          "type": "address"
        },
        {
          "indexed": false,
          "internalType": "address",
          "name": "recipient",
          "type": "address"
        }
      ],
      "name": "FlightTicketWithdrawn",
      "type": "event"
    },
    {
      "anonymous": false,
      "inputs": [
        {
          "indexed": true,
          "internalType": "address",
          "name": "previousOwner",
          "type": "address"
        },
        {
          "indexed": true,
          "internalType": "address",
          "name": "newOwner",
          "type": "address"
        }
      ],
      "name": "OwnershipTransferred",
      "type": "event"
    },
    {
      "anonymous": false,
      "inputs": [
        {
          "indexed": false,
          "internalType": "address",
          "name": "token",
          "type": "address"
        },
        {
          "indexed": false,
          "internalType": "bytes21",
          "name": "feedId",
          "type": "bytes21"
        }
      ],
      "name": "TokenAdded",
      "type": "event"
    },
    {
      "anonymous": false,
      "inputs": [
        {
          "indexed": false,
          "internalType": "address",
          "name": "token",
          "type": "address"
        }
      ],
      "name": "TokenRemoved",
      "type": "event"
    },
    {
      "inputs": [],
      "name": "FIAT_priceDecimals",
      "outputs": [
        {
          "internalType": "uint256",
          "name": "",
          "type": "uint256"
        }
      ],
      "stateMutability": "view",
      "type": "function"
    },
    {
      "inputs": [],
      "name": "FLRUSD",
      "outputs": [
        {
          "internalType": "bytes21",
          "name": "",
          "type": "bytes21"
        }
      ],
      "stateMutability": "view",
      "type": "function"
    },
    {
      "inputs": [],
      "name": "NATIVE_TOKEN",
      "outputs": [
        {
          "internalType": "address",
          "name": "",
          "type": "address"
        }
      ],
      "stateMutability": "view",
      "type": "function"
    },
    {
      "inputs": [],
      "name": "SLIPPAGE_TOLERANCE_BPS",
      "outputs": [
        {
          "internalType": "uint256",
          "name": "",
          "type": "uint256"
        }
      ],
      "stateMutability": "view",
      "type": "function"
    },
    {
      "inputs": [],
      "name": "USDCUSD",
      "outputs": [
        {
          "internalType": "bytes21",
          "name": "",
          "type": "bytes21"
        }
      ],
      "stateMutability": "view",
      "type": "function"
    },
    {
      "inputs": [],
      "name": "USDC_FLARE_CONTRACT",
      "outputs": [
        {
          "internalType": "address",
          "name": "",
          "type": "address"
        }
      ],
      "stateMutability": "view",
      "type": "function"
    },
    {
      "inputs": [],
      "name": "USDC_SEPOLIA_CONTRACT",
      "outputs": [
        {
          "internalType": "address",
          "name": "",
          "type": "address"
        }
      ],
      "stateMutability": "view",
      "type": "function"
    },
    {
      "inputs": [
        {
          "internalType": "address",
          "name": "token",
          "type": "address"
        },
        {
          "internalType": "bytes21",
          "name": "feedId",
          "type": "bytes21"
        }
      ],
      "name": "addToken",
      "outputs": [],
      "stateMutability": "nonpayable",
      "type": "function"
    },
    {
      "inputs": [
        {
          "internalType": "string",
          "name": "_route",
          "type": "string"
        },
        {
          "internalType": "uint256",
          "name": "_date",
          "type": "uint256"
        },
        {
          "internalType": "uint256",
          "name": "_amountInUsd",
          "type": "uint256"
        }
      ],
      "name": "createFlight",
      "outputs": [],
      "stateMutability": "nonpayable",
      "type": "function"
    },
    {
      "inputs": [
        {
          "internalType": "uint256",
          "name": "",
          "type": "uint256"
        }
      ],
      "name": "flights",
      "outputs": [
        {
          "internalType": "uint256",
          "name": "id",
          "type": "uint256"
        },
        {
          "internalType": "string",
          "name": "route",
          "type": "string"
        },
        {
          "internalType": "uint256",
          "name": "date",
          "type": "uint256"
        },
        {
          "internalType": "uint256",
          "name": "amountInUsd",
          "type": "uint256"
        }
      ],
      "stateMutability": "view",
      "type": "function"
    },
    {
      "inputs": [
        {
          "internalType": "uint256",
          "name": "_flightId",
          "type": "uint256"
        }
      ],
      "name": "getFlightDetails",
      "outputs": [
        {
          "internalType": "uint256",
          "name": "flightId",
          "type": "uint256"
        },
        {
          "internalType": "string",
          "name": "route",
          "type": "string"
        },
        {
          "internalType": "uint256",
          "name": "date",
          "type": "uint256"
        },
        {
          "internalType": "uint256",
          "name": "amountPaid",
          "type": "uint256"
        }
      ],
      "stateMutability": "view",
      "type": "function"
    },
    {
      "inputs": [
        {
          "internalType": "uint256",
          "name": "flightId",
          "type": "uint256"
        }
      ],
      "name": "getUrlFromFlightId",
      "outputs": [
        {
          "internalType": "string",
          "name": "expectedUrl",
          "type": "string"
        }
      ],
      "stateMutability": "view",
      "type": "function"
    },
    {
      "inputs": [
        {
          "internalType": "address",
          "name": "token",
          "type": "address"
        },
        {
          "internalType": "uint256",
          "name": "amountInUsd",
          "type": "uint256"
        }
      ],
      "name": "getUsdToTokenPrice",
      "outputs": [
        {
          "internalType": "uint256",
          "name": "",
          "type": "uint256"
        }
      ],
      "stateMutability": "view",
      "type": "function"
    },
    {
      "inputs": [],
      "name": "hostName",
      "outputs": [
        {
          "internalType": "string",
          "name": "",
          "type": "string"
        }
      ],
      "stateMutability": "view",
      "type": "function"
    },
    {
      "inputs": [
        {
          "components": [
            {
              "internalType": "bytes32[]",
              "name": "merkleProof",
              "type": "bytes32[]"
            },
            {
              "components": [
                {
                  "internalType": "bytes32",
                  "name": "attestationType",
                  "type": "bytes32"
                },
                {
                  "internalType": "bytes32",
                  "name": "sourceId",
                  "type": "bytes32"
                },
                {
                  "internalType": "uint64",
                  "name": "votingRound",
                  "type": "uint64"
                },
                {
                  "internalType": "uint64",
                  "name": "lowestUsedTimestamp",
                  "type": "uint64"
                },
                {
                  "components": [
                    {
                      "internalType": "bytes32",
                      "name": "transactionHash",
                      "type": "bytes32"
                    },
                    {
                      "internalType": "uint16",
                      "name": "requiredConfirmations",
                      "type": "uint16"
                    },
                    {
                      "internalType": "bool",
                      "name": "provideInput",
                      "type": "bool"
                    },
                    {
                      "internalType": "bool",
                      "name": "listEvents",
                      "type": "bool"
                    },
                    {
                      "internalType": "uint32[]",
                      "name": "logIndices",
                      "type": "uint32[]"
                    }
                  ],
                  "internalType": "struct IEVMTransaction.RequestBody",
                  "name": "requestBody",
                  "type": "tuple"
                },
                {
                  "components": [
                    {
                      "internalType": "uint64",
                      "name": "blockNumber",
                      "type": "uint64"
                    },
                    {
                      "internalType": "uint64",
                      "name": "timestamp",
                      "type": "uint64"
                    },
                    {
                      "internalType": "address",
                      "name": "sourceAddress",
                      "type": "address"
                    },
                    {
                      "internalType": "bool",
                      "name": "isDeployment",
                      "type": "bool"
                    },
                    {
                      "internalType": "address",
                      "name": "receivingAddress",
                      "type": "address"
                    },
                    {
                      "internalType": "uint256",
                      "name": "value",
                      "type": "uint256"
                    },
                    {
                      "internalType": "bytes",
                      "name": "input",
                      "type": "bytes"
                    },
                    {
                      "internalType": "uint8",
                      "name": "status",
                      "type": "uint8"
                    },
                    {
                      "components": [
                        {
                          "internalType": "uint32",
                          "name": "logIndex",
                          "type": "uint32"
                        },
                        {
                          "internalType": "address",
                          "name": "emitterAddress",
                          "type": "address"
                        },
                        {
                          "internalType": "bytes32[]",
                          "name": "topics",
                          "type": "bytes32[]"
                        },
                        {
                          "internalType": "bytes",
                          "name": "data",
                          "type": "bytes"
                        },
                        {
                          "internalType": "bool",
                          "name": "removed",
                          "type": "bool"
                        }
                      ],
                      "internalType": "struct IEVMTransaction.Event[]",
                      "name": "events",
                      "type": "tuple[]"
                    }
                  ],
                  "internalType": "struct IEVMTransaction.ResponseBody",
                  "name": "responseBody",
                  "type": "tuple"
                }
              ],
              "internalType": "struct IEVMTransaction.Response",
              "name": "data",
              "type": "tuple"
            }
          ],
          "internalType": "struct IEVMTransaction.Proof",
          "name": "transaction",
          "type": "tuple"
        }
      ],
      "name": "isEVMTransactionProofValid",
      "outputs": [
        {
          "internalType": "bool",
          "name": "",
          "type": "bool"
        }
      ],
      "stateMutability": "view",
      "type": "function"
    },
    {
      "inputs": [],
      "name": "owner",
      "outputs": [
        {
          "internalType": "address",
          "name": "",
          "type": "address"
        }
      ],
      "stateMutability": "view",
      "type": "function"
    },
    {
      "inputs": [
        {
          "internalType": "uint256",
          "name": "flightId",
          "type": "uint256"
        },
        {
          "internalType": "address",
          "name": "token",
          "type": "address"
        }
      ],
      "name": "payForFlight",
      "outputs": [],
      "stateMutability": "payable",
      "type": "function"
    },
    {
      "inputs": [
        {
          "internalType": "uint256",
          "name": "flightId",
          "type": "uint256"
        },
        {
          "components": [
            {
              "internalType": "bytes32[]",
              "name": "merkleProof",
              "type": "bytes32[]"
            },
            {
              "components": [
                {
                  "internalType": "bytes32",
                  "name": "attestationType",
                  "type": "bytes32"
                },
                {
                  "internalType": "bytes32",
                  "name": "sourceId",
                  "type": "bytes32"
                },
                {
                  "internalType": "uint64",
                  "name": "votingRound",
                  "type": "uint64"
                },
                {
                  "internalType": "uint64",
                  "name": "lowestUsedTimestamp",
                  "type": "uint64"
                },
                {
                  "components": [
                    {
                      "internalType": "bytes32",
                      "name": "transactionHash",
                      "type": "bytes32"
                    },
                    {
                      "internalType": "uint16",
                      "name": "requiredConfirmations",
                      "type": "uint16"
                    },
                    {
                      "internalType": "bool",
                      "name": "provideInput",
                      "type": "bool"
                    },
                    {
                      "internalType": "bool",
                      "name": "listEvents",
                      "type": "bool"
                    },
                    {
                      "internalType": "uint32[]",
                      "name": "logIndices",
                      "type": "uint32[]"
                    }
                  ],
                  "internalType": "struct IEVMTransaction.RequestBody",
                  "name": "requestBody",
                  "type": "tuple"
                },
                {
                  "components": [
                    {
                      "internalType": "uint64",
                      "name": "blockNumber",
                      "type": "uint64"
                    },
                    {
                      "internalType": "uint64",
                      "name": "timestamp",
                      "type": "uint64"
                    },
                    {
                      "internalType": "address",
                      "name": "sourceAddress",
                      "type": "address"
                    },
                    {
                      "internalType": "bool",
                      "name": "isDeployment",
                      "type": "bool"
                    },
                    {
                      "internalType": "address",
                      "name": "receivingAddress",
                      "type": "address"
                    },
                    {
                      "internalType": "uint256",
                      "name": "value",
                      "type": "uint256"
                    },
                    {
                      "internalType": "bytes",
                      "name": "input",
                      "type": "bytes"
                    },
                    {
                      "internalType": "uint8",
                      "name": "status",
                      "type": "uint8"
                    },
                    {
                      "components": [
                        {
                          "internalType": "uint32",
                          "name": "logIndex",
                          "type": "uint32"
                        },
                        {
                          "internalType": "address",
                          "name": "emitterAddress",
                          "type": "address"
                        },
                        {
                          "internalType": "bytes32[]",
                          "name": "topics",
                          "type": "bytes32[]"
                        },
                        {
                          "internalType": "bytes",
                          "name": "data",
                          "type": "bytes"
                        },
                        {
                          "internalType": "bool",
                          "name": "removed",
                          "type": "bool"
                        }
                      ],
                      "internalType": "struct IEVMTransaction.Event[]",
                      "name": "events",
                      "type": "tuple[]"
                    }
                  ],
                  "internalType": "struct IEVMTransaction.ResponseBody",
                  "name": "responseBody",
                  "type": "tuple"
                }
              ],
              "internalType": "struct IEVMTransaction.Response",
              "name": "data",
              "type": "tuple"
            }
          ],
          "internalType": "struct IEVMTransaction.Proof",
          "name": "_transaction",
          "type": "tuple"
        }
      ],
      "name": "payUSDCSepoliaForFlight",
      "outputs": [],
      "stateMutability": "nonpayable",
      "type": "function"
    },
    {
      "inputs": [
        {
          "internalType": "uint256",
          "name": "ticketId",
          "type": "uint256"
        },
        {
          "components": [
            {
              "internalType": "bytes32[]",
              "name": "merkleProof",
              "type": "bytes32[]"
            },
            {
              "components": [
                {
                  "internalType": "bytes32",
                  "name": "attestationType",
                  "type": "bytes32"
                },
                {
                  "internalType": "bytes32",
                  "name": "sourceId",
                  "type": "bytes32"
                },
                {
                  "internalType": "uint64",
                  "name": "votingRound",
                  "type": "uint64"
                },
                {
                  "internalType": "uint64",
                  "name": "lowestUsedTimestamp",
                  "type": "uint64"
                },
                {
                  "components": [
                    {
                      "internalType": "string",
                      "name": "url",
                      "type": "string"
                    },
                    {
                      "internalType": "string",
                      "name": "postprocessJq",
                      "type": "string"
                    },
                    {
                      "internalType": "string",
                      "name": "abi_signature",
                      "type": "string"
                    }
                  ],
                  "internalType": "struct IJsonApi.RequestBody",
                  "name": "requestBody",
                  "type": "tuple"
                },
                {
                  "components": [
                    {
                      "internalType": "bytes",
                      "name": "abi_encoded_data",
                      "type": "bytes"
                    }
                  ],
                  "internalType": "struct IJsonApi.ResponseBody",
                  "name": "responseBody",
                  "type": "tuple"
                }
              ],
              "internalType": "struct IJsonApi.Response",
              "name": "data",
              "type": "tuple"
            }
          ],
          "internalType": "struct IJsonApi.Proof",
          "name": "_proof",
          "type": "tuple"
        }
      ],
      "name": "refundTicket",
      "outputs": [],
      "stateMutability": "nonpayable",
      "type": "function"
    },
    {
      "inputs": [
        {
          "internalType": "address",
          "name": "token",
          "type": "address"
        }
      ],
      "name": "removeToken",
      "outputs": [],
      "stateMutability": "nonpayable",
      "type": "function"
    },
    {
      "inputs": [],
      "name": "renounceOwnership",
      "outputs": [],
      "stateMutability": "nonpayable",
      "type": "function"
    },
    {
      "inputs": [
        {
          "internalType": "string",
          "name": "_hostname",
          "type": "string"
        }
      ],
      "name": "setHostName",
      "outputs": [],
      "stateMutability": "nonpayable",
      "type": "function"
    },
    {
      "inputs": [
        {
          "internalType": "address",
          "name": "_usdcFlareContract",
          "type": "address"
        }
      ],
      "name": "setUSDCFlareContract",
      "outputs": [],
      "stateMutability": "nonpayable",
      "type": "function"
    },
    {
      "inputs": [
        {
          "internalType": "address",
          "name": "_usdcSepoliaContract",
          "type": "address"
        }
      ],
      "name": "setUSDCSepoliaContract",
      "outputs": [],
      "stateMutability": "nonpayable",
      "type": "function"
    },
    {
      "inputs": [
        {
          "internalType": "uint256",
          "name": "",
          "type": "uint256"
        }
      ],
      "name": "tickets",
      "outputs": [
        {
          "internalType": "uint256",
          "name": "ticketId",
          "type": "uint256"
        },
        {
          "internalType": "uint256",
          "name": "flightId",
          "type": "uint256"
        },
        {
          "internalType": "string",
          "name": "route",
          "type": "string"
        },
        {
          "internalType": "uint256",
          "name": "date",
          "type": "uint256"
        },
        {
          "internalType": "string",
          "name": "weatherCondition",
          "type": "string"
        },
        {
          "internalType": "string",
          "name": "refundStatus",
          "type": "string"
        },
        {
          "internalType": "uint256",
          "name": "amountInUsd",
          "type": "uint256"
        },
        {
          "internalType": "uint256",
          "name": "amountSent",
          "type": "uint256"
        },
        {
          "internalType": "address",
          "name": "payer",
          "type": "address"
        },
        {
          "internalType": "address",
          "name": "token",
          "type": "address"
        },
        {
          "internalType": "bool",
          "name": "isWithdrawn",
          "type": "bool"
        }
      ],
      "stateMutability": "view",
      "type": "function"
    },
    {
      "inputs": [
        {
          "internalType": "address",
          "name": "",
          "type": "address"
        }
      ],
      "name": "tokenToFeedId",
      "outputs": [
        {
          "internalType": "bytes21",
          "name": "",
          "type": "bytes21"
        }
      ],
      "stateMutability": "view",
      "type": "function"
    },
    {
      "inputs": [
        {
          "internalType": "address",
          "name": "newOwner",
          "type": "address"
        }
      ],
      "name": "transferOwnership",
      "outputs": [],
      "stateMutability": "nonpayable",
      "type": "function"
    },
    {
      "inputs": [
        {
          "internalType": "uint256",
          "name": "_ticketId",
          "type": "uint256"
        }
      ],
      "name": "withdraw",
      "outputs": [],
      "stateMutability": "nonpayable",
      "type": "function"
    }
  ],
  "bytecode": "0x608080604052346102395760008054336001600160a01b0319821681178355916001600160a01b03909116907f8be0079c531659141344cd1fd0a4f28419497f9722a3daafe3b4186f6b6457e09080a360018055602081019060208252600e60408201526d2930b73237b6a73ab6b132b92b1960911b60608201526060815261008960808261023e565b51902060405190630ac9aa5160e11b8252600482015260208160248173ad67fe66660fb8dfe9d6b1b4240d8650e30f60195afa90811561020e5760009161021a575b5060018060a01b031660018060a01b031960025416176002556040516020810190602082526006604082015265233a39b7ab1960d11b60608201526060815261011560808261023e565b51902060405190630ac9aa5160e11b8252600482015260208160248173ad67fe66660fb8dfe9d6b1b4240d8650e30f60195afa90811561020e576000916101df575b50600380546001600160a01b0319166001600160a01b039290921691909117905573eeeeeeeeeeeeeeeeeeeeeeeeeeeeeeeeeeeeeeee60005260076020527fb2084a3e4595ccf007fb44245853374aaf0de960074375e8e0fb334712e94d0e80546001600160a81b031916665193148bd554d1606a1b1790556040516135e790816102978239f35b610201915060203d602011610207575b6101f9818361023e565b810190610277565b38610157565b503d6101ef565b6040513d6000823e3d90fd5b610233915060203d602011610207576101f9818361023e565b386100cb565b600080fd5b601f909101601f19168101906001600160401b0382119082101761026157604052565b634e487b7160e01b600052604160045260246000fd5b9081602091031261023957516001600160a01b0381168103610239579056fe608080604052600436101561001357600080fd5b60003560e01c90816301b6c07114612474575080630538207e1461243157806309f5dc91146123e957806315ccf70f1461239f57806318535008146123325780631c415821146122c75780632e1a7d4d146120ac57806331f7d9641461207d5780633b21d2ca1461205457806344891dba14611f9957806350b4471214611ea35780635fa7b58414611dfa5780636268481214611dc357806365a5444514611d7c578063715018a614611d2357806374b36e0614611cfa5780637597805f1461164d578063893493711461157f5780638da5cb5b146115565780639fb6ef2e14611527578063ada91af014610f5d578063b9667ff114610623578063df1f3ef7146105fc578063e47ffee5146103e0578063e9e7a710146103c4578063f11cddf6146103a8578063f2fde38b146102e15763fd53d7511461015357600080fd5b346102dc5760203660031901126102dc576004356001600160401b0381116102dc576101839036906004016126f2565b61018b6131c2565b80516001600160401b0381116102c6576101a66006546124c1565b601f8111610259575b50602091601f82116001146101ed579181926000926101e2575b5050600019600383901b1c191660019190911b17600655005b0151905038806101c9565b601f1982169260066000526000805160206135928339815191529160005b85811061024157508360019510610228575b505050811b01600655005b015160001960f88460031b161c1916905538808061021d565b9192602060018192868501518155019401920161020b565b6006600052601f820160051c6000805160206135928339815191520190602083106102b0575b601f0160051c60008051602061359283398151915201905b8181106102a457506101af565b60008155600101610297565b600080516020613592833981519152915061027f565b634e487b7160e01b600052604160045260246000fd5b600080fd5b346102dc5760203660031901126102dc576102fa612497565b6103026131c2565b6001600160a01b0316801561035457600080546001600160a01b03198116831782556001600160a01b0316907f8be0079c531659141344cd1fd0a4f28419497f9722a3daafe3b4186f6b6457e09080a3005b60405162461bcd60e51b815260206004820152602660248201527f4f776e61626c653a206e6577206f776e657220697320746865207a65726f206160448201526564647265737360d01b6064820152608490fd5b346102dc5760003660031901126102dc57602060405160c88152f35b346102dc5760003660031901126102dc57602060405160648152f35b346102dc5760603660031901126102dc576004356001600160401b0381116102dc576104109036906004016126f2565b6024359060443561041f6131c2565b6104276132b0565b904284106105eb576040519361043c856124fb565b82855260208501948486526040810182815260608201908482528560005260096020526040600020925183556001830197519788516001600160401b0381116102c65761048982546124c1565b601f81116105a3575b506020601f82116001146105125791816003949261050299989796947f6e86888f6dd2568a918c94a4d4fcb46ef42bde66f00f4cea5372e2a3296f598c9d600092610507575b50508160011b9160001990871b1c19161790555b516002840155519101556040519485948561263f565b0390a1005b015190508d806104d8565b601f1982169a83600052816000209b60005b81811061058b5750927f6e86888f6dd2568a918c94a4d4fcb46ef42bde66f00f4cea5372e2a3296f598c9c6105029a9998979593600193836003999710610573575b505050811b0190556104ec565b015160001983891b60f8161c191690558d8080610566565b838301518e556001909d019c60209384019301610524565b826000526020600020601f830160051c810191602084106105e1575b601f0160051c01905b8181106105d55750610492565b600081556001016105c8565b90915081906105bf565b630c989dd360e21b60005260046000fd5b346102dc5760003660031901126102dc57604051675554d110cbd554d160ba1b8152602090f35b346102dc5761063136612668565b9061063a61321a565b602082019061065661064c838561311b565b6080810190613162565b35600052600a60205260ff60406000205416610f4c5761067583612821565b15610f3b5761068761064c838561311b565b35600052600a6020526040600020600160ff1982541617905560006020925b6106cb6106c06106b6838861311b565b60a0810190613177565b61010081019061318d565b9050821015610f31576106e46106c06106b6838861311b565b831015610f1b576106fb908360051b810190613162565b9060a0823603126102dc576040519560a087018781106001600160401b038211176102c65760405261072c836127be565b87526107398684016124ad565b86880190815260408401356001600160401b0381116102dc5784019736601f8a0112156102dc578835986001600160401b038a116102c6578960051b6040519a6107858b83018d612532565b8b5289808c0191830101913683116102dc578a809101915b838310610f0c57505050506040810198895260608501356001600160401b0381116102dc57850136601f820112156102dc576107f360806107e5819336908d813591016126bb565b9760608501988952016127b1565b910152516004546001600160a01b03908116959116859003610efe578751805115908115610ea1575b50610e8f5750505084516000815160011015610e7b575060400160018060a01b0390511694516000815160021015610e7b575060600160018060a01b03905116905184818051810103126102dc5784015190836000526009855260406000209560405196610889886124fb565b8054885261089960018201612553565b87890152600360028201549160408a0192835201546060890152875115610e6a5742905110610e59573303610e4457308103610e2c575060608501516127108102908082046127101490151715610e16578110610e05576108f86132b0565b9183600052600985526001604060002001908460005260098652600260406000200154906060880151936040519461092f86612516565b86865261094189870195898752612553565b9360408701948552606087015260405161095b8a82612532565b6000815260808701526040516109718a82612532565b6000815260a087015260c086015260e0850152336101008501526101208401526000610140840152836000526008865260406000209183518355516001830155518051906001600160401b0382116102c65781906109d260028501546124c1565b601f8111610db4575b508790601f8311600114610d4357600092610d38575b50508160011b916000199060031b1c19161760028201555b6060820151600382015560808201518051906001600160401b0382116102c6578190610a3860048501546124c1565b601f8111610ce4575b508790601f8311600114610c7357600092610c68575b50508160011b916000199060031b1c19161760048201555b6005810160a08301518051906001600160401b0382116102c657610a9383546124c1565b601f8111610c22575b508790601f8311600114610b9d576000805160206135728339815191529994610b539484610b8899989561014095600995600092610b92575b50508160011b916000199060031b1c19161790555b60c0840151600682015560e084015160078201556101008401516008820180546001600160a01b0319166001600160a01b0392831617905561012085015192909101805493909401516001600160a81b031990931691161790151560a01b60ff60a01b16179055565b836000526009855260096001604060002001958560005252606060026040600020015491015190604051958695339487612edb565b0390a15b60018055005b015190508e80610ad5565b90601f1983169184600052896000209260005b818110610c0b575094600185610140956009956000805160206135728339815191529f9a95610b889d9c99610b539b10610bf2575b505050811b019055610aea565b015160001960f88460031b161c191690558e8080610be5565b92938b600181928786015181550195019301610bb0565b8360005288600020601f840160051c8101918a8510610c5e575b601f0160051c01905b818110610c525750610a9c565b60008155600101610c45565b9091508190610c3c565b015190508880610a57565b92506004840160005287600020906000935b89601f1985168610610ccb57506001945083601f19811610610cb2575b505050811b016004820155610a6f565b015160001960f88460031b161c19169055888080610ca2565b8282015184559485019460019093019290910190610c85565b9091506004840160005287600020601f840160051c810191898510610d2e575b90601f859493920160051c01905b818110610d1f5750610a41565b60008155849350600101610d12565b9091508190610d04565b0151905088806109f1565b92506002840160005287600020906000935b89601f1985168610610d9b57506001945083601f19811610610d82575b505050811b016002820155610a09565b015160001960f88460031b161c19169055888080610d72565b8282015184559485019460019093019290910190610d55565b9091506002840160005287600020601f840160051c8101898510610dfe575b90849392915b601f830160051c82018110610def5750506109db565b60008155859450600101610dd9565b5080610dd3565b6325efd3bd60e01b60005260046000fd5b634e487b7160e01b600052601160045260246000fd5b637449d4dd60e11b6000526004523060245260446000fd5b638fac2ff760e01b6000523360045260246000fd5b6341c5115b60e01b60005260046000fd5b633e5531ff60e11b60005260046000fd5b634e487b7160e01b81526032600452602490fd5b9196509250600191505b0190936106a6565b90506000815115610e7b5750870151604051888101907f5472616e7366657228616464726573732c616464726573732c75696e743235368252602960f81b604082015260218152610ef3604182612532565b51902014158961081c565b919650925060019150610e99565b8235815291810191810161079d565b634e487b7160e01b600052603260045260246000fd5b5050505050610b8c565b6376f162a560e01b60005260046000fd5b633856d1a760e21b60005260046000fd5b346102dc57610f6b36612668565b90610f7461321a565b60405163d0f18f8560e01b815260206004820152610fa6610f95848061271d565b604060248501526064840191612751565b906020840191610fb68386612775565b60231983830301604484015280358252602081013560208301526001600160401b03610fe460408301612789565b1660408301526001600160401b03610ffe60608301612789565b166060830152368190036080820135605e1982018112156102dc5782611088910160c0608086015261107561106a61104b61103984806127cf565b606060c08b01526101208a0191612800565b61105860208501856127cf565b89830360bf190160e08b015290612800565b9160408101906127cf565b86830360bf190161010088015290612800565b9260a083013591601e19018212156102dc57602093846110b96110c69388968796019060a0818603910152806127cf565b9190928181520191612800565b03817307ad8508c9173dc845817472ca0484035abfa3c85afa90811561151b576000916114e1575b50156114d0578160005260086020526040600020906040519061111082612516565b825482526001830154946020830195865261112d60028501612553565b91604084019283526003850154916060850192835261114e60048701612553565b608086015261115f60058701612553565b60a0860152600686015460c086015260078601549060e08601918252600960018060a01b0360088901541697610100880198895201549660ff61014061012089019860018060a01b038b168a52019860a01c1615158852845142106114bf57516001600160a01b031633036114ae576111d8838261311b565b60a0810135601e19823603018112156102dc576111f6910180613130565b8101906020818303126102dc578035906001600160401b0382116102dc5701916080838303126102dc576040519161122d836124fb565b8335835260208401356001600160401b0381116102dc57816112509186016126f2565b936020840194855260408101356001600160401b0381116102dc57826112779183016126f2565b60408501526060810135916001600160401b0383116102dc576112bd9261129e92016126f2565b95606084019687526112b08d51612c7a565b602081519101209261311b565b608081013590605e19813603018212156102dc576112e7916112e0910180613130565b36916126bb565b602081519101201461149d575189510361148c575160208151910120956040966007602089516113178b82612532565b82815201664f6e2054696d6560c81b8152201461147b575161146a5760008781526008602052869020600901805460ff60a01b1916600160a01b17905584516001600160a01b031673eeeeeeeeeeeeeeeeeeeeeeeeeeeeeeeeeeeeeeee8103611440575060008080808451335af161138d612c4a565b501561142f576113dc6113f593600080516020613552833981519152995b5195519051935192519660018060a01b03905116958851998a5260208a0152610140888a015261014089019061261a565b91606088015242608088015286820360a088015261261a565b91671499599d5b99195960c21b6020868503948560c089015260088152015260e0850152610100840152336101208401520190a160018055005b634ac1463d60e01b60005260046000fd5b6113f593600080516020613552833981519152996114656113dc938551903390613270565b6113ab565b63015cd58b60e51b60005260046000fd5b635cd6bbc760e01b60005260046000fd5b63cd50903360e01b60005260046000fd5b6353f076eb60e11b60005260046000fd5b630b04b98b60e11b60005260046000fd5b634574b67d60e11b60005260046000fd5b631ee57f6d60e21b60005260046000fd5b90506020813d602011611513575b816114fc60209383612532565b810103126102dc5761150d90612710565b846110ee565b3d91506114ef565b6040513d6000823e3d90fd5b346102dc5760403660031901126102dc57602061154e611545612497565b60243590612fd1565b604051908152f35b346102dc5760003660031901126102dc576000546040516001600160a01b039091168152602090f35b346102dc5760403660031901126102dc57611598612497565b602435906001600160581b03198216908183036102dc576115b76131c2565b6001600160a01b031660008181526007602052604090205490929060581b6001600160581b03191661163857916040917f925ccaaa3fa7a2492388353d0e7e4300f182bca41fa73d3a646ef322c80f2dd193826000526007602052836000209060581c6001600160581b0360a81b82541617905582519182526020820152a1005b82634e2980a360e11b60005260045260246000fd5b60403660031901126102dc576024356001600160a01b038116908181036102dc5761167661321a565b600435600052600960205260406000209060405191611694836124fb565b805483526116a460018201612553565b602084015260036002820154916040850192835201546060840152825115610e6a57514211610e59578260005260076020526001600160581b031960406000205460581b1615611ce55760608201516116fc91612fd1565b91612648830283159084810461264814821715610e16576127d88502918583046127d8141715610e165773eeeeeeeeeeeeeeeeeeeeeeeeeeeeeeeeeeeeeeee8303611c8b5761271090043410908115611c7d575b50611c6c575b61175e6132b0565b600435600052600960205260016040600020019360043560005260096020526002604060002001546060850151936040519261179984612516565b8484526117ae60208501986004358a52612553565b926040850193845260608501526020956040516117cb8882612532565b6000815260808601526040516117e18882612532565b6000815260a086015260c085015260e0840152336101008401526101208301526000610140830152826000526008845260406000209582518755516001870155518051906001600160401b0382116102c657819061184260028901546124c1565b601f8111611c1b575b508590601f8311600114611baa57600092611b9f575b50508160011b916000199060031b1c19161760028601555b6060810151600386015560808101518051906001600160401b0382116102c65781906118a860048901546124c1565b601f8111611b4b575b508590601f8311600114611ada57600092611acf575b50508160011b916000199060031b1c19161760048601555b600585019460a08201519586516001600160401b0381116102c65761190482546124c1565b601f8111611a89575b5085601f8211600114611a07576119c093610b8896959383610140946009946000805160206135728339815191529d6000926119fc5750508160011b916000199060031b1c191617905560c0840151600682015560e084015160078201556101008401516008820180546001600160a01b0319166001600160a01b0392831617905561012085015192909101805493909401516001600160a81b031990931691161790151560a01b60ff60a01b16179055565b60043560005260098352600960016040600020019360043560005252606060026040600020015494015160405194859433936004359087612edb565b015190508d80610ad5565b601f1982169883600052876000209960005b818110611a725750936001846000805160206135728339815191529c6009956119c0999561014098610b889d9c9a10611a5957505050811b019055610aea565b015160001960f88460031b161c191690558d8080610be5565b838301518c556001909b019a928901928901611a19565b8260005286600020601f830160051c810191888410611ac5575b601f0160051c01905b818110611ab9575061190d565b60008155600101611aac565b9091508190611aa3565b0151905087806118c7565b92506004880160005285600020906000935b87601f1985168610611b3257506001945083601f19811610611b19575b505050811b0160048601556118df565b015160001960f88460031b161c19169055878080611b09565b8282015184559485019460019093019290910190611aec565b9091506004880160005285600020601f840160051c810191878510611b95575b90601f859493920160051c01905b818110611b8657506118b1565b60008155849350600101611b79565b9091508190611b6b565b015190508780611861565b92506002880160005285600020906000935b87601f1985168610611c0257506001945083601f19811610611be9575b505050811b016002860155611879565b015160001960f88460031b161c19169055878080611bd9565b8282015184559485019460019093019290910190611bbc565b9091506002880160005285600020601f840160051c8101878510611c65575b90849392915b601f830160051c82018110611c5657505061184b565b60008155859450600101611c40565b5080611c3a565b6346bd07ef60e01b60005260046000fd5b612710915004341184611750565b505034611cd157611ccc6040516323b872dd60e01b602082015233602482015230604482015284606482015260648152611cc6608482612532565b826133c0565b611756565b633320e89560e01b60005260045260246000fd5b826374d64a4560e01b60005260045260246000fd5b346102dc5760003660031901126102dc576004546040516001600160a01b039091168152602090f35b346102dc5760003660031901126102dc57611d3c6131c2565b600080546001600160a01b0319811682556001600160a01b03167f8be0079c531659141344cd1fd0a4f28419497f9722a3daafe3b4186f6b6457e08280a3005b346102dc5760203660031901126102dc576001600160a01b03611d9d612497565b166000526007602052602060406000205460581b604051906001600160581b0319168152f35b346102dc5760203660031901126102dc57611df6611de2600435612c7a565b60405191829160208352602083019061261a565b0390f35b346102dc5760203660031901126102dc57611e13612497565b611e1b6131c2565b6001600160a01b031660008181526007602052604090205460581b6001600160581b03191615611e8f576020817f4c910b69fe65a61f7531b9c5042b2329ca7179c77290aa7e2eb3afa3c8511fd3926000526007825260406000206001600160581b0360a81b8154169055604051908152a1005b6374d64a4560e01b60005260045260246000fd5b346102dc5760203660031901126102dc5760043560005260086020526040600020805460018201549160028101611ed990612553565b600382015491611eeb60048201612553565b92611ef860058301612553565b600683015494600784015492600160a01b60019003600886015416946009015495604051998a998a5260208a01526040890161016090526101608901611f3d9161261a565b9060608901528781036080890152611f549161261a565b86810360a0880152611f659161261a565b9360c086015260e0850152610100840152600160a01b60019003811661012084015260a01c60ff1615156101408301520390f35b346102dc5760003660031901126102dc576040516000600654611fbb816124c1565b80845290600181169081156120305750600114611fe3575b611df683611de281850382612532565b60066000908152600080516020613592833981519152939250905b80821061201657509091508101602001611de2611fd3565b919260018160209254838588010152019101909291611ffe565b60ff191660208086019190915291151560051b84019091019150611de29050611fd3565b346102dc5760003660031901126102dc576005546040516001600160a01b039091168152602090f35b346102dc5760003660031901126102dc57602060405173eeeeeeeeeeeeeeeeeeeeeeeeeeeeeeeeeeeeeeee8152f35b346102dc5760203660031901126102dc576004356120c86131c2565b6120d061321a565b806000526008602052604060002090604051906120ec82612516565b825482526001830154916020810192835261210960028501612553565b92604082019384526003850154906060830191825261212a60048701612553565b956080840196875261213e60058201612553565b9160a08501928352600682015460c0860152610140600960078401549360e0880194855260018060a01b0360088201541661010089015201549560ff61012082019760018060a01b038116895260a01c161515918291015261146a57835142106114bf576000868152600860205260409020600901805460ff60a01b1916600160a01b17905584516001600160a01b031673eeeeeeeeeeeeeeeeeeeeeeeeeeeeeeeeeeeeeeee8103612299575060008080808551335af16121fd612c4a565b501561142f576000805160206135528339815191529761227d9361225661226f935b51995196519251915194519760018060a01b03905116966040519a8b9a8b5260208b015261014060408b01526101408a019061261a565b91606089015242608089015287820360a089015261261a565b9085820360c087015261261a565b9160e0840152610100830152336101208301520390a160018055005b9761227d9361225661226f936122c26000805160206135528339815191529c8751903390613270565b61221f565b346102dc5760203660031901126102dc576122e0612497565b6122e86131c2565b600580546001600160a01b0319166001600160a01b03929092169182179055600090815260076020526040902080546001600160a81b031916675554d110cbd554d160621b179055005b346102dc5760203660031901126102dc576004356000526009602052604060002060405190612360826124fb565b80548252611df661237360018301612553565b92836020820152600360028401549384604084015201549081606082015251926040519485948561263f565b346102dc5760203660031901126102dc57600435600052600960205260406000208054611df66123d160018401612553565b9260036002820154910154906040519485948561263f565b346102dc5760203660031901126102dc576004356001600160401b0381116102dc57604060031982360301126102dc57612427602091600401612821565b6040519015158152f35b346102dc5760203660031901126102dc5761244a612497565b6124526131c2565b600480546001600160a01b0319166001600160a01b0392909216919091179055005b346102dc5760003660031901126102dc57665193148bd554d160c21b8152602090f35b600435906001600160a01b03821682036102dc57565b35906001600160a01b03821682036102dc57565b90600182811c921680156124f1575b60208310146124db57565b634e487b7160e01b600052602260045260246000fd5b91607f16916124d0565b608081019081106001600160401b038211176102c657604052565b61016081019081106001600160401b038211176102c657604052565b90601f801991011681019081106001600160401b038211176102c657604052565b9060405191826000825492612567846124c1565b80845293600181169081156125d5575060011461258e575b5061258c92500383612532565b565b90506000929192526020600020906000915b8183106125b957505090602061258c928201013861257f565b60209193508060019154838589010152019101909184926125a0565b90506020925061258c94915060ff191682840152151560051b8201013861257f565b60005b83811061260a5750506000910152565b81810151838201526020016125fa565b90602091612633815180928185528580860191016125f7565b601f01601f1916010190565b9060609261265e9196959496835260806020840152608083019061261a565b9460408201520152565b9060406003198301126102dc5760043591602435906001600160401b0382116102dc5760409082900360031901126102dc5760040190565b6001600160401b0381116102c657601f01601f191660200190565b9291926126c7826126a0565b916126d56040519384612532565b8294818452818301116102dc578281602093846000960137010152565b9080601f830112156102dc5781602061270d933591016126bb565b90565b519081151582036102dc57565b9035601e19823603018112156102dc5701602081359101916001600160401b0382116102dc578160051b360383136102dc57565b81835290916001600160fb1b0383116102dc5760209260051b809284830137010190565b903560be19823603018112156102dc570190565b35906001600160401b03821682036102dc57565b9035609e19823603018112156102dc570190565b359081151582036102dc57565b359063ffffffff821682036102dc57565b9035601e19823603018112156102dc5701602081359101916001600160401b0382116102dc5781360383136102dc57565b908060209392818452848401376000828201840152601f01601f1916010190565b604051602081019060208252600f60408201526e233231ab32b934b334b1b0ba34b7b760891b60608201526060815261285b608082612532565b51902060405190630ac9aa5160e11b8252600482015260208160248173ad67fe66660fb8dfe9d6b1b4240d8650e30f60195afa90811561151b57600091612c01575b506040516358fbe9e160e01b815260206004820152916128df6128d46128c3838061271d565b604060248801526064870191612751565b916020810190612775565b9060231984820301604485015281358152602082013560208201526001600160401b0361290e60408401612789565b1660408201526001600160401b0361292860608401612789565b16606082015261293b608083018361279d565b9160c06080830152610160820192803560c084015260208101359061ffff82168092036102dc5761299d9160e0850152612977604082016127b1565b151561010085015261298b606082016127b1565b1515610120850152608081019061271d565b60a06101408501529384905261018083019360005b818110612bdc5750505060a081013561011e19823603018112156102dc57019060a08184039101526001600160401b036129eb82612789565b1682526001600160401b03612a0260208301612789565b1660208301526001600160a01b03612a1c604083016124ad565b166040830152612a2e606082016127b1565b151560608301526001600160a01b03612a49608083016124ad565b16608083015260a081013560a0830152612a7c612a6960c08301836127cf565b61012060c0860152610120850191612800565b9060e08101359060ff82168092036102dc57612aa590849260e08896015261010081019061271d565b9091610100818503910152808352602083019260208260051b82010193836000925b848410612b30575060209795879003958795506001600160a01b031693505050505afa90811561151b57600091612afc575090565b90506020813d602011612b28575b81612b1760209383612532565b810103126102dc5761270d90612710565b3d9150612b0a565b9193956001919395975060208091601f19858203018752612b518a8761279d565b9063ffffffff612b60836127be565b168152848060a01b03612b748484016124ad565b16838201526080612bc581612bbe612ba3612b92604088018861271d565b60a0604089015260a0880191612751565b612bb060608801886127cf565b908783036060890152612800565b94016127b1565b151591015298019401940191889695939491612ac7565b90919460208060019263ffffffff612bf38a6127be565b1681520196019291016129b2565b6020813d602011612c42575b81612c1a60209383612532565b81010312612c3e5751906001600160a01b0382168203612c3b57503861289d565b80fd5b5080fd5b3d9150612c0d565b3d15612c75573d90612c5b826126a0565b91612c696040519384612532565b82523d6000602084013e565b606090565b6000818072184f03e93ff9f4daa797ed6e38ed64bf6a1f0160401b811015612ea2575b50806d04ee2d6d415b85acef8100000000600a921015612e87575b662386f26fc10000811015612e73575b6305f5e100811015612e62575b612710811015612e53575b6064811015612e45575b1015612e3d575b6001810191600a6021612d1c612d06866126a0565b95612d146040519788612532565b8087526126a0565b602086019490601f19013686378501015b60001901916f181899199a1a9b1b9c1cb0b131b232b360811b8282061a8353048015612d5c57600a9091612d2d565b50506040518092600090600654612d72816124c1565b9060018116908115612e195750600114612dc9575b509281612db961270d95722f6170692f666c696768742f7374617475732f60681b6013969552518093868401906125f7565b010301601f198101835282612532565b90915060066000526000805160206135928339815191526000905b828210612dfb57505082016020019061270d612d87565b60209192939450806001915483858a01015201910185939291612de4565b60ff19166020808701919091528215159092028501909101925061270d9050612d87565b600101612cf1565b606460029104920191612cea565b61271060049104920191612ce0565b6305f5e10060089104920191612cd5565b662386f26fc1000060109104920191612cc8565b6d04ee2d6d415b85acef810000000060209104920191612cb8565b6040925072184f03e93ff9f4daa797ed6e38ed64bf6a1f0160401b90049050600a612c9d565b81810292918115918404141715610e1657565b949695939190855260208501526101006040850152600091805490612eff826124c1565b9182610100880152600181169081600014612f995750600114612f5b575b505060e0929160409160608601526020858203806080880152600083520160a086015260006020820152019460c084015260018060a01b0316910152565b600090815260208120929350915b818310612f81575050830161012001908060e0612f1d565b80546101208488010152602090920191600101612f69565b60ff19166101208881019190915292151560051b8701909201935082915060e09050612f1d565b60ff16604d8111610e1657600a0a90565b6001600160a01b03811660008181526007602052604090205460581b6001600160581b03191691908215611e8f57506003546040516349f4fc0360e11b81526004810193909352606090839060249082906001600160a01b03165afa90811561151b5760009283926130c0575b5082156130af578160000b91600083126000146130945750607f198214610e165761308061308660649561308061307b61308f9660000395613341565b612fc0565b90612ec8565b9160ff16612fc0565b040490565b61308f925061308660649561308061307b6130809495613341565b63029a052f60e11b60005260046000fd5b929091506060833d606011613113575b816130dd60609383612532565b81010312612c3b5782519060208401519384820b8503612c3e57604001516001600160401b03811603612c3b575091903861303e565b3d91506130d0565b90359060be19813603018212156102dc570190565b903590601e19813603018212156102dc57018035906001600160401b0382116102dc576020019181360383136102dc57565b903590609e19813603018212156102dc570190565b90359061011e19813603018212156102dc570190565b903590601e19813603018212156102dc57018035906001600160401b0382116102dc57602001918160051b360383136102dc57565b6000546001600160a01b031633036131d657565b606460405162461bcd60e51b815260206004820152602060248201527f4f776e61626c653a2063616c6c6572206973206e6f7420746865206f776e65726044820152fd5b60026001541461322b576002600155565b60405162461bcd60e51b815260206004820152601f60248201527f5265656e7472616e637947756172643a207265656e7472616e742063616c6c006044820152606490fd5b60405163a9059cbb60e01b60208201526001600160a01b03909216602483015260448083019390935291815261258c916132ab606483612532565b6133c0565b60025460405163dbdff2c160e01b815290606090829060049082906001600160a01b03165afa801561151b57600091600091613301575b50156132f05790565b636135756560e01b60005260046000fd5b9150506060813d606011613339575b8161331d60609383612532565b810103126102dc57613333602082519201612710565b386132e7565b3d9150613310565b6001600160a01b03811673eeeeeeeeeeeeeeeeeeeeeeeeeeeeeeeeeeeeeeee146133ba5760008091604051602081019063313ce56760e01b82526004815261338a602482612532565b51915afa613396612c4a565b90156133ba576020818051810103126102dc576020015160ff811681036102dc5790565b50601290565b604080519092613425926001600160a01b03169060009081906133e38786612532565b602085527f5361666545524332303a206c6f772d6c6576656c2063616c6c206661696c6564602086015260208151910182855af161341f612c4a565b916134b4565b8051908115918215613492575b50501561343c5750565b5162461bcd60e51b815260206004820152602a60248201527f5361666545524332303a204552433230206f7065726174696f6e20646964206e6044820152691bdd081cdd58d8d9595960b21b6064820152608490fd5b81925090602091810103126102dc5760206134ad9101612710565b3880613432565b9192901561351657508151156134c8575090565b3b156134d15790565b60405162461bcd60e51b815260206004820152601d60248201527f416464726573733a2063616c6c20746f206e6f6e2d636f6e74726163740000006044820152606490fd5b8251909150156135295750805190602001fd5b60405162461bcd60e51b81526020600482015290819061354d90602483019061261a565b0390fdfef77760ceddce4a3a170fa31963b77278881354d54a4f7ccb5ba9105f380020e71652cc28ba3792fbe6d62b3b6f1056b42a3e1e524dcea338b3ab5b2a62f9bed9f652222313e28459528d920b65115c16c04f3efc82aaedc97be59f3f377c0d3fa2646970667358221220dcdf04408d2eed97f25f354e8e30e540b08c950c111c5965ae7a634ec9c422c564736f6c634300081c0033",
  "linkReferences": {},
  "deployedLinkReferences": {}
}