{
  "_format": "hh-sol-artifact-1",
  "contractName": "FlightTicket",
  "sourceName": "contracts/FlightTicket.sol",
  "abi": [
    {
      "inputs": [],
      "stateMutability": "nonpayable",
      "type": "constructor"
    },
    {
      "inputs": [
        {
          "internalType": "address",
          "name": "token",
          "type": "address"
        }
      ],
      "name": "FlightTicket__AlreadyPayingWithToken",
      "type": "error"
    },
    {
      "inputs": [],
      "name": "FlightTicket__CanOnlyRefundPayer",
      "type": "error"
    },
    {
      "inputs": [],
      "name": "FlightTicket__DateisLessThanCurrentTime",
      "type": "error"
    },
    {
      "inputs": [],
      "name": "FlightTicket__FlightAlreadyExists",
      "type": "error"
    },
    {
      "inputs": [],
      "name": "FlightTicket__FlightExpired",
      "type": "error"
    },
    {
      "inputs": [],
      "name": "FlightTicket__FlightNotFound",
      "type": "error"
    },
    {
      "inputs": [],
      "name": "FlightTicket__FlightWentSuccessfully",
      "type": "error"
    },
    {
      "inputs": [],
      "name": "FlightTicket__IncorrectETHAmount",
      "type": "error"
    },
    {
      "inputs": [],
      "name": "FlightTicket__InvalidEVMProof",
      "type": "error"
    },
    {
      "inputs": [],
      "name": "FlightTicket__InvalidJsonProof",
      "type": "error"
    },
    {
      "inputs": [],
      "name": "FlightTicket__NotCorrectAmount",
      "type": "error"
    },
    {
      "inputs": [
        {
          "internalType": "address",
          "name": "receiver",
          "type": "address"
        },
        {
          "internalType": "address",
          "name": "contractReceiver",
          "type": "address"
        }
      ],
      "name": "FlightTicket__NotCorrectReceiver",
      "type": "error"
    },
    {
      "inputs": [
        {
          "internalType": "address",
          "name": "sender",
          "type": "address"
        }
      ],
      "name": "FlightTicket__NotSender",
      "type": "error"
    },
    {
      "inputs": [],
      "name": "FlightTicket__PriceNotAvailable",
      "type": "error"
    },
    {
      "inputs": [],
      "name": "FlightTicket__RandomNumberNotSecure",
      "type": "error"
    },
    {
      "inputs": [],
      "name": "FlightTicket__SendingFailed",
      "type": "error"
    },
    {
      "inputs": [],
      "name": "FlightTicket__TicketAlreadyRefunded",
      "type": "error"
    },
    {
      "inputs": [],
      "name": "FlightTicket__TicketNotExpired",
      "type": "error"
    },
    {
      "inputs": [],
      "name": "FlightTicket__TicketNotSameAsData",
      "type": "error"
    },
    {
      "inputs": [
        {
          "internalType": "address",
          "name": "token",
          "type": "address"
        }
      ],
      "name": "FlightTicket__TokenAlreadySupported",
      "type": "error"
    },
    {
      "inputs": [
        {
          "internalType": "address",
          "name": "token",
          "type": "address"
        }
      ],
      "name": "FlightTicket__TokenNotSupported",
      "type": "error"
    },
    {
      "inputs": [],
      "name": "FlightTicket__TransactionAlreadyProcessed",
      "type": "error"
    },
    {
      "inputs": [],
      "name": "FlightTicket__UrlNotSupported",
      "type": "error"
    },
    {
      "anonymous": false,
      "inputs": [
        {
          "indexed": false,
          "internalType": "uint256",
          "name": "id",
          "type": "uint256"
        },
        {
          "indexed": false,
          "internalType": "string",
          "name": "route",
          "type": "string"
        },
        {
          "indexed": false,
          "internalType": "uint256",
          "name": "date",
          "type": "uint256"
        },
        {
          "indexed": false,
          "internalType": "uint256",
          "name": "amountPaid",
          "type": "uint256"
        }
      ],
      "name": "FlightCreated",
      "type": "event"
    },
    {
      "anonymous": false,
      "inputs": [
        {
          "indexed": false,
          "internalType": "uint256",
          "name": "ticketId",
          "type": "uint256"
        },
        {
          "indexed": false,
          "internalType": "uint256",
          "name": "flightId",
          "type": "uint256"
        },
        {
          "indexed": false,
          "internalType": "string",
          "name": "route",
          "type": "string"
        },
        {
          "indexed": false,
          "internalType": "uint256",
          "name": "date",
          "type": "uint256"
        },
        {
          "indexed": false,
          "internalType": "string",
          "name": "weatherCondition",
          "type": "string"
        },
        {
          "indexed": false,
          "internalType": "string",
          "name": "refundStatus",
          "type": "string"
        },
        {
          "indexed": false,
          "internalType": "uint256",
          "name": "amountPaid",
          "type": "uint256"
        },
        {
          "indexed": false,
          "internalType": "address",
          "name": "payer",
          "type": "address"
        }
      ],
      "name": "FlightTicketPurchased",
      "type": "event"
    },
    {
      "anonymous": false,
      "inputs": [
        {
          "indexed": false,
          "internalType": "uint256",
          "name": "ticketId",
          "type": "uint256"
        },
        {
          "indexed": false,
          "internalType": "uint256",
          "name": "flightId",
          "type": "uint256"
        },
        {
          "indexed": false,
          "internalType": "string",
          "name": "route",
          "type": "string"
        },
        {
          "indexed": false,
          "internalType": "uint256",
          "name": "date",
          "type": "uint256"
        },
        {
          "indexed": false,
          "internalType": "uint256",
          "name": "timestamp",
          "type": "uint256"
        },
        {
          "indexed": false,
          "internalType": "string",
          "name": "weatherCondition",
          "type": "string"
        },
        {
          "indexed": false,
          "internalType": "string",
          "name": "refundStatus",
          "type": "string"
        },
        {
          "indexed": false,
          "internalType": "uint256",
          "name": "amountPaid",
          "type": "uint256"
        },
        {
          "indexed": false,
          "internalType": "address",
          "name": "token",
          "type": "address"
        },
        {
          "indexed": false,
          "internalType": "address",
          "name": "recipient",
          "type": "address"
        }
      ],
      "name": "FlightTicketWithdrawn",
      "type": "event"
    },
    {
      "anonymous": false,
      "inputs": [
        {
          "indexed": true,
          "internalType": "address",
          "name": "previousOwner",
          "type": "address"
        },
        {
          "indexed": true,
          "internalType": "address",
          "name": "newOwner",
          "type": "address"
        }
      ],
      "name": "OwnershipTransferred",
      "type": "event"
    },
    {
      "anonymous": false,
      "inputs": [
        {
          "indexed": false,
          "internalType": "address",
          "name": "token",
          "type": "address"
        },
        {
          "indexed": false,
          "internalType": "bytes21",
          "name": "feedId",
          "type": "bytes21"
        }
      ],
      "name": "TokenAdded",
      "type": "event"
    },
    {
      "anonymous": false,
      "inputs": [
        {
          "indexed": false,
          "internalType": "address",
          "name": "token",
          "type": "address"
        }
      ],
      "name": "TokenRemoved",
      "type": "event"
    },
    {
      "inputs": [],
      "name": "FIAT_priceDecimals",
      "outputs": [
        {
          "internalType": "uint256",
          "name": "",
          "type": "uint256"
        }
      ],
      "stateMutability": "view",
      "type": "function"
    },
    {
      "inputs": [],
      "name": "FLRUSD",
      "outputs": [
        {
          "internalType": "bytes21",
          "name": "",
          "type": "bytes21"
        }
      ],
      "stateMutability": "view",
      "type": "function"
    },
    {
      "inputs": [],
      "name": "NATIVE_TOKEN",
      "outputs": [
        {
          "internalType": "address",
          "name": "",
          "type": "address"
        }
      ],
      "stateMutability": "view",
      "type": "function"
    },
    {
      "inputs": [],
      "name": "SLIPPAGE_TOLERANCE_BPS",
      "outputs": [
        {
          "internalType": "uint256",
          "name": "",
          "type": "uint256"
        }
      ],
      "stateMutability": "view",
      "type": "function"
    },
    {
      "inputs": [],
      "name": "USDCUSD",
      "outputs": [
        {
          "internalType": "bytes21",
          "name": "",
          "type": "bytes21"
        }
      ],
      "stateMutability": "view",
      "type": "function"
    },
    {
      "inputs": [],
      "name": "USDC_FLARE_CONTRACT",
      "outputs": [
        {
          "internalType": "address",
          "name": "",
          "type": "address"
        }
      ],
      "stateMutability": "view",
      "type": "function"
    },
    {
      "inputs": [],
      "name": "USDC_SEPOLIA_CONTRACT",
      "outputs": [
        {
          "internalType": "address",
          "name": "",
          "type": "address"
        }
      ],
      "stateMutability": "view",
      "type": "function"
    },
    {
      "inputs": [
        {
          "internalType": "address",
          "name": "token",
          "type": "address"
        },
        {
          "internalType": "bytes21",
          "name": "feedId",
          "type": "bytes21"
        }
      ],
      "name": "addToken",
      "outputs": [],
      "stateMutability": "nonpayable",
      "type": "function"
    },
    {
      "inputs": [
        {
          "internalType": "string",
          "name": "_route",
          "type": "string"
        },
        {
          "internalType": "uint256",
          "name": "_date",
          "type": "uint256"
        },
        {
          "internalType": "uint256",
          "name": "_amountInUsd",
          "type": "uint256"
        }
      ],
      "name": "createFlight",
      "outputs": [],
      "stateMutability": "nonpayable",
      "type": "function"
    },
    {
      "inputs": [
        {
          "internalType": "uint256",
          "name": "",
          "type": "uint256"
        }
      ],
      "name": "flights",
      "outputs": [
        {
          "internalType": "uint256",
          "name": "id",
          "type": "uint256"
        },
        {
          "internalType": "string",
          "name": "route",
          "type": "string"
        },
        {
          "internalType": "uint256",
          "name": "date",
          "type": "uint256"
        },
        {
          "internalType": "uint256",
          "name": "amountInUsd",
          "type": "uint256"
        }
      ],
      "stateMutability": "view",
      "type": "function"
    },
    {
      "inputs": [
        {
          "internalType": "uint256",
          "name": "_flightId",
          "type": "uint256"
        }
      ],
      "name": "getFlightDetails",
      "outputs": [
        {
          "internalType": "uint256",
          "name": "flightId",
          "type": "uint256"
        },
        {
          "internalType": "string",
          "name": "route",
          "type": "string"
        },
        {
          "internalType": "uint256",
          "name": "date",
          "type": "uint256"
        },
        {
          "internalType": "uint256",
          "name": "amountPaid",
          "type": "uint256"
        }
      ],
      "stateMutability": "view",
      "type": "function"
    },
    {
      "inputs": [
        {
          "internalType": "uint256",
          "name": "flightId",
          "type": "uint256"
        }
      ],
      "name": "getUrlFromFlightId",
      "outputs": [
        {
          "internalType": "string",
          "name": "expectedUrl",
          "type": "string"
        }
      ],
      "stateMutability": "view",
      "type": "function"
    },
    {
      "inputs": [
        {
          "internalType": "address",
          "name": "token",
          "type": "address"
        },
        {
          "internalType": "uint256",
          "name": "amountInUsd",
          "type": "uint256"
        }
      ],
      "name": "getUsdToTokenPrice",
      "outputs": [
        {
          "internalType": "uint256",
          "name": "",
          "type": "uint256"
        }
      ],
      "stateMutability": "view",
      "type": "function"
    },
    {
      "inputs": [],
      "name": "hostName",
      "outputs": [
        {
          "internalType": "string",
          "name": "",
          "type": "string"
        }
      ],
      "stateMutability": "view",
      "type": "function"
    },
    {
      "inputs": [
        {
          "components": [
            {
              "internalType": "bytes32[]",
              "name": "merkleProof",
              "type": "bytes32[]"
            },
            {
              "components": [
                {
                  "internalType": "bytes32",
                  "name": "attestationType",
                  "type": "bytes32"
                },
                {
                  "internalType": "bytes32",
                  "name": "sourceId",
                  "type": "bytes32"
                },
                {
                  "internalType": "uint64",
                  "name": "votingRound",
                  "type": "uint64"
                },
                {
                  "internalType": "uint64",
                  "name": "lowestUsedTimestamp",
                  "type": "uint64"
                },
                {
                  "components": [
                    {
                      "internalType": "bytes32",
                      "name": "transactionHash",
                      "type": "bytes32"
                    },
                    {
                      "internalType": "uint16",
                      "name": "requiredConfirmations",
                      "type": "uint16"
                    },
                    {
                      "internalType": "bool",
                      "name": "provideInput",
                      "type": "bool"
                    },
                    {
                      "internalType": "bool",
                      "name": "listEvents",
                      "type": "bool"
                    },
                    {
                      "internalType": "uint32[]",
                      "name": "logIndices",
                      "type": "uint32[]"
                    }
                  ],
                  "internalType": "struct IEVMTransaction.RequestBody",
                  "name": "requestBody",
                  "type": "tuple"
                },
                {
                  "components": [
                    {
                      "internalType": "uint64",
                      "name": "blockNumber",
                      "type": "uint64"
                    },
                    {
                      "internalType": "uint64",
                      "name": "timestamp",
                      "type": "uint64"
                    },
                    {
                      "internalType": "address",
                      "name": "sourceAddress",
                      "type": "address"
                    },
                    {
                      "internalType": "bool",
                      "name": "isDeployment",
                      "type": "bool"
                    },
                    {
                      "internalType": "address",
                      "name": "receivingAddress",
                      "type": "address"
                    },
                    {
                      "internalType": "uint256",
                      "name": "value",
                      "type": "uint256"
                    },
                    {
                      "internalType": "bytes",
                      "name": "input",
                      "type": "bytes"
                    },
                    {
                      "internalType": "uint8",
                      "name": "status",
                      "type": "uint8"
                    },
                    {
                      "components": [
                        {
                          "internalType": "uint32",
                          "name": "logIndex",
                          "type": "uint32"
                        },
                        {
                          "internalType": "address",
                          "name": "emitterAddress",
                          "type": "address"
                        },
                        {
                          "internalType": "bytes32[]",
                          "name": "topics",
                          "type": "bytes32[]"
                        },
                        {
                          "internalType": "bytes",
                          "name": "data",
                          "type": "bytes"
                        },
                        {
                          "internalType": "bool",
                          "name": "removed",
                          "type": "bool"
                        }
                      ],
                      "internalType": "struct IEVMTransaction.Event[]",
                      "name": "events",
                      "type": "tuple[]"
                    }
                  ],
                  "internalType": "struct IEVMTransaction.ResponseBody",
                  "name": "responseBody",
                  "type": "tuple"
                }
              ],
              "internalType": "struct IEVMTransaction.Response",
              "name": "data",
              "type": "tuple"
            }
          ],
          "internalType": "struct IEVMTransaction.Proof",
          "name": "transaction",
          "type": "tuple"
        }
      ],
      "name": "isEVMTransactionProofValid",
      "outputs": [
        {
          "internalType": "bool",
          "name": "",
          "type": "bool"
        }
      ],
      "stateMutability": "view",
      "type": "function"
    },
    {
      "inputs": [],
      "name": "owner",
      "outputs": [
        {
          "internalType": "address",
          "name": "",
          "type": "address"
        }
      ],
      "stateMutability": "view",
      "type": "function"
    },
    {
      "inputs": [
        {
          "internalType": "uint256",
          "name": "flightId",
          "type": "uint256"
        },
        {
          "internalType": "address",
          "name": "token",
          "type": "address"
        }
      ],
      "name": "payForFlight",
      "outputs": [],
      "stateMutability": "payable",
      "type": "function"
    },
    {
      "inputs": [
        {
          "internalType": "uint256",
          "name": "flightId",
          "type": "uint256"
        },
        {
          "components": [
            {
              "internalType": "bytes32[]",
              "name": "merkleProof",
              "type": "bytes32[]"
            },
            {
              "components": [
                {
                  "internalType": "bytes32",
                  "name": "attestationType",
                  "type": "bytes32"
                },
                {
                  "internalType": "bytes32",
                  "name": "sourceId",
                  "type": "bytes32"
                },
                {
                  "internalType": "uint64",
                  "name": "votingRound",
                  "type": "uint64"
                },
                {
                  "internalType": "uint64",
                  "name": "lowestUsedTimestamp",
                  "type": "uint64"
                },
                {
                  "components": [
                    {
                      "internalType": "bytes32",
                      "name": "transactionHash",
                      "type": "bytes32"
                    },
                    {
                      "internalType": "uint16",
                      "name": "requiredConfirmations",
                      "type": "uint16"
                    },
                    {
                      "internalType": "bool",
                      "name": "provideInput",
                      "type": "bool"
                    },
                    {
                      "internalType": "bool",
                      "name": "listEvents",
                      "type": "bool"
                    },
                    {
                      "internalType": "uint32[]",
                      "name": "logIndices",
                      "type": "uint32[]"
                    }
                  ],
                  "internalType": "struct IEVMTransaction.RequestBody",
                  "name": "requestBody",
                  "type": "tuple"
                },
                {
                  "components": [
                    {
                      "internalType": "uint64",
                      "name": "blockNumber",
                      "type": "uint64"
                    },
                    {
                      "internalType": "uint64",
                      "name": "timestamp",
                      "type": "uint64"
                    },
                    {
                      "internalType": "address",
                      "name": "sourceAddress",
                      "type": "address"
                    },
                    {
                      "internalType": "bool",
                      "name": "isDeployment",
                      "type": "bool"
                    },
                    {
                      "internalType": "address",
                      "name": "receivingAddress",
                      "type": "address"
                    },
                    {
                      "internalType": "uint256",
                      "name": "value",
                      "type": "uint256"
                    },
                    {
                      "internalType": "bytes",
                      "name": "input",
                      "type": "bytes"
                    },
                    {
                      "internalType": "uint8",
                      "name": "status",
                      "type": "uint8"
                    },
                    {
                      "components": [
                        {
                          "internalType": "uint32",
                          "name": "logIndex",
                          "type": "uint32"
                        },
                        {
                          "internalType": "address",
                          "name": "emitterAddress",
                          "type": "address"
                        },
                        {
                          "internalType": "bytes32[]",
                          "name": "topics",
                          "type": "bytes32[]"
                        },
                        {
                          "internalType": "bytes",
                          "name": "data",
                          "type": "bytes"
                        },
                        {
                          "internalType": "bool",
                          "name": "removed",
                          "type": "bool"
                        }
                      ],
                      "internalType": "struct IEVMTransaction.Event[]",
                      "name": "events",
                      "type": "tuple[]"
                    }
                  ],
                  "internalType": "struct IEVMTransaction.ResponseBody",
                  "name": "responseBody",
                  "type": "tuple"
                }
              ],
              "internalType": "struct IEVMTransaction.Response",
              "name": "data",
              "type": "tuple"
            }
          ],
          "internalType": "struct IEVMTransaction.Proof",
          "name": "_transaction",
          "type": "tuple"
        }
      ],
      "name": "payUSDCSepoliaForFlight",
      "outputs": [],
      "stateMutability": "nonpayable",
      "type": "function"
    },
    {
      "inputs": [
        {
          "internalType": "uint256",
          "name": "ticketId",
          "type": "uint256"
        },
        {
          "components": [
            {
              "internalType": "bytes32[]",
              "name": "merkleProof",
              "type": "bytes32[]"
            },
            {
              "components": [
                {
                  "internalType": "bytes32",
                  "name": "attestationType",
                  "type": "bytes32"
                },
                {
                  "internalType": "bytes32",
                  "name": "sourceId",
                  "type": "bytes32"
                },
                {
                  "internalType": "uint64",
                  "name": "votingRound",
                  "type": "uint64"
                },
                {
                  "internalType": "uint64",
                  "name": "lowestUsedTimestamp",
                  "type": "uint64"
                },
                {
                  "components": [
                    {
                      "internalType": "string",
                      "name": "url",
                      "type": "string"
                    },
                    {
                      "internalType": "string",
                      "name": "postprocessJq",
                      "type": "string"
                    },
                    {
                      "internalType": "string",
                      "name": "abi_signature",
                      "type": "string"
                    }
                  ],
                  "internalType": "struct IJsonApi.RequestBody",
                  "name": "requestBody",
                  "type": "tuple"
                },
                {
                  "components": [
                    {
                      "internalType": "bytes",
                      "name": "abi_encoded_data",
                      "type": "bytes"
                    }
                  ],
                  "internalType": "struct IJsonApi.ResponseBody",
                  "name": "responseBody",
                  "type": "tuple"
                }
              ],
              "internalType": "struct IJsonApi.Response",
              "name": "data",
              "type": "tuple"
            }
          ],
          "internalType": "struct IJsonApi.Proof",
          "name": "_proof",
          "type": "tuple"
        }
      ],
      "name": "refundTicket",
      "outputs": [],
      "stateMutability": "nonpayable",
      "type": "function"
    },
    {
      "inputs": [
        {
          "internalType": "uint256",
          "name": "ticketId",
          "type": "uint256"
        },
        {
          "components": [
            {
              "internalType": "bytes32[]",
              "name": "merkleProof",
              "type": "bytes32[]"
            },
            {
              "components": [
                {
                  "internalType": "bytes32",
                  "name": "attestationType",
                  "type": "bytes32"
                },
                {
                  "internalType": "bytes32",
                  "name": "sourceId",
                  "type": "bytes32"
                },
                {
                  "internalType": "uint64",
                  "name": "votingRound",
                  "type": "uint64"
                },
                {
                  "internalType": "uint64",
                  "name": "lowestUsedTimestamp",
                  "type": "uint64"
                },
                {
                  "components": [
                    {
                      "internalType": "string",
                      "name": "url",
                      "type": "string"
                    },
                    {
                      "internalType": "string",
                      "name": "postprocessJq",
                      "type": "string"
                    },
                    {
                      "internalType": "string",
                      "name": "abi_signature",
                      "type": "string"
                    }
                  ],
                  "internalType": "struct IJsonApi.RequestBody",
                  "name": "requestBody",
                  "type": "tuple"
                },
                {
                  "components": [
                    {
                      "internalType": "bytes",
                      "name": "abi_encoded_data",
                      "type": "bytes"
                    }
                  ],
                  "internalType": "struct IJsonApi.ResponseBody",
                  "name": "responseBody",
                  "type": "tuple"
                }
              ],
              "internalType": "struct IJsonApi.Response",
              "name": "data",
              "type": "tuple"
            }
          ],
          "internalType": "struct IJsonApi.Proof",
          "name": "_proof",
          "type": "tuple"
        }
      ],
      "name": "refundTicketByPass",
      "outputs": [],
      "stateMutability": "nonpayable",
      "type": "function"
    },
    {
      "inputs": [
        {
          "internalType": "address",
          "name": "token",
          "type": "address"
        }
      ],
      "name": "removeToken",
      "outputs": [],
      "stateMutability": "nonpayable",
      "type": "function"
    },
    {
      "inputs": [],
      "name": "renounceOwnership",
      "outputs": [],
      "stateMutability": "nonpayable",
      "type": "function"
    },
    {
      "inputs": [
        {
          "internalType": "string",
          "name": "_hostname",
          "type": "string"
        }
      ],
      "name": "setHostName",
      "outputs": [],
      "stateMutability": "nonpayable",
      "type": "function"
    },
    {
      "inputs": [
        {
          "internalType": "address",
          "name": "_usdcFlareContract",
          "type": "address"
        }
      ],
      "name": "setUSDCFlareContract",
      "outputs": [],
      "stateMutability": "nonpayable",
      "type": "function"
    },
    {
      "inputs": [
        {
          "internalType": "address",
          "name": "_usdcSepoliaContract",
          "type": "address"
        }
      ],
      "name": "setUSDCSepoliaContract",
      "outputs": [],
      "stateMutability": "nonpayable",
      "type": "function"
    },
    {
      "inputs": [
        {
          "internalType": "uint256",
          "name": "",
          "type": "uint256"
        }
      ],
      "name": "tickets",
      "outputs": [
        {
          "internalType": "uint256",
          "name": "ticketId",
          "type": "uint256"
        },
        {
          "internalType": "uint256",
          "name": "flightId",
          "type": "uint256"
        },
        {
          "internalType": "string",
          "name": "route",
          "type": "string"
        },
        {
          "internalType": "uint256",
          "name": "date",
          "type": "uint256"
        },
        {
          "internalType": "string",
          "name": "weatherCondition",
          "type": "string"
        },
        {
          "internalType": "string",
          "name": "refundStatus",
          "type": "string"
        },
        {
          "internalType": "uint256",
          "name": "amountInUsd",
          "type": "uint256"
        },
        {
          "internalType": "uint256",
          "name": "amountSent",
          "type": "uint256"
        },
        {
          "internalType": "address",
          "name": "payer",
          "type": "address"
        },
        {
          "internalType": "address",
          "name": "token",
          "type": "address"
        },
        {
          "internalType": "bool",
          "name": "isWithdrawn",
          "type": "bool"
        }
      ],
      "stateMutability": "view",
      "type": "function"
    },
    {
      "inputs": [
        {
          "internalType": "address",
          "name": "",
          "type": "address"
        }
      ],
      "name": "tokenToFeedId",
      "outputs": [
        {
          "internalType": "bytes21",
          "name": "",
          "type": "bytes21"
        }
      ],
      "stateMutability": "view",
      "type": "function"
    },
    {
      "inputs": [
        {
          "internalType": "address",
          "name": "newOwner",
          "type": "address"
        }
      ],
      "name": "transferOwnership",
      "outputs": [],
      "stateMutability": "nonpayable",
      "type": "function"
    },
    {
      "inputs": [
        {
          "internalType": "uint256",
          "name": "_ticketId",
          "type": "uint256"
        }
      ],
      "name": "withdraw",
      "outputs": [],
      "stateMutability": "nonpayable",
      "type": "function"
    }
  ],
  "bytecode": "0x608080604052346102395760008054336001600160a01b0319821681178355916001600160a01b03909116907f8be0079c531659141344cd1fd0a4f28419497f9722a3daafe3b4186f6b6457e09080a360018055602081019060208252600e60408201526d2930b73237b6a73ab6b132b92b1960911b60608201526060815261008960808261023e565b51902060405190630ac9aa5160e11b8252600482015260208160248173ad67fe66660fb8dfe9d6b1b4240d8650e30f60195afa90811561020e5760009161021a575b5060018060a01b031660018060a01b031960025416176002556040516020810190602082526006604082015265233a39b7ab1960d11b60608201526060815261011560808261023e565b51902060405190630ac9aa5160e11b8252600482015260208160248173ad67fe66660fb8dfe9d6b1b4240d8650e30f60195afa90811561020e576000916101df575b50600380546001600160a01b0319166001600160a01b039290921691909117905573eeeeeeeeeeeeeeeeeeeeeeeeeeeeeeeeeeeeeeee60005260076020527fb2084a3e4595ccf007fb44245853374aaf0de960074375e8e0fb334712e94d0e80546001600160a81b031916665193148bd554d1606a1b17905560405161373490816102978239f35b610201915060203d602011610207575b6101f9818361023e565b810190610277565b38610157565b503d6101ef565b6040513d6000823e3d90fd5b610233915060203d602011610207576101f9818361023e565b386100cb565b600080fd5b601f909101601f19168101906001600160401b0382119082101761026157604052565b634e487b7160e01b600052604160045260246000fd5b9081602091031261023957516001600160a01b0381168103610239579056fe608080604052600436101561001357600080fd5b60003560e01c90816301b6c071146122cc575080630538207e1461228957806309f5dc911461224157806315ccf70f146121f7578063185350081461218a5780631c4158211461211f5780632e1a7d4d14611f0457806331f7d96414611ed55780633b21d2ca14611eac57806344891dba14611df157806350b4471214611cfb5780635fa7b58414611c525780636268481214611c1b57806365a5444514611bd4578063715018a614611b7b57806374b36e0614611b525780637597805f146114a557806389349371146113d75780638da5cb5b146113ae5780639fb6ef2e1461137f578063ada91af01461123d578063b9667ff114610907578063df1f3ef7146108e0578063e47ffee5146106c4578063e56a2bd0146103eb578063e9e7a710146103cf578063f11cddf6146103b3578063f2fde38b146102ec5763fd53d7511461015e57600080fd5b346102e75760203660031901126102e7576004356001600160401b0381116102e75761018e90369060040161254a565b61019661319e565b80516001600160401b0381116102d1576101b1600654612319565b601f8111610264575b50602091601f82116001146101f8579181926000926101ed575b5050600019600383901b1c191660019190911b17600655005b0151905038806101d4565b601f1982169260066000526000805160206136df8339815191529160005b85811061024c57508360019510610233575b505050811b01600655005b015160001960f88460031b161c19169055388080610228565b91926020600181928685015181550194019201610216565b6006600052601f820160051c6000805160206136df8339815191520190602083106102bb575b601f0160051c6000805160206136df83398151915201905b8181106102af57506101ba565b600081556001016102a2565b6000805160206136df833981519152915061028a565b634e487b7160e01b600052604160045260246000fd5b600080fd5b346102e75760203660031901126102e7576103056122ef565b61030d61319e565b6001600160a01b0316801561035f57600080546001600160a01b03198116831782556001600160a01b0316907f8be0079c531659141344cd1fd0a4f28419497f9722a3daafe3b4186f6b6457e09080a3005b60405162461bcd60e51b815260206004820152602660248201527f4f776e61626c653a206e6577206f776e657220697320746865207a65726f206160448201526564647265737360d01b6064820152608490fd5b346102e75760003660031901126102e757602060405160c88152f35b346102e75760003660031901126102e757602060405160648152f35b346102e7576103f9366124c0565b6104016131f6565b61040961319e565b6104128161339c565b156106b3578160005260086020526040600020604051916104328361236e565b815483526001820154906020840191825261044f600284016123ab565b926040850193845260038101549460608101958652610470600483016123ab565b6080820152610481600583016123ab565b60a0820152600682015460c0820152600782015460e08201908152600960018060a01b03600885015416936101008401948552015460ff61014061012085019460018060a01b0384168652019160a01c1615158152602085019461053b61053461050461052a61051261050a6105046104fa8d89612f7f565b60a0810190612f94565b80612fa9565b810190612fdb565b9961051d8c51612ade565b6020815191012095612f7f565b608081019061307f565b3691612513565b60208151910120146106a257845186510361069157602085015160208151910120610564613094565b6020815191012014610680575161066f576000888152600860205260409020600901805460ff60a01b1916600160a01b17905581516001600160a01b031673eeeeeeeeeeeeeeeeeeeeeeeeeeeeeeeeeeeeeeee810361063e5750600080808060018060a01b038751168551905af16105da612aae565b501561062d5760008051602061369f833981519152976060610624965b51975198519501519151925193516040519889986001600160a01b0392831697929096169542938a6130b9565b0390a160018055005b634ac1463d60e01b60005260046000fd5b9760606106249661066a60008051602061369f8339815191529b60018060a01b0388511686519161324c565b6105f7565b63015cd58b60e51b60005260046000fd5b635cd6bbc760e01b60005260046000fd5b63cd50903360e01b60005260046000fd5b6353f076eb60e11b60005260046000fd5b631ee57f6d60e21b60005260046000fd5b346102e75760603660031901126102e7576004356001600160401b0381116102e7576106f490369060040161254a565b6024359060443561070361319e565b61070b61328c565b904284106108cf576040519361072085612353565b82855260208501948486526040810182815260608201908482528560005260096020526040600020925183556001830197519788516001600160401b0381116102d15761076d8254612319565b601f8111610887575b506020601f82116001146107f6579181600394926107e699989796947f6e86888f6dd2568a918c94a4d4fcb46ef42bde66f00f4cea5372e2a3296f598c9d6000926107eb575b50508160011b9160001990871b1c19161790555b5160028401555191015560405194859485612497565b0390a1005b015190508d806107bc565b601f1982169a83600052816000209b60005b81811061086f5750927f6e86888f6dd2568a918c94a4d4fcb46ef42bde66f00f4cea5372e2a3296f598c9c6107e69a9998979593600193836003999710610857575b505050811b0190556107d0565b015160001983891b60f8161c191690558d808061084a565b838301518e556001909d019c60209384019301610808565b826000526020600020601f830160051c810191602084106108c5575b601f0160051c01905b8181106108b95750610776565b600081556001016108ac565b90915081906108a3565b630c989dd360e21b60005260046000fd5b346102e75760003660031901126102e757604051675554d110cbd554d160ba1b8152602090f35b346102e757610915366124c0565b9061091e6131f6565b602082019061093a6109308385612f7f565b608081019061313e565b35600052600a60205260ff6040600020541661122c5761095983612679565b1561121b5761096b6109308385612f7f565b35600052600a6020526040600020600160ff1982541617905560006020925b6109af6109a461099a8388612f7f565b60a0810190613153565b610100810190613169565b9050821015611211576109c86109a461099a8388612f7f565b8310156111fb576109df908360051b81019061313e565b9060a0823603126102e7576040519560a087018781106001600160401b038211176102d157604052610a1083612616565b8752610a1d868401612305565b86880190815260408401356001600160401b0381116102e75784019736601f8a0112156102e7578835986001600160401b038a116102d1578960051b6040519a610a698b83018d61238a565b8b5289808c0191830101913683116102e7578a809101915b8383106111ec57505050506040810198895260608501356001600160401b0381116102e757850136601f820112156102e757610ad76080610ac9819336908d81359101612513565b976060850198895201612609565b910152516004546001600160a01b039081169591168590036111de578751805115908115611181575b5061116f575050508451600081516001101561115b575060400160018060a01b039051169451600081516002101561115b575060600160018060a01b03905116905184818051810103126102e75784015190836000526009855260406000209560405196610b6d88612353565b80548852610b7d600182016123ab565b87890152600360028201549160408a019283520154606089015287511561114a57429051106111395733036111245730810361110c5750606085015161271081029080820461271014901517156110f65781106110e557610bdc61328c565b91836000526009855260016040600020019084600052600986526002604060002001549060608801519360405194610c138661236e565b868652610c25898701958987526123ab565b93604087019485526060870152604051610c3f8a8261238a565b600081526080870152604051610c558a8261238a565b6000815260a087015260c086015260e0850152336101008501526101208401526000610140840152836000526008865260406000209183518355516001830155518051906001600160401b0382116102d1578190610cb66002850154612319565b601f8111611094575b508790601f831160011461102357600092611018575b50508160011b916000199060031b1c19161760028201555b6060820151600382015560808201518051906001600160401b0382116102d1578190610d1c6004850154612319565b601f8111610fc4575b508790601f8311600114610f5357600092610f48575b50508160011b916000199060031b1c19161760048201555b6005810160a08301518051906001600160401b0382116102d157610d778354612319565b601f8111610f02575b508790601f8311600114610e7d576000805160206136bf8339815191529994610e37948461062499989561014095600995600092610e72575b50508160011b916000199060031b1c19161790555b60c0840151600682015560e084015160078201556101008401516008820180546001600160a01b0319166001600160a01b0392831617905561012085015192909101805493909401516001600160a81b031990931691161790151560a01b60ff60a01b16179055565b836000526009855260096001604060002001958560005252606060026040600020015491015190604051958695339487612d3f565b60018055005b015190508e80610db9565b90601f1983169184600052896000209260005b818110610eeb575094600185610140956009956000805160206136bf8339815191529f9a956106249d9c99610e379b10610ed2575b505050811b019055610dce565b015160001960f88460031b161c191690558e8080610ec5565b92938b600181928786015181550195019301610e90565b8360005288600020601f840160051c8101918a8510610f3e575b601f0160051c01905b818110610f325750610d80565b60008155600101610f25565b9091508190610f1c565b015190508880610d3b565b92506004840160005287600020906000935b89601f1985168610610fab57506001945083601f19811610610f92575b505050811b016004820155610d53565b015160001960f88460031b161c19169055888080610f82565b8282015184559485019460019093019290910190610f65565b9091506004840160005287600020601f840160051c81019189851061100e575b90601f859493920160051c01905b818110610fff5750610d25565b60008155849350600101610ff2565b9091508190610fe4565b015190508880610cd5565b92506002840160005287600020906000935b89601f198516861061107b57506001945083601f19811610611062575b505050811b016002820155610ced565b015160001960f88460031b161c19169055888080611052565b8282015184559485019460019093019290910190611035565b9091506002840160005287600020601f840160051c81018985106110de575b90849392915b601f830160051c820181106110cf575050610cbf565b600081558594506001016110b9565b50806110b3565b6325efd3bd60e01b60005260046000fd5b634e487b7160e01b600052601160045260246000fd5b637449d4dd60e11b6000526004523060245260446000fd5b638fac2ff760e01b6000523360045260246000fd5b6341c5115b60e01b60005260046000fd5b633e5531ff60e11b60005260046000fd5b634e487b7160e01b81526032600452602490fd5b9196509250600191505b01909361098a565b9050600081511561115b5750870151604051888101907f5472616e7366657228616464726573732c616464726573732c75696e743235368252602960f81b6040820152602181526111d360418261238a565b519020141589610b00565b919650925060019150611179565b82358152918101918101610a81565b634e487b7160e01b600052603260045260246000fd5b5050505050610e6c565b6376f162a560e01b60005260046000fd5b633856d1a760e21b60005260046000fd5b346102e75761124b366124c0565b6112536131f6565b61125c8161339c565b156106b35781600052600860205260406000206040519161127c8361236e565b8154835260018201549060208401918252611299600284016123ab565b9260408501938452600381015494606081019586526112ba600483016123ab565b60808201526112cb600583016123ab565b60a0820152600682015460c0820152600782015460e08201908152600960018060a01b03600885015416936101008401948552015460ff61014061012085019460018060a01b0384168652019160a01c16151581528751421061136e5783516001600160a01b0316330361135d57602085019461053b61053461050461052a61051261050a6105046104fa8d89612f7f565b630b04b98b60e11b60005260046000fd5b634574b67d60e11b60005260046000fd5b346102e75760403660031901126102e75760206113a661139d6122ef565b60243590612e35565b604051908152f35b346102e75760003660031901126102e7576000546040516001600160a01b039091168152602090f35b346102e75760403660031901126102e7576113f06122ef565b602435906001600160581b03198216908183036102e75761140f61319e565b6001600160a01b031660008181526007602052604090205490929060581b6001600160581b03191661149057916040917f925ccaaa3fa7a2492388353d0e7e4300f182bca41fa73d3a646ef322c80f2dd193826000526007602052836000209060581c6001600160581b0360a81b82541617905582519182526020820152a1005b82634e2980a360e11b60005260045260246000fd5b60403660031901126102e7576024356001600160a01b038116908181036102e7576114ce6131f6565b6004356000526009602052604060002090604051916114ec83612353565b805483526114fc600182016123ab565b60208401526003600282015491604085019283520154606084015282511561114a57514211611139578260005260076020526001600160581b031960406000205460581b1615611b3d57606082015161155491612e35565b916126488302831590848104612648148217156110f6576127d88502918583046127d81417156110f65773eeeeeeeeeeeeeeeeeeeeeeeeeeeeeeeeeeeeeeee8303611ae35761271090043410908115611ad5575b50611ac4575b6115b661328c565b60043560005260096020526001604060002001936004356000526009602052600260406000200154606085015193604051926115f18461236e565b84845261160660208501986004358a526123ab565b92604085019384526060850152602095604051611623888261238a565b600081526080860152604051611639888261238a565b6000815260a086015260c085015260e0840152336101008401526101208301526000610140830152826000526008845260406000209582518755516001870155518051906001600160401b0382116102d157819061169a6002890154612319565b601f8111611a73575b508590601f8311600114611a02576000926119f7575b50508160011b916000199060031b1c19161760028601555b6060810151600386015560808101518051906001600160401b0382116102d15781906117006004890154612319565b601f81116119a3575b508590601f831160011461193257600092611927575b50508160011b916000199060031b1c19161760048601555b600585019460a08201519586516001600160401b0381116102d15761175c8254612319565b601f81116118e1575b5085601f821160011461185f576118189361062496959383610140946009946000805160206136bf8339815191529d6000926118545750508160011b916000199060031b1c191617905560c0840151600682015560e084015160078201556101008401516008820180546001600160a01b0319166001600160a01b0392831617905561012085015192909101805493909401516001600160a81b031990931691161790151560a01b60ff60a01b16179055565b60043560005260098352600960016040600020019360043560005252606060026040600020015494015160405194859433936004359087612d3f565b015190508d80610db9565b601f1982169883600052876000209960005b8181106118ca5750936001846000805160206136bf8339815191529c6009956118189995610140986106249d9c9a106118b157505050811b019055610dce565b015160001960f88460031b161c191690558d8080610ec5565b838301518c556001909b019a928901928901611871565b8260005286600020601f830160051c81019188841061191d575b601f0160051c01905b8181106119115750611765565b60008155600101611904565b90915081906118fb565b01519050878061171f565b92506004880160005285600020906000935b87601f198516861061198a57506001945083601f19811610611971575b505050811b016004860155611737565b015160001960f88460031b161c19169055878080611961565b8282015184559485019460019093019290910190611944565b9091506004880160005285600020601f840160051c8101918785106119ed575b90601f859493920160051c01905b8181106119de5750611709565b600081558493506001016119d1565b90915081906119c3565b0151905087806116b9565b92506002880160005285600020906000935b87601f1985168610611a5a57506001945083601f19811610611a41575b505050811b0160028601556116d1565b015160001960f88460031b161c19169055878080611a31565b8282015184559485019460019093019290910190611a14565b9091506002880160005285600020601f840160051c8101878510611abd575b90849392915b601f830160051c82018110611aae5750506116a3565b60008155859450600101611a98565b5080611a92565b6346bd07ef60e01b60005260046000fd5b6127109150043411846115a8565b505034611b2957611b246040516323b872dd60e01b602082015233602482015230604482015284606482015260648152611b1e60848261238a565b8261350d565b6115ae565b633320e89560e01b60005260045260246000fd5b826374d64a4560e01b60005260045260246000fd5b346102e75760003660031901126102e7576004546040516001600160a01b039091168152602090f35b346102e75760003660031901126102e757611b9461319e565b600080546001600160a01b0319811682556001600160a01b03167f8be0079c531659141344cd1fd0a4f28419497f9722a3daafe3b4186f6b6457e08280a3005b346102e75760203660031901126102e7576001600160a01b03611bf56122ef565b166000526007602052602060406000205460581b604051906001600160581b0319168152f35b346102e75760203660031901126102e757611c4e611c3a600435612ade565b604051918291602083526020830190612472565b0390f35b346102e75760203660031901126102e757611c6b6122ef565b611c7361319e565b6001600160a01b031660008181526007602052604090205460581b6001600160581b03191615611ce7576020817f4c910b69fe65a61f7531b9c5042b2329ca7179c77290aa7e2eb3afa3c8511fd3926000526007825260406000206001600160581b0360a81b8154169055604051908152a1005b6374d64a4560e01b60005260045260246000fd5b346102e75760203660031901126102e75760043560005260086020526040600020805460018201549160028101611d31906123ab565b600382015491611d43600482016123ab565b92611d50600583016123ab565b600683015494600784015492600160a01b60019003600886015416946009015495604051998a998a5260208a01526040890161016090526101608901611d9591612472565b9060608901528781036080890152611dac91612472565b86810360a0880152611dbd91612472565b9360c086015260e0850152610100840152600160a01b60019003811661012084015260a01c60ff1615156101408301520390f35b346102e75760003660031901126102e7576040516000600654611e1381612319565b8084529060018116908115611e885750600114611e3b575b611c4e83611c3a8185038261238a565b600660009081526000805160206136df833981519152939250905b808210611e6e57509091508101602001611c3a611e2b565b919260018160209254838588010152019101909291611e56565b60ff191660208086019190915291151560051b84019091019150611c3a9050611e2b565b346102e75760003660031901126102e7576005546040516001600160a01b039091168152602090f35b346102e75760003660031901126102e757602060405173eeeeeeeeeeeeeeeeeeeeeeeeeeeeeeeeeeeeeeee8152f35b346102e75760203660031901126102e757600435611f2061319e565b611f286131f6565b80600052600860205260406000209060405190611f448261236e565b8254825260018301549160208101928352611f61600285016123ab565b926040820193845260038501549060608301918252611f82600487016123ab565b9560808401968752611f96600582016123ab565b9160a08501928352600682015460c0860152610140600960078401549360e0880194855260018060a01b0360088201541661010089015201549560ff61012082019760018060a01b038116895260a01c161515918291015261066f578351421061136e576000868152600860205260409020600901805460ff60a01b1916600160a01b17905584516001600160a01b031673eeeeeeeeeeeeeeeeeeeeeeeeeeeeeeeeeeeeeeee81036120f1575060008080808551335af1612055612aae565b501561062d5760008051602061369f833981519152976120d5936120ae6120c7935b51995196519251915194519760018060a01b03905116966040519a8b9a8b5260208b015261014060408b01526101408a0190612472565b91606089015242608089015287820360a0890152612472565b9085820360c0870152612472565b9160e0840152610100830152336101208301520390a160018055005b976120d5936120ae6120c79361211a60008051602061369f8339815191529c875190339061324c565b612077565b346102e75760203660031901126102e7576121386122ef565b61214061319e565b600580546001600160a01b0319166001600160a01b03929092169182179055600090815260076020526040902080546001600160a81b031916675554d110cbd554d160621b179055005b346102e75760203660031901126102e75760043560005260096020526040600020604051906121b882612353565b80548252611c4e6121cb600183016123ab565b928360208201526003600284015493846040840152015490816060820152519260405194859485612497565b346102e75760203660031901126102e757600435600052600960205260406000208054611c4e612229600184016123ab565b92600360028201549101549060405194859485612497565b346102e75760203660031901126102e7576004356001600160401b0381116102e757604060031982360301126102e75761227f602091600401612679565b6040519015158152f35b346102e75760203660031901126102e7576122a26122ef565b6122aa61319e565b600480546001600160a01b0319166001600160a01b0392909216919091179055005b346102e75760003660031901126102e757665193148bd554d160c21b8152602090f35b600435906001600160a01b03821682036102e757565b35906001600160a01b03821682036102e757565b90600182811c92168015612349575b602083101461233357565b634e487b7160e01b600052602260045260246000fd5b91607f1691612328565b608081019081106001600160401b038211176102d157604052565b61016081019081106001600160401b038211176102d157604052565b90601f801991011681019081106001600160401b038211176102d157604052565b90604051918260008254926123bf84612319565b808452936001811690811561242d57506001146123e6575b506123e49250038361238a565b565b90506000929192526020600020906000915b8183106124115750509060206123e492820101386123d7565b60209193508060019154838589010152019101909184926123f8565b9050602092506123e494915060ff191682840152151560051b820101386123d7565b60005b8381106124625750506000910152565b8181015183820152602001612452565b9060209161248b8151809281855285808601910161244f565b601f01601f1916010190565b906060926124b691969594968352608060208401526080830190612472565b9460408201520152565b9060406003198301126102e75760043591602435906001600160401b0382116102e75760409082900360031901126102e75760040190565b6001600160401b0381116102d157601f01601f191660200190565b92919261251f826124f8565b9161252d604051938461238a565b8294818452818301116102e7578281602093846000960137010152565b9080601f830112156102e75781602061256593359101612513565b90565b519081151582036102e757565b9035601e19823603018112156102e75701602081359101916001600160401b0382116102e7578160051b360383136102e757565b81835290916001600160fb1b0383116102e75760209260051b809284830137010190565b903560be19823603018112156102e7570190565b35906001600160401b03821682036102e757565b9035609e19823603018112156102e7570190565b359081151582036102e757565b359063ffffffff821682036102e757565b9035601e19823603018112156102e75701602081359101916001600160401b0382116102e75781360383136102e757565b908060209392818452848401376000828201840152601f01601f1916010190565b604051602081019060208252600f60408201526e233231ab32b934b334b1b0ba34b7b760891b6060820152606081526126b360808261238a565b51902060405190630ac9aa5160e11b8252600482015260208160248173ad67fe66660fb8dfe9d6b1b4240d8650e30f60195afa90811561298857600091612a65575b506040516358fbe9e160e01b8152602060048201529161273761272c61271b8380612575565b6040602488015260648701916125a9565b9160208101906125cd565b9060231984820301604485015281358152602082013560208201526001600160401b03612766604084016125e1565b1660408201526001600160401b03612780606084016125e1565b16606082015261279360808301836125f5565b9160c06080830152610160820192803560c084015260208101359061ffff82168092036102e7576127f59160e08501526127cf60408201612609565b15156101008501526127e360608201612609565b15156101208501526080810190612575565b60a06101408501529384905261018083019360005b818110612a405750505060a081013561011e19823603018112156102e757019060a08184039101526001600160401b03612843826125e1565b1682526001600160401b0361285a602083016125e1565b1660208301526001600160a01b0361287460408301612305565b16604083015261288660608201612609565b151560608301526001600160a01b036128a160808301612305565b16608083015260a081013560a08301526128d46128c160c0830183612627565b61012060c0860152610120850191612658565b9060e08101359060ff82168092036102e7576128fd90849260e088960152610100810190612575565b9091610100818503910152808352602083019260208260051b82010193836000925b848410612994575060209795879003958795506001600160a01b031693505050505afa90811561298857600091612954575090565b90506020813d602011612980575b8161296f6020938361238a565b810103126102e75761256590612568565b3d9150612962565b6040513d6000823e3d90fd5b9193956001919395975060208091601f198582030187526129b58a876125f5565b9063ffffffff6129c483612616565b168152848060a01b036129d8848401612305565b16838201526080612a2981612a22612a076129f66040880188612575565b60a0604089015260a08801916125a9565b612a146060880188612627565b908783036060890152612658565b9401612609565b15159101529801940194019188969593949161291f565b90919460208060019263ffffffff612a578a612616565b16815201960192910161280a565b6020813d602011612aa6575b81612a7e6020938361238a565b81010312612aa25751906001600160a01b0382168203612a9f5750386126f5565b80fd5b5080fd5b3d9150612a71565b3d15612ad9573d90612abf826124f8565b91612acd604051938461238a565b82523d6000602084013e565b606090565b6000818072184f03e93ff9f4daa797ed6e38ed64bf6a1f0160401b811015612d06575b50806d04ee2d6d415b85acef8100000000600a921015612ceb575b662386f26fc10000811015612cd7575b6305f5e100811015612cc6575b612710811015612cb7575b6064811015612ca9575b1015612ca1575b6001810191600a6021612b80612b6a866124f8565b95612b78604051978861238a565b8087526124f8565b602086019490601f19013686378501015b60001901916f181899199a1a9b1b9c1cb0b131b232b360811b8282061a8353048015612bc057600a9091612b91565b50506040518092600090600654612bd681612319565b9060018116908115612c7d5750600114612c2d575b509281612c1d61256595722f6170692f666c696768742f7374617475732f60681b60139695525180938684019061244f565b010301601f19810183528261238a565b90915060066000526000805160206136df8339815191526000905b828210612c5f575050820160200190612565612beb565b60209192939450806001915483858a01015201910185939291612c48565b60ff1916602080870191909152821515909202850190910192506125659050612beb565b600101612b55565b606460029104920191612b4e565b61271060049104920191612b44565b6305f5e10060089104920191612b39565b662386f26fc1000060109104920191612b2c565b6d04ee2d6d415b85acef810000000060209104920191612b1c565b6040925072184f03e93ff9f4daa797ed6e38ed64bf6a1f0160401b90049050600a612b01565b818102929181159184041417156110f657565b949695939190855260208501526101006040850152600091805490612d6382612319565b9182610100880152600181169081600014612dfd5750600114612dbf575b505060e0929160409160608601526020858203806080880152600083520160a086015260006020820152019460c084015260018060a01b0316910152565b600090815260208120929350915b818310612de5575050830161012001908060e0612d81565b80546101208488010152602090920191600101612dcd565b60ff19166101208881019190915292151560051b8701909201935082915060e09050612d81565b60ff16604d81116110f657600a0a90565b6001600160a01b03811660008181526007602052604090205460581b6001600160581b03191691908215611ce757506003546040516349f4fc0360e11b81526004810193909352606090839060249082906001600160a01b03165afa908115612988576000928392612f24575b508215612f13578160000b9160008312600014612ef85750607f1982146110f657612ee4612eea606495612ee4612edf612ef3966000039561331d565b612e24565b90612d2c565b9160ff16612e24565b040490565b612ef39250612eea606495612ee4612edf612ee4949561331d565b63029a052f60e11b60005260046000fd5b929091506060833d606011612f77575b81612f416060938361238a565b81010312612a9f5782519060208401519384820b8503612aa257604001516001600160401b03811603612a9f5750919038612ea2565b3d9150612f34565b90359060be19813603018212156102e7570190565b903590601e19813603018212156102e7570190565b903590601e19813603018212156102e757018035906001600160401b0382116102e7576020019181360383136102e757565b6020818303126102e7578035906001600160401b0382116102e757016080818303126102e7576040519161300e83612353565b8135835260208201356001600160401b0381116102e7578161303191840161254a565b602084015260408201356001600160401b0381116102e7578161305591840161254a565b604084015260608201356001600160401b0381116102e757613077920161254a565b606082015290565b903590605e19813603018212156102e7570190565b604051906130a360408361238a565b60078252664f6e2054696d6560c81b6020830152565b97946130e76130ff94604096946101209a9d9c99948c5260208c0152610140878c01526101408b0190612472565b9260608a0152608089015287820360a0890152612472565b85810360c087015260088152671499599d5b99195960c21b6020820152019560e085015260018060a01b031661010084015260018060a01b0316910152565b903590609e19813603018212156102e7570190565b90359061011e19813603018212156102e7570190565b903590601e19813603018212156102e757018035906001600160401b0382116102e757602001918160051b360383136102e757565b6000546001600160a01b031633036131b257565b606460405162461bcd60e51b815260206004820152602060248201527f4f776e61626c653a2063616c6c6572206973206e6f7420746865206f776e65726044820152fd5b600260015414613207576002600155565b60405162461bcd60e51b815260206004820152601f60248201527f5265656e7472616e637947756172643a207265656e7472616e742063616c6c006044820152606490fd5b60405163a9059cbb60e01b60208201526001600160a01b0390921660248301526044808301939093529181526123e49161328760648361238a565b61350d565b60025460405163dbdff2c160e01b815290606090829060049082906001600160a01b03165afa8015612988576000916000916132dd575b50156132cc5790565b636135756560e01b60005260046000fd5b9150506060813d606011613315575b816132f96060938361238a565b810103126102e75761330f602082519201612568565b386132c3565b3d91506132ec565b6001600160a01b03811673eeeeeeeeeeeeeeeeeeeeeeeeeeeeeeeeeeeeeeee146133965760008091604051602081019063313ce56760e01b82526004815261336660248261238a565b51915afa613372612aae565b9015613396576020818051810103126102e7576020015160ff811681036102e75790565b50601290565b60405163d0f18f8560e01b815260206004820152906133d261272c6133c18380612575565b6040602487015260648601916125a9565b60231983830301604484015280358252602081013560208301526001600160401b03613400604083016125e1565b1660408301526001600160401b0361341a606083016125e1565b166060830152368190036080820135605e1982018112156102e757826134a4910160c060808601526134916134866134676134558480612627565b606060c08b01526101208a0191612658565b6134746020850185612627565b89830360bf190160e08b015290612658565b916040810190612627565b86830360bf190161010088015290612658565b9260a083013591601e19018212156102e757602093846134d56134e29388968796019060a081860391015280612627565b9190928181520191612658565b03817307ad8508c9173dc845817472ca0484035abfa3c85afa90811561298857600091612954575090565b604080519092613572926001600160a01b0316906000908190613530878661238a565b602085527f5361666545524332303a206c6f772d6c6576656c2063616c6c206661696c6564602086015260208151910182855af161356c612aae565b91613601565b80519081159182156135df575b5050156135895750565b5162461bcd60e51b815260206004820152602a60248201527f5361666545524332303a204552433230206f7065726174696f6e20646964206e6044820152691bdd081cdd58d8d9595960b21b6064820152608490fd5b81925090602091810103126102e75760206135fa9101612568565b388061357f565b919290156136635750815115613615575090565b3b1561361e5790565b60405162461bcd60e51b815260206004820152601d60248201527f416464726573733a2063616c6c20746f206e6f6e2d636f6e74726163740000006044820152606490fd5b8251909150156136765750805190602001fd5b60405162461bcd60e51b81526020600482015290819061369a906024830190612472565b0390fdfef77760ceddce4a3a170fa31963b77278881354d54a4f7ccb5ba9105f380020e71652cc28ba3792fbe6d62b3b6f1056b42a3e1e524dcea338b3ab5b2a62f9bed9f652222313e28459528d920b65115c16c04f3efc82aaedc97be59f3f377c0d3fa264697066735822122087c8cce58c6c9437bd264f7c9fcdad9f4577b6e67a60ee168b244626c406ca4064736f6c634300081c0033",
  "linkReferences": {},
  "deployedLinkReferences": {}
}