{
  "_format": "hh-sol-artifact-1",
  "contractName": "FlightTicket",
  "sourceName": "contracts/FlightTicket.sol",
  "abi": [
    {
      "inputs": [],
      "stateMutability": "nonpayable",
      "type": "constructor"
    },
    {
      "inputs": [],
      "name": "FlightTicket__CanOnlyRefundPayer",
      "type": "error"
    },
    {
      "inputs": [],
      "name": "FlightTicket__DateisLessThanCurrentTime",
      "type": "error"
    },
    {
      "inputs": [],
      "name": "FlightTicket__FlightAlreadyExists",
      "type": "error"
    },
    {
      "inputs": [],
      "name": "FlightTicket__FlightNotFound",
      "type": "error"
    },
    {
      "inputs": [],
      "name": "FlightTicket__IncorrectETHAmount",
      "type": "error"
    },
    {
      "inputs": [],
      "name": "FlightTicket__InvalidJsonProof",
      "type": "error"
    },
    {
      "inputs": [],
      "name": "FlightTicket__PriceNotAvailable",
      "type": "error"
    },
    {
      "inputs": [],
      "name": "FlightTicket__RandomNumberNotSecure",
      "type": "error"
    },
    {
      "inputs": [],
      "name": "FlightTicket__SendingFailed",
      "type": "error"
    },
    {
      "inputs": [],
      "name": "FlightTicket__TicketAlreadyRefunded",
      "type": "error"
    },
    {
      "inputs": [],
      "name": "FlightTicket__TicketNotExpired",
      "type": "error"
    },
    {
      "inputs": [],
      "name": "FlightTicket__TokenNotSupported",
      "type": "error"
    },
    {
      "anonymous": false,
      "inputs": [
        {
          "indexed": false,
          "internalType": "uint256",
          "name": "id",
          "type": "uint256"
        },
        {
          "indexed": false,
          "internalType": "string",
          "name": "route",
          "type": "string"
        },
        {
          "indexed": false,
          "internalType": "uint256",
          "name": "date",
          "type": "uint256"
        },
        {
          "indexed": false,
          "internalType": "uint256",
          "name": "amountPaid",
          "type": "uint256"
        }
      ],
      "name": "FlightCreated",
      "type": "event"
    },
    {
      "anonymous": false,
      "inputs": [
        {
          "indexed": false,
          "internalType": "uint256",
          "name": "ticketId",
          "type": "uint256"
        },
        {
          "indexed": false,
          "internalType": "uint256",
          "name": "flightId",
          "type": "uint256"
        },
        {
          "indexed": false,
          "internalType": "string",
          "name": "route",
          "type": "string"
        },
        {
          "indexed": false,
          "internalType": "uint256",
          "name": "date",
          "type": "uint256"
        },
        {
          "indexed": false,
          "internalType": "string",
          "name": "weatherCondition",
          "type": "string"
        },
        {
          "indexed": false,
          "internalType": "string",
          "name": "refundStatus",
          "type": "string"
        },
        {
          "indexed": false,
          "internalType": "uint256",
          "name": "amountPaid",
          "type": "uint256"
        },
        {
          "indexed": false,
          "internalType": "address",
          "name": "payer",
          "type": "address"
        }
      ],
      "name": "FlightTicketPurchased",
      "type": "event"
    },
    {
      "anonymous": false,
      "inputs": [
        {
          "indexed": false,
          "internalType": "uint256",
          "name": "ticketId",
          "type": "uint256"
        },
        {
          "indexed": false,
          "internalType": "uint256",
          "name": "flightId",
          "type": "uint256"
        },
        {
          "indexed": false,
          "internalType": "string",
          "name": "route",
          "type": "string"
        },
        {
          "indexed": false,
          "internalType": "uint256",
          "name": "date",
          "type": "uint256"
        },
        {
          "indexed": false,
          "internalType": "string",
          "name": "weatherCondition",
          "type": "string"
        },
        {
          "indexed": false,
          "internalType": "string",
          "name": "refundStatus",
          "type": "string"
        },
        {
          "indexed": false,
          "internalType": "uint256",
          "name": "amountPaid",
          "type": "uint256"
        },
        {
          "indexed": false,
          "internalType": "address",
          "name": "recipient",
          "type": "address"
        }
      ],
      "name": "FlightTicketWithdrawn",
      "type": "event"
    },
    {
      "anonymous": false,
      "inputs": [
        {
          "indexed": true,
          "internalType": "address",
          "name": "previousOwner",
          "type": "address"
        },
        {
          "indexed": true,
          "internalType": "address",
          "name": "newOwner",
          "type": "address"
        }
      ],
      "name": "OwnershipTransferred",
      "type": "event"
    },
    {
      "inputs": [],
      "name": "FIAT_priceDecimals",
      "outputs": [
        {
          "internalType": "uint256",
          "name": "",
          "type": "uint256"
        }
      ],
      "stateMutability": "view",
      "type": "function"
    },
    {
      "inputs": [],
      "name": "NATIVE_TOKEN",
      "outputs": [
        {
          "internalType": "address",
          "name": "",
          "type": "address"
        }
      ],
      "stateMutability": "view",
      "type": "function"
    },
    {
      "inputs": [],
      "name": "SLIPPAGE_TOLERANCE_BPS",
      "outputs": [
        {
          "internalType": "uint256",
          "name": "",
          "type": "uint256"
        }
      ],
      "stateMutability": "view",
      "type": "function"
    },
    {
      "inputs": [
        {
          "components": [
            {
              "internalType": "int256",
              "name": "latitude",
              "type": "int256"
            },
            {
              "internalType": "int256",
              "name": "longitude",
              "type": "int256"
            },
            {
              "internalType": "string",
              "name": "description",
              "type": "string"
            },
            {
              "internalType": "int256",
              "name": "temperature",
              "type": "int256"
            },
            {
              "internalType": "int256",
              "name": "minTemp",
              "type": "int256"
            },
            {
              "internalType": "uint256",
              "name": "windSpeed",
              "type": "uint256"
            },
            {
              "internalType": "uint256",
              "name": "windDeg",
              "type": "uint256"
            }
          ],
          "internalType": "struct FlightTicket.DataTransportObject",
          "name": "dto",
          "type": "tuple"
        }
      ],
      "name": "abiSignatureHack",
      "outputs": [],
      "stateMutability": "pure",
      "type": "function"
    },
    {
      "inputs": [
        {
          "internalType": "string",
          "name": "_route",
          "type": "string"
        },
        {
          "internalType": "uint256",
          "name": "_date",
          "type": "uint256"
        },
        {
          "internalType": "uint256",
          "name": "_amountInUsd",
          "type": "uint256"
        }
      ],
      "name": "createFlight",
      "outputs": [],
      "stateMutability": "nonpayable",
      "type": "function"
    },
    {
      "inputs": [
        {
          "internalType": "uint256",
          "name": "",
          "type": "uint256"
        }
      ],
      "name": "flights",
      "outputs": [
        {
          "internalType": "uint256",
          "name": "id",
          "type": "uint256"
        },
        {
          "internalType": "string",
          "name": "route",
          "type": "string"
        },
        {
          "internalType": "uint256",
          "name": "date",
          "type": "uint256"
        },
        {
          "internalType": "uint256",
          "name": "amountInUsd",
          "type": "uint256"
        }
      ],
      "stateMutability": "view",
      "type": "function"
    },
    {
      "inputs": [
        {
          "internalType": "uint256",
          "name": "_flightId",
          "type": "uint256"
        }
      ],
      "name": "getFlightDetails",
      "outputs": [
        {
          "internalType": "uint256",
          "name": "flightId",
          "type": "uint256"
        },
        {
          "internalType": "string",
          "name": "route",
          "type": "string"
        },
        {
          "internalType": "uint256",
          "name": "date",
          "type": "uint256"
        },
        {
          "internalType": "uint256",
          "name": "amountPaid",
          "type": "uint256"
        }
      ],
      "stateMutability": "view",
      "type": "function"
    },
    {
      "inputs": [
        {
          "internalType": "address",
          "name": "token",
          "type": "address"
        },
        {
          "internalType": "uint256",
          "name": "amountInUsd",
          "type": "uint256"
        }
      ],
      "name": "getUsdToTokenPrice",
      "outputs": [
        {
          "internalType": "uint256",
          "name": "",
          "type": "uint256"
        }
      ],
      "stateMutability": "view",
      "type": "function"
    },
    {
      "inputs": [],
      "name": "owner",
      "outputs": [
        {
          "internalType": "address",
          "name": "",
          "type": "address"
        }
      ],
      "stateMutability": "view",
      "type": "function"
    },
    {
      "inputs": [
        {
          "internalType": "uint256",
          "name": "flightId",
          "type": "uint256"
        },
        {
          "internalType": "address",
          "name": "token",
          "type": "address"
        }
      ],
      "name": "payForFlight",
      "outputs": [],
      "stateMutability": "payable",
      "type": "function"
    },
    {
      "inputs": [
        {
          "internalType": "uint256",
          "name": "ticketId",
          "type": "uint256"
        },
        {
          "components": [
            {
              "internalType": "bytes32[]",
              "name": "merkleProof",
              "type": "bytes32[]"
            },
            {
              "components": [
                {
                  "internalType": "bytes32",
                  "name": "attestationType",
                  "type": "bytes32"
                },
                {
                  "internalType": "bytes32",
                  "name": "sourceId",
                  "type": "bytes32"
                },
                {
                  "internalType": "uint64",
                  "name": "votingRound",
                  "type": "uint64"
                },
                {
                  "internalType": "uint64",
                  "name": "lowestUsedTimestamp",
                  "type": "uint64"
                },
                {
                  "components": [
                    {
                      "internalType": "string",
                      "name": "url",
                      "type": "string"
                    },
                    {
                      "internalType": "string",
                      "name": "postprocessJq",
                      "type": "string"
                    },
                    {
                      "internalType": "string",
                      "name": "abi_signature",
                      "type": "string"
                    }
                  ],
                  "internalType": "struct IJsonApi.RequestBody",
                  "name": "requestBody",
                  "type": "tuple"
                },
                {
                  "components": [
                    {
                      "internalType": "bytes",
                      "name": "abi_encoded_data",
                      "type": "bytes"
                    }
                  ],
                  "internalType": "struct IJsonApi.ResponseBody",
                  "name": "responseBody",
                  "type": "tuple"
                }
              ],
              "internalType": "struct IJsonApi.Response",
              "name": "data",
              "type": "tuple"
            }
          ],
          "internalType": "struct IJsonApi.Proof",
          "name": "_proof",
          "type": "tuple"
        }
      ],
      "name": "refundTicket",
      "outputs": [],
      "stateMutability": "nonpayable",
      "type": "function"
    },
    {
      "inputs": [],
      "name": "renounceOwnership",
      "outputs": [],
      "stateMutability": "nonpayable",
      "type": "function"
    },
    {
      "inputs": [
        {
          "internalType": "uint256",
          "name": "",
          "type": "uint256"
        }
      ],
      "name": "tickets",
      "outputs": [
        {
          "internalType": "uint256",
          "name": "ticketId",
          "type": "uint256"
        },
        {
          "internalType": "uint256",
          "name": "flightId",
          "type": "uint256"
        },
        {
          "internalType": "string",
          "name": "route",
          "type": "string"
        },
        {
          "internalType": "uint256",
          "name": "date",
          "type": "uint256"
        },
        {
          "internalType": "string",
          "name": "weatherCondition",
          "type": "string"
        },
        {
          "internalType": "string",
          "name": "refundStatus",
          "type": "string"
        },
        {
          "internalType": "uint256",
          "name": "amountInUsd",
          "type": "uint256"
        },
        {
          "internalType": "address",
          "name": "payer",
          "type": "address"
        },
        {
          "internalType": "address",
          "name": "token",
          "type": "address"
        },
        {
          "internalType": "bool",
          "name": "isWithdrawn",
          "type": "bool"
        }
      ],
      "stateMutability": "view",
      "type": "function"
    },
    {
      "inputs": [
        {
          "internalType": "address",
          "name": "",
          "type": "address"
        }
      ],
      "name": "tokenToFeedId",
      "outputs": [
        {
          "internalType": "bytes21",
          "name": "",
          "type": "bytes21"
        }
      ],
      "stateMutability": "view",
      "type": "function"
    },
    {
      "inputs": [
        {
          "internalType": "address",
          "name": "newOwner",
          "type": "address"
        }
      ],
      "name": "transferOwnership",
      "outputs": [],
      "stateMutability": "nonpayable",
      "type": "function"
    },
    {
      "inputs": [
        {
          "internalType": "uint256",
          "name": "_ticketId",
          "type": "uint256"
        }
      ],
      "name": "withdraw",
      "outputs": [],
      "stateMutability": "nonpayable",
      "type": "function"
    }
  ],
  "bytecode": "0x608080604052346102575760008054336001600160a01b0319821681178355916001600160a01b03909116907f8be0079c531659141344cd1fd0a4f28419497f9722a3daafe3b4186f6b6457e09080a360018055600480546001600160a81b031916665193148bd554d1606a1b1790556020818101908152600e60408301526d2930b73237b6a73ab6b132b92b1960911b6060808401919091528252906100a760808261025c565b51902060405190630ac9aa5160e11b8252600482015260208160248173ad67fe66660fb8dfe9d6b1b4240d8650e30f60195afa90811561022c57600091610238575b5060018060a01b031660018060a01b031960025416176002556040516020810190602082526006604082015265233a39b7ab1960d11b60608201526060815261013360808261025c565b51902060405190630ac9aa5160e11b8252600482015260208160248173ad67fe66660fb8dfe9d6b1b4240d8650e30f60195afa90811561022c576000916101fd575b50600380546001600160a01b0319166001600160a01b039290921691909117905573eeeeeeeeeeeeeeeeeeeeeeeeeeeeeeeeeeeeeeee60005260056020527fa1829a9003092132f585b6ccdd167c19fe9774dbdea4260287e8a8e8ca8185d780546001600160a81b031916665193148bd554d1606a1b179055604051611eab90816102b58239f35b61021f915060203d602011610225575b610217818361025c565b810190610295565b38610175565b503d61020d565b6040513d6000823e3d90fd5b610251915060203d60201161022557610217818361025c565b386100e9565b600080fd5b601f909101601f19168101906001600160401b0382119082101761027f57604052565b634e487b7160e01b600052604160045260246000fd5b9081602091031261025757516001600160a01b0381168103610257579056fe6080604052600436101561001257600080fd5b60003560e01c806315ccf70f1461163957806318535008146115c85780632e1a7d4d146113af57806331f7d9641461138057806350b447121461129957806365a544451461124e578063715018a6146111f55780637597805f14610a985780638da5cb5b14610a6f5780639fb6ef2e14610a40578063ada91af014610435578063e321e25f14610402578063e47ffee5146101d0578063e9e7a710146101b4578063f11cddf6146101985763f2fde38b146100cc57600080fd5b34610193576020366003190112610193576100e5611823565b6100ed611a53565b6001600160a01b0316801561013f57600080546001600160a01b03198116831782556001600160a01b0316907f8be0079c531659141344cd1fd0a4f28419497f9722a3daafe3b4186f6b6457e09080a3005b60405162461bcd60e51b815260206004820152602660248201527f4f776e61626c653a206e6577206f776e657220697320746865207a65726f206160448201526564647265737360d01b6064820152608490fd5b600080fd5b3461019357600036600319011261019357602060405160c88152f35b3461019357600036600319011261019357602060405160648152f35b34610193576060366003190112610193576004356001600160401b03811161019357610200903690600401611854565b6024359060443561020f611a53565b610217611b4e565b904284106103f1576040519361022c856116bd565b82855260208501948486526040810182815260608201908482528560005260076020526040600020925183556001830197519788516001600160401b0381116103db576102798254611683565b601f8111610393575b506020601f8211600114610302579181600394926102f299989796947f6e86888f6dd2568a918c94a4d4fcb46ef42bde66f00f4cea5372e2a3296f598c9d6000926102f7575b50508160011b9160001990871b1c19161790555b51600284015551910155604051948594856117fa565b0390a1005b015190508d806102c8565b601f1982169a83600052816000209b60005b81811061037b5750927f6e86888f6dd2568a918c94a4d4fcb46ef42bde66f00f4cea5372e2a3296f598c9c6102f29a9998979593600193836003999710610363575b505050811b0190556102dc565b015160001983891b60f8161c191690558d8080610356565b838301518e556001909d019c60209384019301610314565b826000526020600020601f830160051c810191602084106103d1575b601f0160051c01905b8181106103c55750610282565b600081556001016103b8565b90915081906103af565b634e487b7160e01b600052604160045260246000fd5b630c989dd360e21b60005260046000fd5b34610193576020366003190112610193576004356001600160401b0381116101935760e090600319903603011261019357005b34610193576040366003190112610193576024356004356001600160401b03821161019357813603604060031982011261019357610471611aab565b60405163d0f18f8560e01b815260206004820152836004013560221983018112156101935784016024600482013591016001600160401b038211610193578160051b9182360382136101935760406024850152606484018190526001600160fb1b03106101935781906084840137810160248501359260c219018312156101935784830160231960848484030101604484015260048101356084830152602481013560a48301526001600160401b0361052c60448301611c5e565b1660c48301526001600160401b0361054660648301611c5e565b1660e48301526084810135906003198136030191605e198301811215610193576004826105dd92010160c06101048601526105c96105be61059d61058a8480611c72565b60606101448b01526101a48a0191611ca3565b6105aa6020850185611c72565b610143198a8403016101648b015290611ca3565b916040810190611c72565b610143198784030161018488015290611ca3565b9260a482013592601e1901831215610193576020938461061761062493600489979688970101906101246083198287030191015280611c72565b9190928181520191611ca3565b03817307ad8508c9173dc845817472ca0484035abfa3c85afa908115610a34576000916109fa575b50156109e95781600052600660205260406000206040519161066d836116d8565b815483526001820154926020810193845261068a60028401611715565b9360408201948552600384015491606081019283526106ab60048601611715565b60808201526106bc60058601611715565b60a082015260068501549360c08201948552600860018060a01b036007880154169660e0840197885201549560ff61012061010085019460018060a01b038a168652019760a01c1615158752845142116109d857516001600160a01b031633036109c7576000980160a481013560221936839003018112156109bf576004910101803590601e19813603018212156109bf5701948535956001600160401b0387116109bf57602081019680360388136109c3578101966020828903126109c35735906001600160401b0382116109c357019560e0878203126109bf576040519060e082018281106001600160401b038211176109ab5760405260208801358252604088013560208301526060880135906001600160401b0382116109a75760c0916020806107ee9301918b0101611854565b97604083019889528b80608083013580606087015260a08401359586608082015260e086860135958660a08401520135958691015213938461099d575b505082610993575b5081610989575b5061097a575161096b57868852600660205260408820600801805460ff60a01b1916600160a01b179055516001600160a01b031673eeeeeeeeeeeeeeeeeeeeeeeeeeeeeeeeeeeeeeee810361093b5750868080808651335af161089b61189b565b501561092c5792600080516020611e568339815191529594926108e56108f8936040965b5195519051935192519587519889526020890152610100878901526101008801906117b9565b91606087015285820360808701526117b9565b90671499599d5b99195960c21b6020858403938460a088015260088152015260c08401523360e08401520190a16001805580f35b634ac1463d60e01b8752600487fd5b926108e56108f89360409693610966600080516020611e568339815191529a99978551903390611b01565b6108bf565b63015cd58b60e51b8852600488fd5b636135756560e01b8952600489fd5b905015158a61083a565b151591508b610833565b1292508b8d61082b565b8b80fd5b634e487b7160e01b8c52604160045260248cfd5b8980fd5b8a80fd5b630b04b98b60e11b60005260046000fd5b634574b67d60e11b60005260046000fd5b631ee57f6d60e21b60005260046000fd5b90506020813d602011610a2c575b81610a15602093836116f4565b8101031261019357610a2690611b41565b8461064c565b3d9150610a08565b6040513d6000823e3d90fd5b34610193576040366003190112610193576020610a67610a5e611823565b602435906118ef565b604051908152f35b34610193576000366003190112610193576000546040516001600160a01b039091168152602090f35b6040366003190112610193576024356001600160a01b0381169081810361019357610ac1611aab565b6004356000526007602052604060002090600360405192610ae1846116bd565b80548452610af160018201611715565b602085015260028101546040850152015460608301528151156111e4576060820151610b1c916118ef565b6126488102811591808204612648148317156111ce576127d88102928184046127d81417156111ce5773eeeeeeeeeeeeeeeeeeeeeeeeeeeeeeeeeeeeeeee850361118b57506127109004341090811561117d575b5061116c575b610b7e611b4e565b600435600090815260076020526040908190206002810154606085015192519295939493600190920191610bb1846116d8565b858452610bc660208501936004358552611715565b91604085019283526060850152602096604051610be389826116f4565b600081526080860152604051610bf989826116f4565b6000815260a086015260c08501523360e08501526101008401526000610120840152846000526006865260406000209183518355516001830155518051906001600160401b0382116103db578190610c546002850154611683565b601f811161111b575b508790601f83116001146110af576000926110a4575b50508160011b916000199060031b1c19161760028201555b606082015160038201556004810160808301518051906001600160401b0382116103db578190610cbb8454611683565b601f8111611053575b508890601f8311600114610fee57600092610fe3575b50508160011b916000199060031b1c19161790555b6005810160a08301518051906001600160401b0382116103db57610d138354611683565b601f8111610f9d575b508790601f8311600114610f2f579180600894926101209694600092610f24575b50508160011b916000199060031b1c19161790555b60c0840151600682015560e0840151600780830180546001600160a01b0319166001600160a01b039384161790556101008087015194909301805495909601516001600160a81b0319909516939091169290921792151560a01b60ff60a01b16929092179092556004356000818152838752604080822083835294885280822060020154606090960151815197885287890193909352860192909252600192909201805491939190610e0382611683565b9182610100880152600181169081600014610edd5750600114610e7b575b7f1652cc28ba3792fbe6d62b3b6f1056b42a3e1e524dcea338b3ab5b2a62f9bed9866040878760008c8960608701528584039384608088015282815281850160a0880152015260c08401523360e08401520190a160018055005b600090815286812096929450905b808210610ec357509094508301610120019160007f1652cc28ba3792fbe6d62b3b6f1056b42a3e1e524dcea338b3ab5b2a62f9bed9610e21565b91600187829854610120858a010152019101909591610e89565b60ff19166101208881019190915292151560051b87019092019450600091507f1652cc28ba3792fbe6d62b3b6f1056b42a3e1e524dcea338b3ab5b2a62f9bed99050610e21565b015190508a80610d3d565b90601f1983169184600052896000209260005b8b828210610f8757505092600192859261012098966008989610610f6e575b505050811b019055610d52565b015160001960f88460031b161c191690558a8080610f61565b6001859682939686015181550195019301610f42565b8360005288600020601f840160051c8101918a8510610fd9575b601f0160051c01905b818110610fcd5750610d1c565b60008155600101610fc0565b9091508190610fb7565b015190508880610cda565b60008581528a81209350601f198516905b8b82821061103d575050908460019594939210611024575b505050811b019055610cef565b015160001960f88460031b161c19169055888080611017565b6001859682939686015181550195019301610fff565b9091508360005288600020601f840160051c8101918a851061109a575b90601f859493920160051c01905b81811061108b5750610cc4565b6000815584935060010161107e565b9091508190611070565b015190508780610c73565b6002850160009081528981209350601f198516905b8a8282106111055750509084600195949392106110ec575b505050811b016002820155610c8b565b015160001960f88460031b161c191690558780806110dc565b60018596829396860151815501950193016110c4565b9091506002840160005287600020601f840160051c8101898510611165575b90849392915b601f830160051c82018110611156575050610c5d565b60008155859450600101611140565b508061113a565b6346bd07ef60e01b60005260046000fd5b612710915004341183610b70565b90506111c99150604051906323b872dd60e01b60208301523360248301523060448301526064820152606481526111c36084826116f4565b83611cc4565b610b76565b634e487b7160e01b600052601160045260246000fd5b633e5531ff60e11b60005260046000fd5b346101935760003660031901126101935761120e611a53565b600080546001600160a01b0319811682556001600160a01b03167f8be0079c531659141344cd1fd0a4f28419497f9722a3daafe3b4186f6b6457e08280a3005b34610193576020366003190112610193576001600160a01b0361126f611823565b166000526005602052602060406000205460581b604051906affffffffffffffffffffff19168152f35b346101935760203660031901126101935760043560005260066020526040600020805460018201549160ff6112d060028301611715565b6003830154926113536112e560048301611715565b946113456112f560058501611715565b91600685015497611332600860018060a01b03600789015416970154976040519c8d9c8d5260208d015261014060408d01526101408c01906117b9565b9160608b015289820360808b01526117b9565b9087820360a08901526117b9565b60c086019490945260e08501526001600160a01b03811661010085015260a01c1615156101208301520390f35b3461019357600036600319011261019357602060405173eeeeeeeeeeeeeeeeeeeeeeeeeeeeeeeeeeeeeeee8152f35b34610193576020366003190112610193576004356113cb611a53565b6113d3611aab565b806000526006602052604060002090604051906113ef826116d8565b825482526001830154926020830193845261140c60028201611715565b92604081019384526003820154916060820192835261142d60048201611715565b956080830196875261144160058301611715565b9260a08101938452610120600860068501549460c0840195865260018060a01b0360078201541660e085015201549160ff61010082019360018060a01b038116855260a01c16151591829101526115b757845142116109d8576000868152600660205260409020600801805460ff60a01b1916600160a01b179055516001600160a01b031673eeeeeeeeeeeeeeeeeeeeeeeeeeeeeeeeeeeeeeee8103611589575060008080808551335af16114f461189b565b501561157857600080516020611e568339815191529661156393611542611555935b519851965192519151945196604051998a998a5260208a015261010060408a01526101008901906117b9565b91606088015286820360808801526117b9565b9084820360a08601526117b9565b9060c08301523360e08301520390a160018055005b634ac1463d60e01b60005260046000fd5b9661156393611542611555936115b2600080516020611e568339815191529b8751903390611b01565b611516565b63015cd58b60e51b60005260046000fd5b346101935760203660031901126101935760043560005260076020526040600020604051906115f6826116bd565b8054825261163561160960018301611715565b9283602082015260036002840154938460408401520154908160608201525192604051948594856117fa565b0390f35b346101935760203660031901126101935760043560005260076020526040600020805461163561166b60018401611715565b926003600282015491015490604051948594856117fa565b90600182811c921680156116b3575b602083101461169d57565b634e487b7160e01b600052602260045260246000fd5b91607f1691611692565b608081019081106001600160401b038211176103db57604052565b61014081019081106001600160401b038211176103db57604052565b90601f801991011681019081106001600160401b038211176103db57604052565b906040519182600082549261172984611683565b80845293600181169081156117975750600114611750575b5061174e925003836116f4565b565b90506000929192526020600020906000915b81831061177b57505090602061174e9282010138611741565b6020919350806001915483858901015201910190918492611762565b90506020925061174e94915060ff191682840152151560051b82010138611741565b919082519283825260005b8481106117e5575050826000602080949584010152601f8019910116010190565b806020809284010151828286010152016117c4565b90606092611819919695949683526080602084015260808301906117b9565b9460408201520152565b600435906001600160a01b038216820361019357565b6001600160401b0381116103db57601f01601f191660200190565b81601f820112156101935780359061186b82611839565b9261187960405194856116f4565b8284526020838301011161019357816000926020809301838601378301015290565b3d156118c6573d906118ac82611839565b916118ba60405193846116f4565b82523d6000602084013e565b606090565b818102929181159184041417156111ce57565b60ff16604d81116111ce57600a0a90565b6001600160a01b03811660009081526005602052604090205460581b6affffffffffffffffffffff1916908115611a42576003546040516349f4fc0360e11b81526004810193909352606090839060249082906001600160a01b03165afa908115610a345760009283926119e0575b5082156119cf578160000b91600083126000146119b45750607f1982146111ce576119a06119a66064956119a061199b6119af9660000395611bdf565b6118de565b906118cb565b9160ff166118de565b040490565b6119af92506119a66064956119a061199b6119a09495611bdf565b63029a052f60e11b60005260046000fd5b929091506060833d606011611a3a575b816119fd606093836116f4565b81010312611a335782519060208401519384820b8503611a3657604001516001600160401b03811603611a33575091903861195e565b80fd5b5080fd5b3d91506119f0565b633764b62160e21b60005260046000fd5b6000546001600160a01b03163303611a6757565b606460405162461bcd60e51b815260206004820152602060248201527f4f776e61626c653a2063616c6c6572206973206e6f7420746865206f776e65726044820152fd5b600260015414611abc576002600155565b60405162461bcd60e51b815260206004820152601f60248201527f5265656e7472616e637947756172643a207265656e7472616e742063616c6c006044820152606490fd5b60405163a9059cbb60e01b60208201526001600160a01b03909216602483015260448083019390935291815261174e91611b3c6064836116f4565b611cc4565b5190811515820361019357565b60025460405163dbdff2c160e01b815290606090829060049082906001600160a01b03165afa8015610a3457600091600091611b9f575b5015611b8e5790565b636135756560e01b60005260046000fd5b9150506060813d606011611bd7575b81611bbb606093836116f4565b8101031261019357611bd1602082519201611b41565b38611b85565b3d9150611bae565b6001600160a01b03811673eeeeeeeeeeeeeeeeeeeeeeeeeeeeeeeeeeeeeeee14611c585760008091604051602081019063313ce56760e01b825260048152611c286024826116f4565b51915afa611c3461189b565b9015611c5857602081805181010312610193576020015160ff811681036101935790565b50601290565b35906001600160401b038216820361019357565b9035601e19823603018112156101935701602081359101916001600160401b03821161019357813603831361019357565b908060209392818452848401376000828201840152601f01601f1916010190565b604080519092611d29926001600160a01b0316906000908190611ce787866116f4565b602085527f5361666545524332303a206c6f772d6c6576656c2063616c6c206661696c6564602086015260208151910182855af1611d2361189b565b91611db8565b8051908115918215611d96575b505015611d405750565b5162461bcd60e51b815260206004820152602a60248201527f5361666545524332303a204552433230206f7065726174696f6e20646964206e6044820152691bdd081cdd58d8d9595960b21b6064820152608490fd5b8192509060209181010312610193576020611db19101611b41565b3880611d36565b91929015611e1a5750815115611dcc575090565b3b15611dd55790565b60405162461bcd60e51b815260206004820152601d60248201527f416464726573733a2063616c6c20746f206e6f6e2d636f6e74726163740000006044820152606490fd5b825190915015611e2d5750805190602001fd5b60405162461bcd60e51b815260206004820152908190611e519060248301906117b9565b0390fdfeb1b967006961d60fc19fd7d5512942adee29495789c89d9bfaa9d3d80ee7639da2646970667358221220146e4f10f3959ead1a3303c1d5fe5c4f1fbd2420a6dba2759570bf5b1103466f64736f6c634300081c0033",
  "linkReferences": {},
  "deployedLinkReferences": {}
}