{
  "_format": "hh-sol-artifact-1",
  "contractName": "FlightTicket",
  "sourceName": "contracts/FlightTicket.sol",
  "abi": [
    {
      "inputs": [],
      "stateMutability": "nonpayable",
      "type": "constructor"
    },
    {
      "inputs": [
        {
          "internalType": "address",
          "name": "token",
          "type": "address"
        }
      ],
      "name": "FlightTicket__AlreadyPayingWithToken",
      "type": "error"
    },
    {
      "inputs": [],
      "name": "FlightTicket__CanOnlyRefundPayer",
      "type": "error"
    },
    {
      "inputs": [],
      "name": "FlightTicket__DateisLessThanCurrentTime",
      "type": "error"
    },
    {
      "inputs": [],
      "name": "FlightTicket__FlightAlreadyExists",
      "type": "error"
    },
    {
      "inputs": [],
      "name": "FlightTicket__FlightExpired",
      "type": "error"
    },
    {
      "inputs": [],
      "name": "FlightTicket__FlightNotFound",
      "type": "error"
    },
    {
      "inputs": [],
      "name": "FlightTicket__FlightWentSuccessfully",
      "type": "error"
    },
    {
      "inputs": [],
      "name": "FlightTicket__IncorrectETHAmount",
      "type": "error"
    },
    {
      "inputs": [],
      "name": "FlightTicket__InvalidEVMProof",
      "type": "error"
    },
    {
      "inputs": [],
      "name": "FlightTicket__InvalidJsonProof",
      "type": "error"
    },
    {
      "inputs": [],
      "name": "FlightTicket__NotCorrectAmount",
      "type": "error"
    },
    {
      "inputs": [
        {
          "internalType": "address",
          "name": "receiver",
          "type": "address"
        },
        {
          "internalType": "address",
          "name": "contractReceiver",
          "type": "address"
        }
      ],
      "name": "FlightTicket__NotCorrectReceiver",
      "type": "error"
    },
    {
      "inputs": [
        {
          "internalType": "address",
          "name": "sender",
          "type": "address"
        }
      ],
      "name": "FlightTicket__NotSender",
      "type": "error"
    },
    {
      "inputs": [],
      "name": "FlightTicket__PriceNotAvailable",
      "type": "error"
    },
    {
      "inputs": [],
      "name": "FlightTicket__RandomNumberNotSecure",
      "type": "error"
    },
    {
      "inputs": [],
      "name": "FlightTicket__SendingFailed",
      "type": "error"
    },
    {
      "inputs": [],
      "name": "FlightTicket__TicketAlreadyRefunded",
      "type": "error"
    },
    {
      "inputs": [],
      "name": "FlightTicket__TicketNotExpired",
      "type": "error"
    },
    {
      "inputs": [],
      "name": "FlightTicket__TicketNotSameAsData",
      "type": "error"
    },
    {
      "inputs": [
        {
          "internalType": "address",
          "name": "token",
          "type": "address"
        }
      ],
      "name": "FlightTicket__TokenAlreadySupported",
      "type": "error"
    },
    {
      "inputs": [
        {
          "internalType": "address",
          "name": "token",
          "type": "address"
        }
      ],
      "name": "FlightTicket__TokenNotSupported",
      "type": "error"
    },
    {
      "inputs": [],
      "name": "FlightTicket__TransactionAlreadyProcessed",
      "type": "error"
    },
    {
      "inputs": [],
      "name": "FlightTicket__UrlNotSupported",
      "type": "error"
    },
    {
      "anonymous": false,
      "inputs": [
        {
          "indexed": false,
          "internalType": "uint256",
          "name": "id",
          "type": "uint256"
        },
        {
          "indexed": false,
          "internalType": "string",
          "name": "route",
          "type": "string"
        },
        {
          "indexed": false,
          "internalType": "uint256",
          "name": "date",
          "type": "uint256"
        },
        {
          "indexed": false,
          "internalType": "uint256",
          "name": "amountPaid",
          "type": "uint256"
        }
      ],
      "name": "FlightCreated",
      "type": "event"
    },
    {
      "anonymous": false,
      "inputs": [
        {
          "indexed": false,
          "internalType": "uint256",
          "name": "ticketId",
          "type": "uint256"
        },
        {
          "indexed": false,
          "internalType": "uint256",
          "name": "flightId",
          "type": "uint256"
        },
        {
          "indexed": false,
          "internalType": "string",
          "name": "route",
          "type": "string"
        },
        {
          "indexed": false,
          "internalType": "uint256",
          "name": "date",
          "type": "uint256"
        },
        {
          "indexed": false,
          "internalType": "string",
          "name": "weatherCondition",
          "type": "string"
        },
        {
          "indexed": false,
          "internalType": "string",
          "name": "refundStatus",
          "type": "string"
        },
        {
          "indexed": false,
          "internalType": "uint256",
          "name": "amountPaid",
          "type": "uint256"
        },
        {
          "indexed": false,
          "internalType": "address",
          "name": "payer",
          "type": "address"
        }
      ],
      "name": "FlightTicketPurchased",
      "type": "event"
    },
    {
      "anonymous": false,
      "inputs": [
        {
          "indexed": false,
          "internalType": "uint256",
          "name": "ticketId",
          "type": "uint256"
        },
        {
          "indexed": false,
          "internalType": "uint256",
          "name": "flightId",
          "type": "uint256"
        },
        {
          "indexed": false,
          "internalType": "string",
          "name": "route",
          "type": "string"
        },
        {
          "indexed": false,
          "internalType": "uint256",
          "name": "date",
          "type": "uint256"
        },
        {
          "indexed": false,
          "internalType": "uint256",
          "name": "timestamp",
          "type": "uint256"
        },
        {
          "indexed": false,
          "internalType": "string",
          "name": "weatherCondition",
          "type": "string"
        },
        {
          "indexed": false,
          "internalType": "string",
          "name": "refundStatus",
          "type": "string"
        },
        {
          "indexed": false,
          "internalType": "uint256",
          "name": "amountPaid",
          "type": "uint256"
        },
        {
          "indexed": false,
          "internalType": "address",
          "name": "token",
          "type": "address"
        },
        {
          "indexed": false,
          "internalType": "address",
          "name": "recipient",
          "type": "address"
        }
      ],
      "name": "FlightTicketWithdrawn",
      "type": "event"
    },
    {
      "anonymous": false,
      "inputs": [
        {
          "indexed": true,
          "internalType": "address",
          "name": "previousOwner",
          "type": "address"
        },
        {
          "indexed": true,
          "internalType": "address",
          "name": "newOwner",
          "type": "address"
        }
      ],
      "name": "OwnershipTransferred",
      "type": "event"
    },
    {
      "anonymous": false,
      "inputs": [
        {
          "indexed": false,
          "internalType": "address",
          "name": "token",
          "type": "address"
        },
        {
          "indexed": false,
          "internalType": "bytes21",
          "name": "feedId",
          "type": "bytes21"
        }
      ],
      "name": "TokenAdded",
      "type": "event"
    },
    {
      "anonymous": false,
      "inputs": [
        {
          "indexed": false,
          "internalType": "address",
          "name": "token",
          "type": "address"
        }
      ],
      "name": "TokenRemoved",
      "type": "event"
    },
    {
      "inputs": [],
      "name": "FIAT_priceDecimals",
      "outputs": [
        {
          "internalType": "uint256",
          "name": "",
          "type": "uint256"
        }
      ],
      "stateMutability": "view",
      "type": "function"
    },
    {
      "inputs": [],
      "name": "FLRUSD",
      "outputs": [
        {
          "internalType": "bytes21",
          "name": "",
          "type": "bytes21"
        }
      ],
      "stateMutability": "view",
      "type": "function"
    },
    {
      "inputs": [],
      "name": "NATIVE_TOKEN",
      "outputs": [
        {
          "internalType": "address",
          "name": "",
          "type": "address"
        }
      ],
      "stateMutability": "view",
      "type": "function"
    },
    {
      "inputs": [],
      "name": "SLIPPAGE_TOLERANCE_BPS",
      "outputs": [
        {
          "internalType": "uint256",
          "name": "",
          "type": "uint256"
        }
      ],
      "stateMutability": "view",
      "type": "function"
    },
    {
      "inputs": [],
      "name": "USDCUSD",
      "outputs": [
        {
          "internalType": "bytes21",
          "name": "",
          "type": "bytes21"
        }
      ],
      "stateMutability": "view",
      "type": "function"
    },
    {
      "inputs": [],
      "name": "USDC_FLARE_CONTRACT",
      "outputs": [
        {
          "internalType": "address",
          "name": "",
          "type": "address"
        }
      ],
      "stateMutability": "view",
      "type": "function"
    },
    {
      "inputs": [],
      "name": "USDC_SEPOLIA_CONTRACT",
      "outputs": [
        {
          "internalType": "address",
          "name": "",
          "type": "address"
        }
      ],
      "stateMutability": "view",
      "type": "function"
    },
    {
      "inputs": [
        {
          "internalType": "address",
          "name": "token",
          "type": "address"
        },
        {
          "internalType": "bytes21",
          "name": "feedId",
          "type": "bytes21"
        }
      ],
      "name": "addToken",
      "outputs": [],
      "stateMutability": "nonpayable",
      "type": "function"
    },
    {
      "inputs": [
        {
          "internalType": "string",
          "name": "_route",
          "type": "string"
        },
        {
          "internalType": "uint256",
          "name": "_date",
          "type": "uint256"
        },
        {
          "internalType": "uint256",
          "name": "_amountInUsd",
          "type": "uint256"
        }
      ],
      "name": "createFlight",
      "outputs": [],
      "stateMutability": "nonpayable",
      "type": "function"
    },
    {
      "inputs": [
        {
          "internalType": "uint256",
          "name": "",
          "type": "uint256"
        }
      ],
      "name": "flights",
      "outputs": [
        {
          "internalType": "uint256",
          "name": "id",
          "type": "uint256"
        },
        {
          "internalType": "string",
          "name": "route",
          "type": "string"
        },
        {
          "internalType": "uint256",
          "name": "date",
          "type": "uint256"
        },
        {
          "internalType": "uint256",
          "name": "amountInUsd",
          "type": "uint256"
        }
      ],
      "stateMutability": "view",
      "type": "function"
    },
    {
      "inputs": [
        {
          "internalType": "uint256",
          "name": "_flightId",
          "type": "uint256"
        }
      ],
      "name": "getFlightDetails",
      "outputs": [
        {
          "internalType": "uint256",
          "name": "flightId",
          "type": "uint256"
        },
        {
          "internalType": "string",
          "name": "route",
          "type": "string"
        },
        {
          "internalType": "uint256",
          "name": "date",
          "type": "uint256"
        },
        {
          "internalType": "uint256",
          "name": "amountPaid",
          "type": "uint256"
        }
      ],
      "stateMutability": "view",
      "type": "function"
    },
    {
      "inputs": [
        {
          "internalType": "uint256",
          "name": "flightId",
          "type": "uint256"
        }
      ],
      "name": "getUrlFromFlightId",
      "outputs": [
        {
          "internalType": "string",
          "name": "expectedUrl",
          "type": "string"
        }
      ],
      "stateMutability": "view",
      "type": "function"
    },
    {
      "inputs": [
        {
          "internalType": "address",
          "name": "token",
          "type": "address"
        },
        {
          "internalType": "uint256",
          "name": "amountInUsd",
          "type": "uint256"
        }
      ],
      "name": "getUsdToTokenPrice",
      "outputs": [
        {
          "internalType": "uint256",
          "name": "",
          "type": "uint256"
        }
      ],
      "stateMutability": "view",
      "type": "function"
    },
    {
      "inputs": [],
      "name": "hostName",
      "outputs": [
        {
          "internalType": "string",
          "name": "",
          "type": "string"
        }
      ],
      "stateMutability": "view",
      "type": "function"
    },
    {
      "inputs": [
        {
          "components": [
            {
              "internalType": "bytes32[]",
              "name": "merkleProof",
              "type": "bytes32[]"
            },
            {
              "components": [
                {
                  "internalType": "bytes32",
                  "name": "attestationType",
                  "type": "bytes32"
                },
                {
                  "internalType": "bytes32",
                  "name": "sourceId",
                  "type": "bytes32"
                },
                {
                  "internalType": "uint64",
                  "name": "votingRound",
                  "type": "uint64"
                },
                {
                  "internalType": "uint64",
                  "name": "lowestUsedTimestamp",
                  "type": "uint64"
                },
                {
                  "components": [
                    {
                      "internalType": "bytes32",
                      "name": "transactionHash",
                      "type": "bytes32"
                    },
                    {
                      "internalType": "uint16",
                      "name": "requiredConfirmations",
                      "type": "uint16"
                    },
                    {
                      "internalType": "bool",
                      "name": "provideInput",
                      "type": "bool"
                    },
                    {
                      "internalType": "bool",
                      "name": "listEvents",
                      "type": "bool"
                    },
                    {
                      "internalType": "uint32[]",
                      "name": "logIndices",
                      "type": "uint32[]"
                    }
                  ],
                  "internalType": "struct IEVMTransaction.RequestBody",
                  "name": "requestBody",
                  "type": "tuple"
                },
                {
                  "components": [
                    {
                      "internalType": "uint64",
                      "name": "blockNumber",
                      "type": "uint64"
                    },
                    {
                      "internalType": "uint64",
                      "name": "timestamp",
                      "type": "uint64"
                    },
                    {
                      "internalType": "address",
                      "name": "sourceAddress",
                      "type": "address"
                    },
                    {
                      "internalType": "bool",
                      "name": "isDeployment",
                      "type": "bool"
                    },
                    {
                      "internalType": "address",
                      "name": "receivingAddress",
                      "type": "address"
                    },
                    {
                      "internalType": "uint256",
                      "name": "value",
                      "type": "uint256"
                    },
                    {
                      "internalType": "bytes",
                      "name": "input",
                      "type": "bytes"
                    },
                    {
                      "internalType": "uint8",
                      "name": "status",
                      "type": "uint8"
                    },
                    {
                      "components": [
                        {
                          "internalType": "uint32",
                          "name": "logIndex",
                          "type": "uint32"
                        },
                        {
                          "internalType": "address",
                          "name": "emitterAddress",
                          "type": "address"
                        },
                        {
                          "internalType": "bytes32[]",
                          "name": "topics",
                          "type": "bytes32[]"
                        },
                        {
                          "internalType": "bytes",
                          "name": "data",
                          "type": "bytes"
                        },
                        {
                          "internalType": "bool",
                          "name": "removed",
                          "type": "bool"
                        }
                      ],
                      "internalType": "struct IEVMTransaction.Event[]",
                      "name": "events",
                      "type": "tuple[]"
                    }
                  ],
                  "internalType": "struct IEVMTransaction.ResponseBody",
                  "name": "responseBody",
                  "type": "tuple"
                }
              ],
              "internalType": "struct IEVMTransaction.Response",
              "name": "data",
              "type": "tuple"
            }
          ],
          "internalType": "struct IEVMTransaction.Proof",
          "name": "transaction",
          "type": "tuple"
        }
      ],
      "name": "isEVMTransactionProofValid",
      "outputs": [
        {
          "internalType": "bool",
          "name": "",
          "type": "bool"
        }
      ],
      "stateMutability": "view",
      "type": "function"
    },
    {
      "inputs": [],
      "name": "owner",
      "outputs": [
        {
          "internalType": "address",
          "name": "",
          "type": "address"
        }
      ],
      "stateMutability": "view",
      "type": "function"
    },
    {
      "inputs": [
        {
          "internalType": "uint256",
          "name": "flightId",
          "type": "uint256"
        },
        {
          "internalType": "address",
          "name": "token",
          "type": "address"
        }
      ],
      "name": "payForFlight",
      "outputs": [],
      "stateMutability": "payable",
      "type": "function"
    },
    {
      "inputs": [
        {
          "internalType": "uint256",
          "name": "flightId",
          "type": "uint256"
        },
        {
          "components": [
            {
              "internalType": "bytes32[]",
              "name": "merkleProof",
              "type": "bytes32[]"
            },
            {
              "components": [
                {
                  "internalType": "bytes32",
                  "name": "attestationType",
                  "type": "bytes32"
                },
                {
                  "internalType": "bytes32",
                  "name": "sourceId",
                  "type": "bytes32"
                },
                {
                  "internalType": "uint64",
                  "name": "votingRound",
                  "type": "uint64"
                },
                {
                  "internalType": "uint64",
                  "name": "lowestUsedTimestamp",
                  "type": "uint64"
                },
                {
                  "components": [
                    {
                      "internalType": "bytes32",
                      "name": "transactionHash",
                      "type": "bytes32"
                    },
                    {
                      "internalType": "uint16",
                      "name": "requiredConfirmations",
                      "type": "uint16"
                    },
                    {
                      "internalType": "bool",
                      "name": "provideInput",
                      "type": "bool"
                    },
                    {
                      "internalType": "bool",
                      "name": "listEvents",
                      "type": "bool"
                    },
                    {
                      "internalType": "uint32[]",
                      "name": "logIndices",
                      "type": "uint32[]"
                    }
                  ],
                  "internalType": "struct IEVMTransaction.RequestBody",
                  "name": "requestBody",
                  "type": "tuple"
                },
                {
                  "components": [
                    {
                      "internalType": "uint64",
                      "name": "blockNumber",
                      "type": "uint64"
                    },
                    {
                      "internalType": "uint64",
                      "name": "timestamp",
                      "type": "uint64"
                    },
                    {
                      "internalType": "address",
                      "name": "sourceAddress",
                      "type": "address"
                    },
                    {
                      "internalType": "bool",
                      "name": "isDeployment",
                      "type": "bool"
                    },
                    {
                      "internalType": "address",
                      "name": "receivingAddress",
                      "type": "address"
                    },
                    {
                      "internalType": "uint256",
                      "name": "value",
                      "type": "uint256"
                    },
                    {
                      "internalType": "bytes",
                      "name": "input",
                      "type": "bytes"
                    },
                    {
                      "internalType": "uint8",
                      "name": "status",
                      "type": "uint8"
                    },
                    {
                      "components": [
                        {
                          "internalType": "uint32",
                          "name": "logIndex",
                          "type": "uint32"
                        },
                        {
                          "internalType": "address",
                          "name": "emitterAddress",
                          "type": "address"
                        },
                        {
                          "internalType": "bytes32[]",
                          "name": "topics",
                          "type": "bytes32[]"
                        },
                        {
                          "internalType": "bytes",
                          "name": "data",
                          "type": "bytes"
                        },
                        {
                          "internalType": "bool",
                          "name": "removed",
                          "type": "bool"
                        }
                      ],
                      "internalType": "struct IEVMTransaction.Event[]",
                      "name": "events",
                      "type": "tuple[]"
                    }
                  ],
                  "internalType": "struct IEVMTransaction.ResponseBody",
                  "name": "responseBody",
                  "type": "tuple"
                }
              ],
              "internalType": "struct IEVMTransaction.Response",
              "name": "data",
              "type": "tuple"
            }
          ],
          "internalType": "struct IEVMTransaction.Proof",
          "name": "_transaction",
          "type": "tuple"
        }
      ],
      "name": "payUSDCSepoliaForFlight",
      "outputs": [],
      "stateMutability": "nonpayable",
      "type": "function"
    },
    {
      "inputs": [
        {
          "internalType": "uint256",
          "name": "ticketId",
          "type": "uint256"
        },
        {
          "components": [
            {
              "internalType": "bytes32[]",
              "name": "merkleProof",
              "type": "bytes32[]"
            },
            {
              "components": [
                {
                  "internalType": "bytes32",
                  "name": "attestationType",
                  "type": "bytes32"
                },
                {
                  "internalType": "bytes32",
                  "name": "sourceId",
                  "type": "bytes32"
                },
                {
                  "internalType": "uint64",
                  "name": "votingRound",
                  "type": "uint64"
                },
                {
                  "internalType": "uint64",
                  "name": "lowestUsedTimestamp",
                  "type": "uint64"
                },
                {
                  "components": [
                    {
                      "internalType": "string",
                      "name": "url",
                      "type": "string"
                    },
                    {
                      "internalType": "string",
                      "name": "postprocessJq",
                      "type": "string"
                    },
                    {
                      "internalType": "string",
                      "name": "abi_signature",
                      "type": "string"
                    }
                  ],
                  "internalType": "struct IJsonApi.RequestBody",
                  "name": "requestBody",
                  "type": "tuple"
                },
                {
                  "components": [
                    {
                      "internalType": "bytes",
                      "name": "abi_encoded_data",
                      "type": "bytes"
                    }
                  ],
                  "internalType": "struct IJsonApi.ResponseBody",
                  "name": "responseBody",
                  "type": "tuple"
                }
              ],
              "internalType": "struct IJsonApi.Response",
              "name": "data",
              "type": "tuple"
            }
          ],
          "internalType": "struct IJsonApi.Proof",
          "name": "_proof",
          "type": "tuple"
        }
      ],
      "name": "refundTicket",
      "outputs": [],
      "stateMutability": "nonpayable",
      "type": "function"
    },
    {
      "inputs": [
        {
          "internalType": "address",
          "name": "token",
          "type": "address"
        }
      ],
      "name": "removeToken",
      "outputs": [],
      "stateMutability": "nonpayable",
      "type": "function"
    },
    {
      "inputs": [],
      "name": "renounceOwnership",
      "outputs": [],
      "stateMutability": "nonpayable",
      "type": "function"
    },
    {
      "inputs": [
        {
          "internalType": "string",
          "name": "_hostname",
          "type": "string"
        }
      ],
      "name": "setHostName",
      "outputs": [],
      "stateMutability": "nonpayable",
      "type": "function"
    },
    {
      "inputs": [
        {
          "internalType": "address",
          "name": "_usdcFlareContract",
          "type": "address"
        }
      ],
      "name": "setUSDCFlareContract",
      "outputs": [],
      "stateMutability": "nonpayable",
      "type": "function"
    },
    {
      "inputs": [
        {
          "internalType": "address",
          "name": "_usdcSepoliaContract",
          "type": "address"
        }
      ],
      "name": "setUSDCSepoliaContract",
      "outputs": [],
      "stateMutability": "nonpayable",
      "type": "function"
    },
    {
      "inputs": [
        {
          "internalType": "uint256",
          "name": "",
          "type": "uint256"
        }
      ],
      "name": "tickets",
      "outputs": [
        {
          "internalType": "uint256",
          "name": "ticketId",
          "type": "uint256"
        },
        {
          "internalType": "uint256",
          "name": "flightId",
          "type": "uint256"
        },
        {
          "internalType": "string",
          "name": "route",
          "type": "string"
        },
        {
          "internalType": "uint256",
          "name": "date",
          "type": "uint256"
        },
        {
          "internalType": "string",
          "name": "weatherCondition",
          "type": "string"
        },
        {
          "internalType": "string",
          "name": "refundStatus",
          "type": "string"
        },
        {
          "internalType": "uint256",
          "name": "amountInUsd",
          "type": "uint256"
        },
        {
          "internalType": "uint256",
          "name": "amountSent",
          "type": "uint256"
        },
        {
          "internalType": "address",
          "name": "payer",
          "type": "address"
        },
        {
          "internalType": "address",
          "name": "token",
          "type": "address"
        },
        {
          "internalType": "bool",
          "name": "isWithdrawn",
          "type": "bool"
        }
      ],
      "stateMutability": "view",
      "type": "function"
    },
    {
      "inputs": [
        {
          "internalType": "address",
          "name": "",
          "type": "address"
        }
      ],
      "name": "tokenToFeedId",
      "outputs": [
        {
          "internalType": "bytes21",
          "name": "",
          "type": "bytes21"
        }
      ],
      "stateMutability": "view",
      "type": "function"
    },
    {
      "inputs": [
        {
          "internalType": "address",
          "name": "newOwner",
          "type": "address"
        }
      ],
      "name": "transferOwnership",
      "outputs": [],
      "stateMutability": "nonpayable",
      "type": "function"
    },
    {
      "inputs": [
        {
          "internalType": "uint256",
          "name": "_ticketId",
          "type": "uint256"
        }
      ],
      "name": "withdraw",
      "outputs": [],
      "stateMutability": "nonpayable",
      "type": "function"
    }
  ],
  "bytecode": "0x608080604052346102395760008054336001600160a01b0319821681178355916001600160a01b03909116907f8be0079c531659141344cd1fd0a4f28419497f9722a3daafe3b4186f6b6457e09080a360018055602081019060208252600e60408201526d2930b73237b6a73ab6b132b92b1960911b60608201526060815261008960808261023e565b51902060405190630ac9aa5160e11b8252600482015260208160248173ad67fe66660fb8dfe9d6b1b4240d8650e30f60195afa90811561020e5760009161021a575b5060018060a01b031660018060a01b031960025416176002556040516020810190602082526006604082015265233a39b7ab1960d11b60608201526060815261011560808261023e565b51902060405190630ac9aa5160e11b8252600482015260208160248173ad67fe66660fb8dfe9d6b1b4240d8650e30f60195afa90811561020e576000916101df575b50600380546001600160a01b0319166001600160a01b039290921691909117905573eeeeeeeeeeeeeeeeeeeeeeeeeeeeeeeeeeeeeeee60005260076020527fb2084a3e4595ccf007fb44245853374aaf0de960074375e8e0fb334712e94d0e80546001600160a81b031916665193148bd554d1606a1b1790556040516135fd90816102978239f35b610201915060203d602011610207575b6101f9818361023e565b810190610277565b38610157565b503d6101ef565b6040513d6000823e3d90fd5b610233915060203d602011610207576101f9818361023e565b386100cb565b600080fd5b601f909101601f19168101906001600160401b0382119082101761026157604052565b634e487b7160e01b600052604160045260246000fd5b9081602091031261023957516001600160a01b0381168103610239579056fe608080604052600436101561001357600080fd5b60003560e01c90816301b6c0711461247a575080630538207e1461243757806309f5dc91146123ef57806315ccf70f146123a557806318535008146123385780631c415821146122cd5780632e1a7d4d146120b257806331f7d964146120835780633b21d2ca1461205a57806344891dba14611f9f57806350b4471214611ea95780635fa7b58414611e005780636268481214611dc957806365a5444514611d82578063715018a614611d2957806374b36e0614611d005780637597805f1461163d578063893493711461156f5780638da5cb5b146115465780639fb6ef2e14611517578063ada91af014610f4d578063b9667ff114610623578063df1f3ef7146105fc578063e47ffee5146103e0578063e9e7a710146103c4578063f11cddf6146103a8578063f2fde38b146102e15763fd53d7511461015357600080fd5b346102dc5760203660031901126102dc576004356001600160401b0381116102dc576101839036906004016126f8565b61018b6131d8565b80516001600160401b0381116102c6576101a66006546124c7565b601f8111610259575b50602091601f82116001146101ed579181926000926101e2575b5050600019600383901b1c191660019190911b17600655005b0151905038806101c9565b601f1982169260066000526000805160206135a88339815191529160005b85811061024157508360019510610228575b505050811b01600655005b015160001960f88460031b161c1916905538808061021d565b9192602060018192868501518155019401920161020b565b6006600052601f820160051c6000805160206135a88339815191520190602083106102b0575b601f0160051c6000805160206135a883398151915201905b8181106102a457506101af565b60008155600101610297565b6000805160206135a8833981519152915061027f565b634e487b7160e01b600052604160045260246000fd5b600080fd5b346102dc5760203660031901126102dc576102fa61249d565b6103026131d8565b6001600160a01b0316801561035457600080546001600160a01b03198116831782556001600160a01b0316907f8be0079c531659141344cd1fd0a4f28419497f9722a3daafe3b4186f6b6457e09080a3005b60405162461bcd60e51b815260206004820152602660248201527f4f776e61626c653a206e6577206f776e657220697320746865207a65726f206160448201526564647265737360d01b6064820152608490fd5b346102dc5760003660031901126102dc57602060405160c88152f35b346102dc5760003660031901126102dc57602060405160648152f35b346102dc5760603660031901126102dc576004356001600160401b0381116102dc576104109036906004016126f8565b6024359060443561041f6131d8565b6104276132c6565b904284106105eb576040519361043c85612501565b82855260208501948486526040810182815260608201908482528560005260096020526040600020925183556001830197519788516001600160401b0381116102c65761048982546124c7565b601f81116105a3575b506020601f82116001146105125791816003949261050299989796947f6e86888f6dd2568a918c94a4d4fcb46ef42bde66f00f4cea5372e2a3296f598c9d600092610507575b50508160011b9160001990871b1c19161790555b5160028401555191015560405194859485612645565b0390a1005b015190508d806104d8565b601f1982169a83600052816000209b60005b81811061058b5750927f6e86888f6dd2568a918c94a4d4fcb46ef42bde66f00f4cea5372e2a3296f598c9c6105029a9998979593600193836003999710610573575b505050811b0190556104ec565b015160001983891b60f8161c191690558d8080610566565b838301518e556001909d019c60209384019301610524565b826000526020600020601f830160051c810191602084106105e1575b601f0160051c01905b8181106105d55750610492565b600081556001016105c8565b90915081906105bf565b630c989dd360e21b60005260046000fd5b346102dc5760003660031901126102dc57604051675554d110cbd554d160ba1b8152602090f35b346102dc576106313661266e565b9061063a613230565b602082019061065661064c8385613121565b6080810190613168565b35600052600a60205260ff60406000205416610f3c5761067583612827565b15610f2b5761068961064c83859495613121565b35600052600a6020526040600020600160ff1982541617905560006020925b6106cd6106c26106b88784613121565b60a081019061317d565b610100810190613193565b9050821015610f21576106e66106c26106b88784613121565b831015610f0b576106fd908360051b810190613168565b9460a0863603126102dc576040519160a083018381106001600160401b038211176102c65760405261072e876127c4565b835261073b8688016124b3565b86840190815260408801356001600160401b0381116102dc5788019336601f860112156102dc578435946001600160401b0386116102c6578560051b604051966107878b830189612538565b87528980880191830101913683116102dc578a809101915b838310610efc57505050506040810194855260608901356001600160401b0381116102dc57890136601f820112156102dc576107f560806107e7819336908d813591016126c1565b9b606085019c8d52016127b7565b910152516004546001600160a01b03908116959116859003610eee578351805115908115610e91575b50610e805750505080516000815160011015610e6c57506040015181516001600160a01b03918216969161085e91610855906131c8565b511692516131c8565b51905185818051810103126102dc578501519184600052600986526040600020966040519761088c89612501565b8054895261089c60018201612559565b888a0152600360028201549160408b01928352015460608a0152885115610e5b5742905110610e4a573303610e3557308103610e1d5750606086015111610e0c5780610df7576108ea6132c6565b918360005260098552600160406000200190846000526009865260026040600020015490606088015193604051946109218661251c565b86865261093389870195898752612559565b9360408701948552606087015260405161094d8a82612538565b6000815260808701526040516109638a82612538565b6000815260a087015260c086015260e0850152336101008501526101208401526000610140840152836000526008865260406000209183518355516001830155518051906001600160401b0382116102c65781906109c460028501546124c7565b601f8111610da6575b508790601f8311600114610d3557600092610d2a575b50508160011b916000199060031b1c19161760028201555b6060820151600382015560808201518051906001600160401b0382116102c6578190610a2a60048501546124c7565b601f8111610cd6575b508790601f8311600114610c6557600092610c5a575b50508160011b916000199060031b1c19161760048201555b6005810160a08301518051906001600160401b0382116102c657610a8583546124c7565b601f8111610c14575b508790601f8311600114610b8f576000805160206135888339815191529994610b459484610b7a99989561014095600995600092610b84575b50508160011b916000199060031b1c19161790555b60c0840151600682015560e084015160078201556101008401516008820180546001600160a01b0319166001600160a01b0392831617905561012085015192909101805493909401516001600160a81b031990931691161790151560a01b60ff60a01b16179055565b836000526009855260096001604060002001958560005252606060026040600020015491015190604051958695339487612ee1565b0390a15b60018055005b015190508e80610ac7565b90601f1983169184600052896000209260005b818110610bfd575094600185610140956009956000805160206135888339815191529f9a95610b7a9d9c99610b459b10610be4575b505050811b019055610adc565b015160001960f88460031b161c191690558e8080610bd7565b92938b600181928786015181550195019301610ba2565b8360005288600020601f840160051c8101918a8510610c50575b601f0160051c01905b818110610c445750610a8e565b60008155600101610c37565b9091508190610c2e565b015190508880610a49565b92506004840160005287600020906000935b89601f1985168610610cbd57506001945083601f19811610610ca4575b505050811b016004820155610a61565b015160001960f88460031b161c19169055888080610c94565b8282015184559485019460019093019290910190610c77565b9091506004840160005287600020601f840160051c810191898510610d20575b90601f859493920160051c01905b818110610d115750610a33565b60008155849350600101610d04565b9091508190610cf6565b0151905088806109e3565b92506002840160005287600020906000935b89601f1985168610610d8d57506001945083601f19811610610d74575b505050811b0160028201556109fb565b015160001960f88460031b161c19169055888080610d64565b8282015184559485019460019093019290910190610d47565b9091506002840160005287600020601f840160051c8101898510610df0575b90849392915b601f830160051c82018110610de15750506109cd565b60008155859450600101610dcb565b5080610dc5565b50633320e89560e01b60005260045260246000fd5b6325efd3bd60e01b60005260046000fd5b637449d4dd60e11b6000526004523060245260446000fd5b638fac2ff760e01b6000523360045260246000fd5b6341c5115b60e01b60005260046000fd5b633e5531ff60e11b60005260046000fd5b634e487b7160e01b81526032600452602490fd5b9196509250600191505b01906106a8565b90506000815115610e6c5750870151604051888101907f5472616e7366657228616464726573732c616464726573732c75696e743235368252602960f81b604082015260218152610ee3604182612538565b51902014158961081e565b919650925060019150610e8a565b8235815291810191810161079f565b634e487b7160e01b600052603260045260246000fd5b5050505050610b7e565b6376f162a560e01b60005260046000fd5b633856d1a760e21b60005260046000fd5b346102dc57610f5b3661266e565b90610f64613230565b60405163d0f18f8560e01b815260206004820152610f96610f858480612723565b604060248501526064840191612757565b906020840191610fa6838661277b565b60231983830301604484015280358252602081013560208301526001600160401b03610fd46040830161278f565b1660408301526001600160401b03610fee6060830161278f565b166060830152368190036080820135605e1982018112156102dc5782611078910160c0608086015261106561105a61103b61102984806127d5565b606060c08b01526101208a0191612806565b61104860208501856127d5565b89830360bf190160e08b015290612806565b9160408101906127d5565b86830360bf190161010088015290612806565b9260a083013591601e19018212156102dc57602093846110a96110b69388968796019060a0818603910152806127d5565b9190928181520191612806565b03817307ad8508c9173dc845817472ca0484035abfa3c85afa90811561150b576000916114d1575b50156114c057816000526008602052604060002090604051906111008261251c565b825482526001830154946020830195865261111d60028501612559565b91604084019283526003850154916060850192835261113e60048701612559565b608086015261114f60058701612559565b60a0860152600686015460c086015260078601549060e08601918252600960018060a01b0360088901541697610100880198895201549660ff61014061012089019860018060a01b038b168a52019860a01c1615158852845142106114af57516001600160a01b0316330361149e576111c88382613121565b60a0810135601e19823603018112156102dc576111e6910180613136565b8101906020818303126102dc578035906001600160401b0382116102dc5701916080838303126102dc576040519161121d83612501565b8335835260208401356001600160401b0381116102dc57816112409186016126f8565b936020840194855260408101356001600160401b0381116102dc57826112679183016126f8565b60408501526060810135916001600160401b0383116102dc576112ad9261128e92016126f8565b95606084019687526112a08d51612c80565b6020815191012092613121565b608081013590605e19813603018212156102dc576112d7916112d0910180613136565b36916126c1565b602081519101201461148d575189510361147c575160208151910120956040966007602089516113078b82612538565b82815201664f6e2054696d6560c81b8152201461146b575161145a5760008781526008602052869020600901805460ff60a01b1916600160a01b17905584516001600160a01b031673eeeeeeeeeeeeeeeeeeeeeeeeeeeeeeeeeeeeeeee8103611430575060008080808451335af161137d612c50565b501561141f576113cc6113e593600080516020613568833981519152995b5195519051935192519660018060a01b03905116958851998a5260208a0152610140888a0152610140890190612620565b91606088015242608088015286820360a0880152612620565b91671499599d5b99195960c21b6020868503948560c089015260088152015260e0850152610100840152336101208401520190a160018055005b634ac1463d60e01b60005260046000fd5b6113e593600080516020613568833981519152996114556113cc938551903390613286565b61139b565b63015cd58b60e51b60005260046000fd5b635cd6bbc760e01b60005260046000fd5b63cd50903360e01b60005260046000fd5b6353f076eb60e11b60005260046000fd5b630b04b98b60e11b60005260046000fd5b634574b67d60e11b60005260046000fd5b631ee57f6d60e21b60005260046000fd5b90506020813d602011611503575b816114ec60209383612538565b810103126102dc576114fd90612716565b846110de565b3d91506114df565b6040513d6000823e3d90fd5b346102dc5760403660031901126102dc57602061153e61153561249d565b60243590612fd7565b604051908152f35b346102dc5760003660031901126102dc576000546040516001600160a01b039091168152602090f35b346102dc5760403660031901126102dc5761158861249d565b602435906001600160581b03198216908183036102dc576115a76131d8565b6001600160a01b031660008181526007602052604090205490929060581b6001600160581b03191661162857916040917f925ccaaa3fa7a2492388353d0e7e4300f182bca41fa73d3a646ef322c80f2dd193826000526007602052836000209060581c6001600160581b0360a81b82541617905582519182526020820152a1005b82634e2980a360e11b60005260045260246000fd5b60403660031901126102dc576024356001600160a01b038116908181036102dc57611666613230565b60043560005260096020526040600020906040519161168483612501565b8054835261169460018201612559565b602084015260036002820154916040850192835201546060840152825115610e5b57514211610e4a578260005260076020526001600160581b031960406000205460581b1615611ceb5760608201516116ec91612fd7565b91612648830283159084810461264814821715611cd5576127d88502918583046127d8141715611cd55773eeeeeeeeeeeeeeeeeeeeeeeeeeeeeeeeeeeeeeee8303611c7b5761271090043410908115611c6d575b50611c5c575b61174e6132c6565b60043560005260096020526001604060002001936004356000526009602052600260406000200154606085015193604051926117898461251c565b84845261179e60208501986004358a52612559565b926040850193845260608501526020956040516117bb8882612538565b6000815260808601526040516117d18882612538565b6000815260a086015260c085015260e0840152336101008401526101208301526000610140830152826000526008845260406000209582518755516001870155518051906001600160401b0382116102c657819061183260028901546124c7565b601f8111611c0b575b508590601f8311600114611b9a57600092611b8f575b50508160011b916000199060031b1c19161760028601555b6060810151600386015560808101518051906001600160401b0382116102c657819061189860048901546124c7565b601f8111611b3b575b508590601f8311600114611aca57600092611abf575b50508160011b916000199060031b1c19161760048601555b600585019460a08201519586516001600160401b0381116102c6576118f482546124c7565b601f8111611a79575b5085601f82116001146119f7576119b093610b7a96959383610140946009946000805160206135888339815191529d6000926119ec5750508160011b916000199060031b1c191617905560c0840151600682015560e084015160078201556101008401516008820180546001600160a01b0319166001600160a01b0392831617905561012085015192909101805493909401516001600160a81b031990931691161790151560a01b60ff60a01b16179055565b60043560005260098352600960016040600020019360043560005252606060026040600020015494015160405194859433936004359087612ee1565b015190508d80610ac7565b601f1982169883600052876000209960005b818110611a625750936001846000805160206135888339815191529c6009956119b0999561014098610b7a9d9c9a10611a4957505050811b019055610adc565b015160001960f88460031b161c191690558d8080610bd7565b838301518c556001909b019a928901928901611a09565b8260005286600020601f830160051c810191888410611ab5575b601f0160051c01905b818110611aa957506118fd565b60008155600101611a9c565b9091508190611a93565b0151905087806118b7565b92506004880160005285600020906000935b87601f1985168610611b2257506001945083601f19811610611b09575b505050811b0160048601556118cf565b015160001960f88460031b161c19169055878080611af9565b8282015184559485019460019093019290910190611adc565b9091506004880160005285600020601f840160051c810191878510611b85575b90601f859493920160051c01905b818110611b7657506118a1565b60008155849350600101611b69565b9091508190611b5b565b015190508780611851565b92506002880160005285600020906000935b87601f1985168610611bf257506001945083601f19811610611bd9575b505050811b016002860155611869565b015160001960f88460031b161c19169055878080611bc9565b8282015184559485019460019093019290910190611bac565b9091506002880160005285600020601f840160051c8101878510611c55575b90849392915b601f830160051c82018110611c4657505061183b565b60008155859450600101611c30565b5080611c2a565b6346bd07ef60e01b60005260046000fd5b612710915004341184611740565b505034611cc157611cbc6040516323b872dd60e01b602082015233602482015230604482015284606482015260648152611cb6608482612538565b826133d6565b611746565b633320e89560e01b60005260045260246000fd5b634e487b7160e01b600052601160045260246000fd5b826374d64a4560e01b60005260045260246000fd5b346102dc5760003660031901126102dc576004546040516001600160a01b039091168152602090f35b346102dc5760003660031901126102dc57611d426131d8565b600080546001600160a01b0319811682556001600160a01b03167f8be0079c531659141344cd1fd0a4f28419497f9722a3daafe3b4186f6b6457e08280a3005b346102dc5760203660031901126102dc576001600160a01b03611da361249d565b166000526007602052602060406000205460581b604051906001600160581b0319168152f35b346102dc5760203660031901126102dc57611dfc611de8600435612c80565b604051918291602083526020830190612620565b0390f35b346102dc5760203660031901126102dc57611e1961249d565b611e216131d8565b6001600160a01b031660008181526007602052604090205460581b6001600160581b03191615611e95576020817f4c910b69fe65a61f7531b9c5042b2329ca7179c77290aa7e2eb3afa3c8511fd3926000526007825260406000206001600160581b0360a81b8154169055604051908152a1005b6374d64a4560e01b60005260045260246000fd5b346102dc5760203660031901126102dc5760043560005260086020526040600020805460018201549160028101611edf90612559565b600382015491611ef160048201612559565b92611efe60058301612559565b600683015494600784015492600160a01b60019003600886015416946009015495604051998a998a5260208a01526040890161016090526101608901611f4391612620565b9060608901528781036080890152611f5a91612620565b86810360a0880152611f6b91612620565b9360c086015260e0850152610100840152600160a01b60019003811661012084015260a01c60ff1615156101408301520390f35b346102dc5760003660031901126102dc576040516000600654611fc1816124c7565b80845290600181169081156120365750600114611fe9575b611dfc83611de881850382612538565b600660009081526000805160206135a8833981519152939250905b80821061201c57509091508101602001611de8611fd9565b919260018160209254838588010152019101909291612004565b60ff191660208086019190915291151560051b84019091019150611de89050611fd9565b346102dc5760003660031901126102dc576005546040516001600160a01b039091168152602090f35b346102dc5760003660031901126102dc57602060405173eeeeeeeeeeeeeeeeeeeeeeeeeeeeeeeeeeeeeeee8152f35b346102dc5760203660031901126102dc576004356120ce6131d8565b6120d6613230565b806000526008602052604060002090604051906120f28261251c565b825482526001830154916020810192835261210f60028501612559565b92604082019384526003850154906060830191825261213060048701612559565b956080840196875261214460058201612559565b9160a08501928352600682015460c0860152610140600960078401549360e0880194855260018060a01b0360088201541661010089015201549560ff61012082019760018060a01b038116895260a01c161515918291015261145a57835142106114af576000868152600860205260409020600901805460ff60a01b1916600160a01b17905584516001600160a01b031673eeeeeeeeeeeeeeeeeeeeeeeeeeeeeeeeeeeeeeee810361229f575060008080808551335af1612203612c50565b501561141f57600080516020613568833981519152976122839361225c612275935b51995196519251915194519760018060a01b03905116966040519a8b9a8b5260208b015261014060408b01526101408a0190612620565b91606089015242608089015287820360a0890152612620565b9085820360c0870152612620565b9160e0840152610100830152336101208301520390a160018055005b976122839361225c612275936122c86000805160206135688339815191529c8751903390613286565b612225565b346102dc5760203660031901126102dc576122e661249d565b6122ee6131d8565b600580546001600160a01b0319166001600160a01b03929092169182179055600090815260076020526040902080546001600160a81b031916675554d110cbd554d160621b179055005b346102dc5760203660031901126102dc57600435600052600960205260406000206040519061236682612501565b80548252611dfc61237960018301612559565b928360208201526003600284015493846040840152015490816060820152519260405194859485612645565b346102dc5760203660031901126102dc57600435600052600960205260406000208054611dfc6123d760018401612559565b92600360028201549101549060405194859485612645565b346102dc5760203660031901126102dc576004356001600160401b0381116102dc57604060031982360301126102dc5761242d602091600401612827565b6040519015158152f35b346102dc5760203660031901126102dc5761245061249d565b6124586131d8565b600480546001600160a01b0319166001600160a01b0392909216919091179055005b346102dc5760003660031901126102dc57665193148bd554d160c21b8152602090f35b600435906001600160a01b03821682036102dc57565b35906001600160a01b03821682036102dc57565b90600182811c921680156124f7575b60208310146124e157565b634e487b7160e01b600052602260045260246000fd5b91607f16916124d6565b608081019081106001600160401b038211176102c657604052565b61016081019081106001600160401b038211176102c657604052565b90601f801991011681019081106001600160401b038211176102c657604052565b906040519182600082549261256d846124c7565b80845293600181169081156125db5750600114612594575b5061259292500383612538565b565b90506000929192526020600020906000915b8183106125bf5750509060206125929282010138612585565b60209193508060019154838589010152019101909184926125a6565b90506020925061259294915060ff191682840152151560051b82010138612585565b60005b8381106126105750506000910152565b8181015183820152602001612600565b90602091612639815180928185528580860191016125fd565b601f01601f1916010190565b9060609261266491969594968352608060208401526080830190612620565b9460408201520152565b9060406003198301126102dc5760043591602435906001600160401b0382116102dc5760409082900360031901126102dc5760040190565b6001600160401b0381116102c657601f01601f191660200190565b9291926126cd826126a6565b916126db6040519384612538565b8294818452818301116102dc578281602093846000960137010152565b9080601f830112156102dc57816020612713933591016126c1565b90565b519081151582036102dc57565b9035601e19823603018112156102dc5701602081359101916001600160401b0382116102dc578160051b360383136102dc57565b81835290916001600160fb1b0383116102dc5760209260051b809284830137010190565b903560be19823603018112156102dc570190565b35906001600160401b03821682036102dc57565b9035609e19823603018112156102dc570190565b359081151582036102dc57565b359063ffffffff821682036102dc57565b9035601e19823603018112156102dc5701602081359101916001600160401b0382116102dc5781360383136102dc57565b908060209392818452848401376000828201840152601f01601f1916010190565b604051602081019060208252600f60408201526e233231ab32b934b334b1b0ba34b7b760891b606082015260608152612861608082612538565b51902060405190630ac9aa5160e11b8252600482015260208160248173ad67fe66660fb8dfe9d6b1b4240d8650e30f60195afa90811561150b57600091612c07575b506040516358fbe9e160e01b815260206004820152916128e56128da6128c98380612723565b604060248801526064870191612757565b91602081019061277b565b9060231984820301604485015281358152602082013560208201526001600160401b036129146040840161278f565b1660408201526001600160401b0361292e6060840161278f565b16606082015261294160808301836127a3565b9160c06080830152610160820192803560c084015260208101359061ffff82168092036102dc576129a39160e085015261297d604082016127b7565b1515610100850152612991606082016127b7565b15156101208501526080810190612723565b60a06101408501529384905261018083019360005b818110612be25750505060a081013561011e19823603018112156102dc57019060a08184039101526001600160401b036129f18261278f565b1682526001600160401b03612a086020830161278f565b1660208301526001600160a01b03612a22604083016124b3565b166040830152612a34606082016127b7565b151560608301526001600160a01b03612a4f608083016124b3565b16608083015260a081013560a0830152612a82612a6f60c08301836127d5565b61012060c0860152610120850191612806565b9060e08101359060ff82168092036102dc57612aab90849260e088960152610100810190612723565b9091610100818503910152808352602083019260208260051b82010193836000925b848410612b36575060209795879003958795506001600160a01b031693505050505afa90811561150b57600091612b02575090565b90506020813d602011612b2e575b81612b1d60209383612538565b810103126102dc5761271390612716565b3d9150612b10565b9193956001919395975060208091601f19858203018752612b578a876127a3565b9063ffffffff612b66836127c4565b168152848060a01b03612b7a8484016124b3565b16838201526080612bcb81612bc4612ba9612b986040880188612723565b60a0604089015260a0880191612757565b612bb660608801886127d5565b908783036060890152612806565b94016127b7565b151591015298019401940191889695939491612acd565b90919460208060019263ffffffff612bf98a6127c4565b1681520196019291016129b8565b6020813d602011612c48575b81612c2060209383612538565b81010312612c445751906001600160a01b0382168203612c415750386128a3565b80fd5b5080fd5b3d9150612c13565b3d15612c7b573d90612c61826126a6565b91612c6f6040519384612538565b82523d6000602084013e565b606090565b6000818072184f03e93ff9f4daa797ed6e38ed64bf6a1f0160401b811015612ea8575b50806d04ee2d6d415b85acef8100000000600a921015612e8d575b662386f26fc10000811015612e79575b6305f5e100811015612e68575b612710811015612e59575b6064811015612e4b575b1015612e43575b6001810191600a6021612d22612d0c866126a6565b95612d1a6040519788612538565b8087526126a6565b602086019490601f19013686378501015b60001901916f181899199a1a9b1b9c1cb0b131b232b360811b8282061a8353048015612d6257600a9091612d33565b50506040518092600090600654612d78816124c7565b9060018116908115612e1f5750600114612dcf575b509281612dbf61271395722f6170692f666c696768742f7374617475732f60681b6013969552518093868401906125fd565b010301601f198101835282612538565b90915060066000526000805160206135a88339815191526000905b828210612e01575050820160200190612713612d8d565b60209192939450806001915483858a01015201910185939291612dea565b60ff1916602080870191909152821515909202850190910192506127139050612d8d565b600101612cf7565b606460029104920191612cf0565b61271060049104920191612ce6565b6305f5e10060089104920191612cdb565b662386f26fc1000060109104920191612cce565b6d04ee2d6d415b85acef810000000060209104920191612cbe565b6040925072184f03e93ff9f4daa797ed6e38ed64bf6a1f0160401b90049050600a612ca3565b81810292918115918404141715611cd557565b949695939190855260208501526101006040850152600091805490612f05826124c7565b9182610100880152600181169081600014612f9f5750600114612f61575b505060e0929160409160608601526020858203806080880152600083520160a086015260006020820152019460c084015260018060a01b0316910152565b600090815260208120929350915b818310612f87575050830161012001908060e0612f23565b80546101208488010152602090920191600101612f6f565b60ff19166101208881019190915292151560051b8701909201935082915060e09050612f23565b60ff16604d8111611cd557600a0a90565b6001600160a01b03811660008181526007602052604090205460581b6001600160581b03191691908215611e9557506003546040516349f4fc0360e11b81526004810193909352606090839060249082906001600160a01b03165afa90811561150b5760009283926130c6575b5082156130b5578160000b916000831260001461309a5750607f198214611cd55761308661308c6064956130866130816130959660000395613357565b612fc6565b90612ece565b9160ff16612fc6565b040490565b613095925061308c6064956130866130816130869495613357565b63029a052f60e11b60005260046000fd5b929091506060833d606011613119575b816130e360609383612538565b81010312612c415782519060208401519384820b8503612c4457604001516001600160401b03811603612c415750919038613044565b3d91506130d6565b90359060be19813603018212156102dc570190565b903590601e19813603018212156102dc57018035906001600160401b0382116102dc576020019181360383136102dc57565b903590609e19813603018212156102dc570190565b90359061011e19813603018212156102dc570190565b903590601e19813603018212156102dc57018035906001600160401b0382116102dc57602001918160051b360383136102dc57565b805160021015610f0b5760600190565b6000546001600160a01b031633036131ec57565b606460405162461bcd60e51b815260206004820152602060248201527f4f776e61626c653a2063616c6c6572206973206e6f7420746865206f776e65726044820152fd5b600260015414613241576002600155565b60405162461bcd60e51b815260206004820152601f60248201527f5265656e7472616e637947756172643a207265656e7472616e742063616c6c006044820152606490fd5b60405163a9059cbb60e01b60208201526001600160a01b039092166024830152604480830193909352918152612592916132c1606483612538565b6133d6565b60025460405163dbdff2c160e01b815290606090829060049082906001600160a01b03165afa801561150b57600091600091613317575b50156133065790565b636135756560e01b60005260046000fd5b9150506060813d60601161334f575b8161333360609383612538565b810103126102dc57613349602082519201612716565b386132fd565b3d9150613326565b6001600160a01b03811673eeeeeeeeeeeeeeeeeeeeeeeeeeeeeeeeeeeeeeee146133d05760008091604051602081019063313ce56760e01b8252600481526133a0602482612538565b51915afa6133ac612c50565b90156133d0576020818051810103126102dc576020015160ff811681036102dc5790565b50601290565b60408051909261343b926001600160a01b03169060009081906133f98786612538565b602085527f5361666545524332303a206c6f772d6c6576656c2063616c6c206661696c6564602086015260208151910182855af1613435612c50565b916134ca565b80519081159182156134a8575b5050156134525750565b5162461bcd60e51b815260206004820152602a60248201527f5361666545524332303a204552433230206f7065726174696f6e20646964206e6044820152691bdd081cdd58d8d9595960b21b6064820152608490fd5b81925090602091810103126102dc5760206134c39101612716565b3880613448565b9192901561352c57508151156134de575090565b3b156134e75790565b60405162461bcd60e51b815260206004820152601d60248201527f416464726573733a2063616c6c20746f206e6f6e2d636f6e74726163740000006044820152606490fd5b82519091501561353f5750805190602001fd5b60405162461bcd60e51b815260206004820152908190613563906024830190612620565b0390fdfef77760ceddce4a3a170fa31963b77278881354d54a4f7ccb5ba9105f380020e71652cc28ba3792fbe6d62b3b6f1056b42a3e1e524dcea338b3ab5b2a62f9bed9f652222313e28459528d920b65115c16c04f3efc82aaedc97be59f3f377c0d3fa2646970667358221220d128522c7b932eab019b0ff241f6b4e6833611cedfa59d082baf9eb9f8dc250564736f6c634300081c0033",
  "linkReferences": {},
  "deployedLinkReferences": {}
}