{
  "_format": "hh-sol-artifact-1",
  "contractName": "Helpers",
  "sourceName": "contracts/Helpers.sol",
  "abi": [
    {
      "inputs": [],
      "name": "getFdcHub",
      "outputs": [
        {
          "internalType": "contract IFdcHub",
          "name": "",
          "type": "address"
        }
      ],
      "stateMutability": "view",
      "type": "function"
    },
    {
      "inputs": [],
      "name": "getFdcRequestFeeConfigurations",
      "outputs": [
        {
          "internalType": "contract IFdcRequestFeeConfigurations",
          "name": "",
          "type": "address"
        }
      ],
      "stateMutability": "view",
      "type": "function"
    },
    {
      "inputs": [],
      "name": "getFlareSystemsManager",
      "outputs": [
        {
          "internalType": "contract IFlareSystemsManager",
          "name": "",
          "type": "address"
        }
      ],
      "stateMutability": "view",
      "type": "function"
    },
    {
      "inputs": [],
      "name": "getRelay",
      "outputs": [
        {
          "internalType": "contract IRelay",
          "name": "",
          "type": "address"
        }
      ],
      "stateMutability": "view",
      "type": "function"
    }
  ],
  "bytecode": "0x60808060405234601557610304908161001b8239f35b600080fdfe608080604052600436101561001357600080fd5b60003560e01c90816336993e191461022f57508063a502637b146101d6578063b8f4ba1b146101215763cefddc631461004b57600080fd5b3461011c57600036600319011261011c57604051602081019060208252600560408201526452656c617960d81b60608201526060815261008c608082610277565b51902060405190630ac9aa5160e11b8252600482015260208160248173ad67fe66660fb8dfe9d6b1b4240d8650e30f60195afa8015610110576020916000916100e3575b506040516001600160a01b039091168152f35b6101039150823d8411610109575b6100fb8183610277565b8101906102af565b386100d0565b503d6100f1565b6040513d6000823e3d90fd5b600080fd5b3461011c57600036600319011261011c576040516020810190602082526006604082015265233231a43ab160d11b606082015260608152610163608082610277565b51902060405190630ac9aa5160e11b8252600482015260208160248173ad67fe66660fb8dfe9d6b1b4240d8650e30f60195afa8015610110576020916000916101b957506040516001600160a01b039091168152f35b6101d09150823d8411610109576100fb8183610277565b826100d0565b3461011c57600036600319011261011c57604051602081019060208252601b60408201527f46646352657175657374466565436f6e66696775726174696f6e730000000000606082015260608152610163608082610277565b3461011c57600036600319011261011c576020810190602082526013604082015272233630b932a9bcb9ba32b6b9a6b0b730b3b2b960691b6060820152606081526101636080825b90601f8019910116810190811067ffffffffffffffff82111761029957604052565b634e487b7160e01b600052604160045260246000fd5b9081602091031261011c57516001600160a01b038116810361011c579056fea264697066735822122040f5cb6d9c1e3a77eb753f338776bf71b6be7df7d32df56862e91dd563ce897764736f6c634300081c0033",
  "linkReferences": {},
  "deployedLinkReferences": {}
}