{
  "_format": "hh-sol-artifact-1",
  "contractName": "USDC",
  "sourceName": "contracts/USDC.sol",
  "abi": [
    {
      "inputs": [],
      "stateMutability": "nonpayable",
      "type": "constructor"
    },
    {
      "inputs": [],
      "name": "USDC__MaxSupplyExceeded",
      "type": "error"
    },
    {
      "inputs": [],
      "name": "USDC__NotOwner",
      "type": "error"
    },
    {
      "anonymous": false,
      "inputs": [
        {
          "indexed": true,
          "internalType": "address",
          "name": "owner",
          "type": "address"
        },
        {
          "indexed": true,
          "internalType": "address",
          "name": "spender",
          "type": "address"
        },
        {
          "indexed": false,
          "internalType": "uint256",
          "name": "value",
          "type": "uint256"
        }
      ],
      "name": "Approval",
      "type": "event"
    },
    {
      "anonymous": false,
      "inputs": [
        {
          "indexed": true,
          "internalType": "address",
          "name": "from",
          "type": "address"
        },
        {
          "indexed": true,
          "internalType": "address",
          "name": "to",
          "type": "address"
        },
        {
          "indexed": false,
          "internalType": "uint256",
          "name": "value",
          "type": "uint256"
        }
      ],
      "name": "Transfer",
      "type": "event"
    },
    {
      "inputs": [
        {
          "internalType": "address",
          "name": "owner",
          "type": "address"
        },
        {
          "internalType": "address",
          "name": "spender",
          "type": "address"
        }
      ],
      "name": "allowance",
      "outputs": [
        {
          "internalType": "uint256",
          "name": "",
          "type": "uint256"
        }
      ],
      "stateMutability": "view",
      "type": "function"
    },
    {
      "inputs": [
        {
          "internalType": "address",
          "name": "spender",
          "type": "address"
        },
        {
          "internalType": "uint256",
          "name": "amount",
          "type": "uint256"
        }
      ],
      "name": "approve",
      "outputs": [
        {
          "internalType": "bool",
          "name": "",
          "type": "bool"
        }
      ],
      "stateMutability": "nonpayable",
      "type": "function"
    },
    {
      "inputs": [
        {
          "internalType": "address",
          "name": "account",
          "type": "address"
        }
      ],
      "name": "balanceOf",
      "outputs": [
        {
          "internalType": "uint256",
          "name": "",
          "type": "uint256"
        }
      ],
      "stateMutability": "view",
      "type": "function"
    },
    {
      "inputs": [
        {
          "internalType": "uint256",
          "name": "amount",
          "type": "uint256"
        }
      ],
      "name": "burn",
      "outputs": [],
      "stateMutability": "nonpayable",
      "type": "function"
    },
    {
      "inputs": [],
      "name": "decimals",
      "outputs": [
        {
          "internalType": "uint8",
          "name": "",
          "type": "uint8"
        }
      ],
      "stateMutability": "view",
      "type": "function"
    },
    {
      "inputs": [
        {
          "internalType": "address",
          "name": "spender",
          "type": "address"
        },
        {
          "internalType": "uint256",
          "name": "subtractedValue",
          "type": "uint256"
        }
      ],
      "name": "decreaseAllowance",
      "outputs": [
        {
          "internalType": "bool",
          "name": "",
          "type": "bool"
        }
      ],
      "stateMutability": "nonpayable",
      "type": "function"
    },
    {
      "inputs": [
        {
          "internalType": "address",
          "name": "spender",
          "type": "address"
        },
        {
          "internalType": "uint256",
          "name": "addedValue",
          "type": "uint256"
        }
      ],
      "name": "increaseAllowance",
      "outputs": [
        {
          "internalType": "bool",
          "name": "",
          "type": "bool"
        }
      ],
      "stateMutability": "nonpayable",
      "type": "function"
    },
    {
      "inputs": [
        {
          "internalType": "address",
          "name": "to",
          "type": "address"
        },
        {
          "internalType": "uint256",
          "name": "amount",
          "type": "uint256"
        }
      ],
      "name": "mint",
      "outputs": [],
      "stateMutability": "nonpayable",
      "type": "function"
    },
    {
      "inputs": [],
      "name": "name",
      "outputs": [
        {
          "internalType": "string",
          "name": "",
          "type": "string"
        }
      ],
      "stateMutability": "view",
      "type": "function"
    },
    {
      "inputs": [],
      "name": "symbol",
      "outputs": [
        {
          "internalType": "string",
          "name": "",
          "type": "string"
        }
      ],
      "stateMutability": "view",
      "type": "function"
    },
    {
      "inputs": [],
      "name": "totalSupply",
      "outputs": [
        {
          "internalType": "uint256",
          "name": "",
          "type": "uint256"
        }
      ],
      "stateMutability": "view",
      "type": "function"
    },
    {
      "inputs": [
        {
          "internalType": "address",
          "name": "to",
          "type": "address"
        },
        {
          "internalType": "uint256",
          "name": "amount",
          "type": "uint256"
        }
      ],
      "name": "transfer",
      "outputs": [
        {
          "internalType": "bool",
          "name": "",
          "type": "bool"
        }
      ],
      "stateMutability": "nonpayable",
      "type": "function"
    },
    {
      "inputs": [
        {
          "internalType": "address",
          "name": "from",
          "type": "address"
        },
        {
          "internalType": "address",
          "name": "to",
          "type": "address"
        },
        {
          "internalType": "uint256",
          "name": "amount",
          "type": "uint256"
        }
      ],
      "name": "transferFrom",
      "outputs": [
        {
          "internalType": "bool",
          "name": "",
          "type": "bool"
        }
      ],
      "stateMutability": "nonpayable",
      "type": "function"
    }
  ],
  "bytecode": "0x6080604052346102d8576100116102dd565b6100196102dd565b81516001600160401b0381116101e357600354600181811c911680156102ce575b60208210146101c357601f8111610269575b50602092601f821160011461020457928192936000926101f9575b50508160011b916000199060031b1c1916176003555b80516001600160401b0381116101e357600454600181811c911680156101d9575b60208210146101c357601f811161015e575b50602091601f82116001146100fa579181926000926100ef575b50508160011b916000199060031b1c1916176004555b604051610aa4908161030e8239f35b0151905038806100ca565b601f198216926004600052806000209160005b8581106101465750836001951061012d575b505050811b016004556100e0565b015160001960f88460031b161c1916905538808061011f565b9192602060018192868501518155019401920161010d565b60046000527f8a35acfbc15ff81a39ae7d344fd709f28e8600b4aa8c65c6b64bfe7fe36bd19b601f830160051c810191602084106101b9575b601f0160051c01905b8181106101ad57506100b0565b600081556001016101a0565b9091508190610197565b634e487b7160e01b600052602260045260246000fd5b90607f169061009e565b634e487b7160e01b600052604160045260246000fd5b015190503880610067565b601f198216936003600052806000209160005b8681106102515750836001959610610238575b505050811b0160035561007d565b015160001960f88460031b161c1916905538808061022a565b91926020600181928685015181550194019201610217565b60036000527fc2575a0e9e593c00f959f8c92f12db2869c3395a3b0502d05e2516446f71f85b601f830160051c810191602084106102c4575b601f0160051c01905b8181106102b8575061004c565b600081556001016102ab565b90915081906102a2565b90607f169061003a565b600080fd5b60408051919082016001600160401b038111838210176101e35760405260048252635553444360e01b602083015256fe608080604052600436101561001357600080fd5b60003560e01c90816306fdde031461067c57508063095ea7b31461065657806318160ddd1461063857806323b872dd1461057a578063313ce5671461055e578063395093511461050c57806340c10f191461044e57806342966c681461033757806370a08231146102fd57806395d89b41146101dc578063a457c2d714610135578063a9059cbb146101045763dd62ed3e146100ae57600080fd5b346100ff5760403660031901126100ff576100c7610798565b6100cf6107ae565b6001600160a01b039182166000908152600160209081526040808320949093168252928352819020549051908152f35b600080fd5b346100ff5760403660031901126100ff5761012a610120610798565b60243590336108ef565b602060405160018152f35b346100ff5760403660031901126100ff5761014e610798565b60243590336000526001602052604060002060018060a01b038216600052602052604060002054918083106101895761012a920390336107e7565b60405162461bcd60e51b815260206004820152602560248201527f45524332303a2064656372656173656420616c6c6f77616e63652062656c6f77604482015264207a65726f60d81b6064820152608490fd5b346100ff5760003660031901126100ff5760405160006004548060011c906001811680156102f3575b6020831081146102df578285529081156102c3575060011461026c575b50819003601f01601f191681019067ffffffffffffffff821181831017610256576102528291826040528261074f565b0390f35b634e487b7160e01b600052604160045260246000fd5b905060046000527f8a35acfbc15ff81a39ae7d344fd709f28e8600b4aa8c65c6b64bfe7fe36bd19b6000905b8282106102ad57506020915082010182610222565b6001816020925483858801015201910190610298565b90506020925060ff191682840152151560051b82010182610222565b634e487b7160e01b84526022600452602484fd5b91607f1691610205565b346100ff5760203660031901126100ff576001600160a01b0361031e610798565b1660005260006020526020604060002054604051908152f35b346100ff5760203660031901126100ff5760043533156103ff57336000526000602052604060002054908082106103af57806000923384528360205203604083205580600254036002556040519081527fddf252ad1be2c89b69c2b068fc378daa952ba7f163c4a11628f55a4df523b3ef60203392a3005b60405162461bcd60e51b815260206004820152602260248201527f45524332303a206275726e20616d6f756e7420657863656564732062616c616e604482015261636560f01b6064820152608490fd5b60405162461bcd60e51b815260206004820152602160248201527f45524332303a206275726e2066726f6d20746865207a65726f206164647265736044820152607360f81b6064820152608490fd5b346100ff5760403660031901126100ff57610467610798565b6001600160a01b031660243581156104c7577fddf252ad1be2c89b69c2b068fc378daa952ba7f163c4a11628f55a4df523b3ef6020826104ab6000946002546107c4565b60025584845283825260408420818154019055604051908152a3005b60405162461bcd60e51b815260206004820152601f60248201527f45524332303a206d696e7420746f20746865207a65726f2061646472657373006044820152606490fd5b346100ff5760403660031901126100ff5761012a610528610798565b336000526001602052604060002060018060a01b038216600052602052610557604060002060243590546107c4565b90336107e7565b346100ff5760003660031901126100ff57602060405160128152f35b346100ff5760603660031901126100ff57610593610798565b61059b6107ae565b6001600160a01b03821660009081526001602081815260408084203385529091529091205492604435929184016105d7575b61012a93506108ef565b8284106105f3576105ee8361012a950333836107e7565b6105cd565b60405162461bcd60e51b815260206004820152601d60248201527f45524332303a20696e73756666696369656e7420616c6c6f77616e63650000006044820152606490fd5b346100ff5760003660031901126100ff576020600254604051908152f35b346100ff5760403660031901126100ff5761012a610672610798565b60243590336107e7565b346100ff5760003660031901126100ff5760006003548060011c90600181168015610745575b6020831081146102df578285529081156102c357506001146106ee5750819003601f01601f191681019067ffffffffffffffff821181831017610256576102528291826040528261074f565b905060036000527fc2575a0e9e593c00f959f8c92f12db2869c3395a3b0502d05e2516446f71f85b6000905b82821061072f57506020915082010182610222565b600181602092548385880101520191019061071a565b91607f16916106a2565b91909160208152825180602083015260005b818110610782575060409293506000838284010152601f8019910116010190565b8060208092870101516040828601015201610761565b600435906001600160a01b03821682036100ff57565b602435906001600160a01b03821682036100ff57565b919082018092116107d157565b634e487b7160e01b600052601160045260246000fd5b6001600160a01b031690811561089e576001600160a01b031691821561084e5760207f8c5be1e5ebec7d5bd14f71427d1e84f3dd0314c0f7b2291e5b200ac8c7c3b925918360005260018252604060002085600052825280604060002055604051908152a3565b60405162461bcd60e51b815260206004820152602260248201527f45524332303a20617070726f766520746f20746865207a65726f206164647265604482015261737360f01b6064820152608490fd5b60405162461bcd60e51b8152602060048201526024808201527f45524332303a20617070726f76652066726f6d20746865207a65726f206164646044820152637265737360e01b6064820152608490fd5b6001600160a01b0316908115610a1b576001600160a01b03169182156109ca5781600052600060205260406000205481811061097657817fddf252ad1be2c89b69c2b068fc378daa952ba7f163c4a11628f55a4df523b3ef9260209285600052600084520360406000205584600052600082526040600020818154019055604051908152a3565b60405162461bcd60e51b815260206004820152602660248201527f45524332303a207472616e7366657220616d6f756e7420657863656564732062604482015265616c616e636560d01b6064820152608490fd5b60405162461bcd60e51b815260206004820152602360248201527f45524332303a207472616e7366657220746f20746865207a65726f206164647260448201526265737360e81b6064820152608490fd5b60405162461bcd60e51b815260206004820152602560248201527f45524332303a207472616e736665722066726f6d20746865207a65726f206164604482015264647265737360d81b6064820152608490fdfea26469706673582212201cc6f1be4f11822d4cd79e0f00e3baf02f5e7d16664fa1a2e9866f12e29373b164736f6c634300081c0033",
  "linkReferences": {},
  "deployedLinkReferences": {}
}